{
  "_format": "hh-sol-artifact-1",
  "contractName": "CompanyManagement",
  "sourceName": "contracts/CompanyManagement.sol",
  "abi": [
    {
      "inputs": [],
      "stateMutability": "nonpayable",
      "type": "constructor"
    },
    {
      "anonymous": false,
      "inputs": [
        {
          "indexed": false,
          "internalType": "address",
          "name": "staffAddress",
          "type": "address"
        },
        {
          "indexed": false,
          "internalType": "uint256",
          "name": "roleId",
          "type": "uint256"
        },
        {
          "indexed": false,
          "internalType": "string",
          "name": "roleName",
          "type": "string"
        }
      ],
      "name": "RoleAssigned",
      "type": "event"
    },
    {
      "anonymous": false,
      "inputs": [
        {
          "indexed": false,
          "internalType": "uint256",
          "name": "roleId",
          "type": "uint256"
        },
        {
          "indexed": false,
          "internalType": "string",
          "name": "newStatus",
          "type": "string"
        }
      ],
      "name": "RoleStatusUpdatedByManager",
      "type": "event"
    },
    {
      "anonymous": false,
      "inputs": [
        {
          "indexed": false,
          "internalType": "uint256",
          "name": "signalId",
          "type": "uint256"
        },
        {
          "indexed": false,
          "internalType": "uint256",
          "name": "roleId",
          "type": "uint256"
        },
        {
          "indexed": false,
          "internalType": "address",
          "name": "staffAddress",
          "type": "address"
        },
        {
          "indexed": false,
          "internalType": "string",
          "name": "signalType",
          "type": "string"
        }
      ],
      "name": "SignalSent",
      "type": "event"
    },
    {
      "anonymous": false,
      "inputs": [
        {
          "indexed": false,
          "internalType": "address",
          "name": "staffAddress",
          "type": "address"
        },
        {
          "indexed": false,
          "internalType": "string",
          "name": "name",
          "type": "string"
        }
      ],
      "name": "StaffRegistered",
      "type": "event"
    },
    {
      "anonymous": false,
      "inputs": [
        {
          "indexed": false,
          "internalType": "address",
          "name": "staffAddress",
          "type": "address"
        },
        {
          "indexed": false,
          "internalType": "uint256",
          "name": "amount",
          "type": "uint256"
        }
      ],
      "name": "TokensDistributed",
      "type": "event"
    },
    {
      "inputs": [
        {
          "internalType": "address",
          "name": "staffAddress",
          "type": "address"
        },
        {
          "internalType": "string",
          "name": "roleName",
          "type": "string"
        },
        {
          "internalType": "uint256",
          "name": "tokenReward",
          "type": "uint256"
        }
      ],
      "name": "assignRole",
      "outputs": [],
      "stateMutability": "nonpayable",
      "type": "function"
    },
    {
      "inputs": [
        {
          "internalType": "address",
          "name": "staffAddress",
          "type": "address"
        },
        {
          "internalType": "uint256",
          "name": "roleId",
          "type": "uint256"
        }
      ],
      "name": "distributeTokensForRole",
      "outputs": [],
      "stateMutability": "nonpayable",
      "type": "function"
    },
    {
      "inputs": [],
      "name": "getAllRegisteredAddress",
      "outputs": [
        {
          "internalType": "address[]",
          "name": "",
          "type": "address[]"
        }
      ],
      "stateMutability": "view",
      "type": "function"
    },
    {
      "inputs": [
        {
          "internalType": "uint256",
          "name": "roleId",
          "type": "uint256"
        }
      ],
      "name": "getRoleDetails",
      "outputs": [
        {
          "components": [
            {
              "internalType": "string",
              "name": "roleName",
              "type": "string"
            },
            {
              "internalType": "string",
              "name": "status",
              "type": "string"
            },
            {
              "internalType": "uint256",
              "name": "tokenReward",
              "type": "uint256"
            },
            {
              "internalType": "uint256",
              "name": "createdAt",
              "type": "uint256"
            },
            {
              "internalType": "uint256",
              "name": "pendingAt",
              "type": "uint256"
            },
            {
              "internalType": "uint256",
              "name": "completedAt",
              "type": "uint256"
            },
            {
              "internalType": "address",
              "name": "roleAsignedTo",
              "type": "address"
            }
          ],
          "internalType": "struct CompanyManagement.Role",
          "name": "",
          "type": "tuple"
        }
      ],
      "stateMutability": "view",
      "type": "function"
    },
    {
      "inputs": [
        {
          "internalType": "uint256",
          "name": "roleId",
          "type": "uint256"
        }
      ],
      "name": "getSignalsForRole",
      "outputs": [
        {
          "components": [
            {
              "internalType": "uint256",
              "name": "roleId",
              "type": "uint256"
            },
            {
              "internalType": "address",
              "name": "staffAddress",
              "type": "address"
            },
            {
              "internalType": "string",
              "name": "signalType",
              "type": "string"
            }
          ],
          "internalType": "struct CompanyManagement.Signal[]",
          "name": "",
          "type": "tuple[]"
        }
      ],
      "stateMutability": "view",
      "type": "function"
    },
    {
      "inputs": [
        {
          "internalType": "address",
          "name": "staffAddress",
          "type": "address"
        }
      ],
      "name": "getStaffDetails",
      "outputs": [
        {
          "components": [
            {
              "internalType": "string",
              "name": "name",
              "type": "string"
            },
            {
              "internalType": "uint256",
              "name": "tokensEarned",
              "type": "uint256"
            },
            {
              "internalType": "uint256[]",
              "name": "roleIds",
              "type": "uint256[]"
            },
            {
              "internalType": "uint256",
              "name": "registeredAt",
              "type": "uint256"
            },
            {
              "internalType": "address",
              "name": "staffAddress",
              "type": "address"
            },
            {
              "internalType": "string",
              "name": "gender",
              "type": "string"
            }
          ],
          "internalType": "struct CompanyManagement.Staff",
          "name": "",
          "type": "tuple"
        }
      ],
      "stateMutability": "view",
      "type": "function"
    },
    {
      "inputs": [],
      "name": "manager",
      "outputs": [
        {
          "internalType": "address",
          "name": "",
          "type": "address"
        }
      ],
      "stateMutability": "view",
      "type": "function"
    },
    {
      "inputs": [
        {
          "internalType": "address",
          "name": "staffAddress",
          "type": "address"
        },
        {
          "internalType": "string",
          "name": "name",
          "type": "string"
        },
        {
          "internalType": "string",
          "name": "gender",
          "type": "string"
        }
      ],
      "name": "registerStaff",
      "outputs": [],
      "stateMutability": "nonpayable",
      "type": "function"
    },
    {
      "inputs": [
        {
          "internalType": "uint256",
          "name": "",
          "type": "uint256"
        }
      ],
      "name": "registeredStaffAddress",
      "outputs": [
        {
          "internalType": "address",
          "name": "",
          "type": "address"
        }
      ],
      "stateMutability": "view",
      "type": "function"
    },
    {
      "inputs": [],
      "name": "roleCount",
      "outputs": [
        {
          "internalType": "uint256",
          "name": "",
          "type": "uint256"
        }
      ],
      "stateMutability": "view",
      "type": "function"
    },
    {
      "inputs": [
        {
          "internalType": "uint256",
          "name": "",
          "type": "uint256"
        },
        {
          "internalType": "uint256",
          "name": "",
          "type": "uint256"
        }
      ],
      "name": "roleSignals",
      "outputs": [
        {
          "internalType": "uint256",
          "name": "roleId",
          "type": "uint256"
        },
        {
          "internalType": "address",
          "name": "staffAddress",
          "type": "address"
        },
        {
          "internalType": "string",
          "name": "signalType",
          "type": "string"
        }
      ],
      "stateMutability": "view",
      "type": "function"
    },
    {
      "inputs": [
        {
          "internalType": "uint256",
          "name": "",
          "type": "uint256"
        }
      ],
      "name": "roles",
      "outputs": [
        {
          "internalType": "string",
          "name": "roleName",
          "type": "string"
        },
        {
          "internalType": "string",
          "name": "status",
          "type": "string"
        },
        {
          "internalType": "uint256",
          "name": "tokenReward",
          "type": "uint256"
        },
        {
          "internalType": "uint256",
          "name": "createdAt",
          "type": "uint256"
        },
        {
          "internalType": "uint256",
          "name": "pendingAt",
          "type": "uint256"
        },
        {
          "internalType": "uint256",
          "name": "completedAt",
          "type": "uint256"
        },
        {
          "internalType": "address",
          "name": "roleAsignedTo",
          "type": "address"
        }
      ],
      "stateMutability": "view",
      "type": "function"
    },
    {
      "inputs": [
        {
          "internalType": "uint256",
          "name": "roleId",
          "type": "uint256"
        },
        {
          "internalType": "string",
          "name": "signalType",
          "type": "string"
        }
      ],
      "name": "sendSignal",
      "outputs": [],
      "stateMutability": "nonpayable",
      "type": "function"
    },
    {
      "inputs": [],
      "name": "signAttendance",
      "outputs": [],
      "stateMutability": "nonpayable",
      "type": "function"
    },
    {
      "inputs": [],
      "name": "signalCount",
      "outputs": [
        {
          "internalType": "uint256",
          "name": "",
          "type": "uint256"
        }
      ],
      "stateMutability": "view",
      "type": "function"
    },
    {
      "inputs": [
        {
          "internalType": "address",
          "name": "",
          "type": "address"
        }
      ],
      "name": "staffList",
      "outputs": [
        {
          "internalType": "string",
          "name": "name",
          "type": "string"
        },
        {
          "internalType": "uint256",
          "name": "tokensEarned",
          "type": "uint256"
        },
        {
          "internalType": "uint256",
          "name": "registeredAt",
          "type": "uint256"
        },
        {
          "internalType": "address",
          "name": "staffAddress",
          "type": "address"
        },
        {
          "internalType": "string",
          "name": "gender",
          "type": "string"
        }
      ],
      "stateMutability": "view",
      "type": "function"
    },
    {
      "inputs": [],
      "name": "tokenRewardPerAttendance",
      "outputs": [
        {
          "internalType": "uint256",
          "name": "",
          "type": "uint256"
        }
      ],
      "stateMutability": "view",
      "type": "function"
    },
    {
      "inputs": [
        {
          "internalType": "uint256",
          "name": "roleId",
          "type": "uint256"
        },
        {
          "internalType": "string",
          "name": "newStatus",
          "type": "string"
        }
      ],
      "name": "updateRoleStatusByManager",
      "outputs": [],
      "stateMutability": "nonpayable",
      "type": "function"
    },
    {
      "inputs": [
        {
          "internalType": "address",
          "name": "userAddress",
          "type": "address"
        },
        {
          "internalType": "uint256",
          "name": "roleId",
          "type": "uint256"
        }
      ],
      "name": "userAllRoles",
      "outputs": [
        {
          "components": [
            {
              "internalType": "string",
              "name": "roleName",
              "type": "string"
            },
            {
              "internalType": "string",
              "name": "status",
              "type": "string"
            },
            {
              "internalType": "uint256",
              "name": "tokenReward",
              "type": "uint256"
            },
            {
              "internalType": "uint256",
              "name": "createdAt",
              "type": "uint256"
            },
            {
              "internalType": "uint256",
              "name": "pendingAt",
              "type": "uint256"
            },
            {
              "internalType": "uint256",
              "name": "completedAt",
              "type": "uint256"
            },
            {
              "internalType": "address",
              "name": "roleAsignedTo",
              "type": "address"
            }
          ],
          "internalType": "struct CompanyManagement.Role[]",
          "name": "",
          "type": "tuple[]"
        }
      ],
      "stateMutability": "nonpayable",
      "type": "function"
    }
  ],
  "bytecode": "0x6080604052600a60015534801561001557600080fd5b50336000806101000a81548173ffffffffffffffffffffffffffffffffffffffff021916908373ffffffffffffffffffffffffffffffffffffffff1602179055506131bc806100656000396000f3fe608060405234801561001057600080fd5b50600436106101215760003560e01c80637f91aec5116100ad578063bf5f190a11610071578063bf5f190a146102f8578063bfda4a4914610328578063cab8107a1461035e578063cd058a511461038e578063ddf96358146103c057610121565b80637f91aec5146102625780638feee11a1461026c5780639dcd4eec1461028a578063a3b8224f146102be578063ae0041aa146102da57610121565b806337b301ad116100f457806337b301ad146101c0578063481c6a75146101f0578063560536821461020e57806358c38fb01461022a5780636746e26c1461024657610121565b8063086a77e31461012657806313cdb4a91461015657806330d7577f1461018657806334120eec146101a4575b600080fd5b610140600480360381019061013b9190611f92565b6103de565b60405161014d91906121ba565b60405180910390f35b610170600480360381019061016b9190611f92565b610542565b60405161017d91906121eb565b60405180910390f35b61018e610581565b60405161019b9190612215565b60405180910390f35b6101be60048036038101906101b99190612391565b610587565b005b6101da60048036038101906101d59190612400565b61087c565b6040516101e79190612573565b60405180910390f35b6101f8610abb565b60405161020591906121eb565b60405180910390f35b61022860048036038101906102239190612595565b610adf565b005b610244600480360381019061023f91906125d5565b610cd0565b005b610260600480360381019061025b91906125d5565b610e89565b005b61026a611052565b005b61027461117b565b60405161028191906126e0565b60405180910390f35b6102a4600480360381019061029f9190612400565b611209565b6040516102b595949392919061274c565b60405180910390f35b6102d860048036038101906102d391906127ad565b61136f565b005b6102e26116a4565b6040516102ef9190612215565b60405180910390f35b610312600480360381019061030d9190611f92565b6116aa565b60405161031f91906128db565b60405180910390f35b610342600480360381019061033d9190611f92565b611879565b60405161035597969594939291906128fd565b60405180910390f35b61037860048036038101906103739190612595565b6119eb565b6040516103859190612adf565b60405180910390f35b6103a860048036038101906103a39190612b01565b611cc4565b6040516103b793929190612b41565b60405180910390f35b6103c8611db3565b6040516103d59190612215565b60405180910390f35b606060076000838152602001908152602001600020805480602002602001604051908101604052809291908181526020016000905b828210156105375783829060005260206000209060030201604051806060016040529081600082015481526020016001820160009054906101000a900473ffffffffffffffffffffffffffffffffffffffff1673ffffffffffffffffffffffffffffffffffffffff1673ffffffffffffffffffffffffffffffffffffffff1681526020016002820180546104a690612bae565b80601f01602080910402602001604051908101604052809291908181526020018280546104d290612bae565b801561051f5780601f106104f45761010080835404028352916020019161051f565b820191906000526020600020905b81548152906001019060200180831161050257829003601f168201915b50505050508152505081526020019060010190610413565b505050509050919050565b6004818154811061055257600080fd5b906000526020600020016000915054906101000a900473ffffffffffffffffffffffffffffffffffffffff1681565b60015481565b60008054906101000a900473ffffffffffffffffffffffffffffffffffffffff1673ffffffffffffffffffffffffffffffffffffffff163373ffffffffffffffffffffffffffffffffffffffff1614610615576040517f08c379a000000000000000000000000000000000000000000000000000000000815260040161060c90612c52565b60405180910390fd5b6002600081548092919061062890612ca1565b91905055506040518060e001604052808381526020016040518060400160405280600781526020017f50656e64696e6700000000000000000000000000000000000000000000000000815250815260200182815260200142815260200142815260200160008152602001600560008673ffffffffffffffffffffffffffffffffffffffff1673ffffffffffffffffffffffffffffffffffffffff16815260200190815260200160002060040160009054906101000a900473ffffffffffffffffffffffffffffffffffffffff1673ffffffffffffffffffffffffffffffffffffffff16815250600660006002548152602001908152602001600020600082015181600001908051906020019061073f929190611db9565b50602082015181600101908051906020019061075c929190611db9565b5060408201518160020155606082015181600301556080820151816004015560a0820151816005015560c08201518160060160006101000a81548173ffffffffffffffffffffffffffffffffffffffff021916908373ffffffffffffffffffffffffffffffffffffffff160217905550905050600560008473ffffffffffffffffffffffffffffffffffffffff1673ffffffffffffffffffffffffffffffffffffffff16815260200190815260200160002060020160025490806001815401808255809150506001900390600052602060002001600090919091909150557f04247cfbd264831bd7fa78e325ffa667ea23667edaff203f5427ea93f8d44e29836002548460405161086f93929190612cea565b60405180910390a1505050565b610884611e3f565b600560008373ffffffffffffffffffffffffffffffffffffffff1673ffffffffffffffffffffffffffffffffffffffff1681526020019081526020016000206040518060c00160405290816000820180546108de90612bae565b80601f016020809104026020016040519081016040528092919081815260200182805461090a90612bae565b80156109575780601f1061092c57610100808354040283529160200191610957565b820191906000526020600020905b81548152906001019060200180831161093a57829003601f168201915b5050505050815260200160018201548152602001600282018054806020026020016040519081016040528092919081815260200182805480156109b957602002820191906000526020600020905b8154815260200190600101908083116109a5575b50505050508152602001600382015481526020016004820160009054906101000a900473ffffffffffffffffffffffffffffffffffffffff1673ffffffffffffffffffffffffffffffffffffffff1673ffffffffffffffffffffffffffffffffffffffff168152602001600582018054610a3290612bae565b80601f0160208091040260200160405190810160405280929190818152602001828054610a5e90612bae565b8015610aab5780601f10610a8057610100808354040283529160200191610aab565b820191906000526020600020905b815481529060010190602001808311610a8e57829003601f168201915b5050505050815250509050919050565b60008054906101000a900473ffffffffffffffffffffffffffffffffffffffff1681565b60008054906101000a900473ffffffffffffffffffffffffffffffffffffffff1673ffffffffffffffffffffffffffffffffffffffff163373ffffffffffffffffffffffffffffffffffffffff1614610b6d576040517f08c379a0000000000000000000000000000000000000000000000000000000008152600401610b6490612c52565b60405180910390fd5b604051602001610b7c90612d7f565b6040516020818303038152906040528051906020012060066000838152602001908152602001600020600101604051602001610bb89190612e28565b6040516020818303038152906040528051906020012014610c0e576040517f08c379a0000000000000000000000000000000000000000000000000000000008152600401610c0590612e8b565b60405180910390fd5b6006600082815260200190815260200160002060020154600560008473ffffffffffffffffffffffffffffffffffffffff1673ffffffffffffffffffffffffffffffffffffffff1681526020019081526020016000206001016000828254610c769190612eab565b925050819055507f16b0da2ffcb90c6723317bd637d9aad7f04711f42bbe0ac0918ebe10f1f9001c826006600084815260200190815260200160002060020154604051610cc4929190612f01565b60405180910390a15050565b60008054906101000a900473ffffffffffffffffffffffffffffffffffffffff1673ffffffffffffffffffffffffffffffffffffffff163373ffffffffffffffffffffffffffffffffffffffff1614610d5e576040517f08c379a0000000000000000000000000000000000000000000000000000000008152600401610d5590612c52565b60405180910390fd5b600060066000848152602001908152602001600020905081816001019080519060200190610d8d929190611db9565b50604051602001610d9d90612f76565b6040516020818303038152906040528051906020012082604051602001610dc49190612fbc565b604051602081830303815290604052805190602001201415610dee57428160040181905550610e4b565b604051602001610dfd90612d7f565b6040516020818303038152906040528051906020012082604051602001610e249190612fbc565b604051602081830303815290604052805190602001201415610e4a574281600501819055505b5b7f851c950c89e54bf5e03e7e83098592b635e1cc1579327be80ef29c5d9e4d51a78383604051610e7c929190612fd3565b60405180910390a1505050565b6000600560003373ffffffffffffffffffffffffffffffffffffffff1673ffffffffffffffffffffffffffffffffffffffff1681526020019081526020016000206000018054610ed890612bae565b905011610f1a576040517f08c379a0000000000000000000000000000000000000000000000000000000008152600401610f119061304f565b60405180910390fd5b60036000815480929190610f2d90612ca1565b91905055506007600083815260200190815260200160002060405180606001604052808481526020013373ffffffffffffffffffffffffffffffffffffffff1681526020018381525090806001815401808255809150506001900390600052602060002090600302016000909190919091506000820151816000015560208201518160010160006101000a81548173ffffffffffffffffffffffffffffffffffffffff021916908373ffffffffffffffffffffffffffffffffffffffff160217905550604082015181600201908051906020019061100c929190611db9565b5050507fb57d035487b73b43a66a3dcd0acb0f5df5967898361c3ddd026626a8e86b71cb600354833384604051611046949392919061306f565b60405180910390a15050565b6000600560003373ffffffffffffffffffffffffffffffffffffffff1673ffffffffffffffffffffffffffffffffffffffff16815260200190815260200160002060000180546110a190612bae565b9050116110e3576040517f08c379a00000000000000000000000000000000000000000000000000000000081526004016110da9061304f565b60405180910390fd5b600154600560003373ffffffffffffffffffffffffffffffffffffffff1673ffffffffffffffffffffffffffffffffffffffff16815260200190815260200160002060010160008282546111379190612eab565b925050819055507f16b0da2ffcb90c6723317bd637d9aad7f04711f42bbe0ac0918ebe10f1f9001c33600154604051611171929190612f01565b60405180910390a1565b606060048054806020026020016040519081016040528092919081815260200182805480156111ff57602002820191906000526020600020905b8160009054906101000a900473ffffffffffffffffffffffffffffffffffffffff1673ffffffffffffffffffffffffffffffffffffffff16815260200190600101908083116111b5575b5050505050905090565b600560205280600052604060002060009150905080600001805461122c90612bae565b80601f016020809104026020016040519081016040528092919081815260200182805461125890612bae565b80156112a55780601f1061127a576101008083540402835291602001916112a5565b820191906000526020600020905b81548152906001019060200180831161128857829003601f168201915b5050505050908060010154908060030154908060040160009054906101000a900473ffffffffffffffffffffffffffffffffffffffff16908060050180546112ec90612bae565b80601f016020809104026020016040519081016040528092919081815260200182805461131890612bae565b80156113655780601f1061133a57610100808354040283529160200191611365565b820191906000526020600020905b81548152906001019060200180831161134857829003601f168201915b5050505050905085565b60008054906101000a900473ffffffffffffffffffffffffffffffffffffffff1673ffffffffffffffffffffffffffffffffffffffff163373ffffffffffffffffffffffffffffffffffffffff16146113fd576040517f08c379a00000000000000000000000000000000000000000000000000000000081526004016113f490612c52565b60405180910390fd5b6000600560008573ffffffffffffffffffffffffffffffffffffffff1673ffffffffffffffffffffffffffffffffffffffff1681526020019081526020016000206003015414611482576040517f08c379a000000000000000000000000000000000000000000000000000000000815260040161147990613107565b60405180910390fd5b6040518060c0016040528083815260200160008152602001600067ffffffffffffffff8111156114b5576114b4612266565b5b6040519080825280602002602001820160405280156114e35781602001602082028036833780820191505090505b5081526020014281526020018473ffffffffffffffffffffffffffffffffffffffff16815260200182815250600560008573ffffffffffffffffffffffffffffffffffffffff1673ffffffffffffffffffffffffffffffffffffffff168152602001908152602001600020600082015181600001908051906020019061156a929190611db9565b50602082015181600101556040820151816002019080519060200190611591929190611e8b565b506060820151816003015560808201518160040160006101000a81548173ffffffffffffffffffffffffffffffffffffffff021916908373ffffffffffffffffffffffffffffffffffffffff16021790555060a08201518160050190805190602001906115ff929190611db9565b509050506004839080600181540180825580915050600190039060005260206000200160009091909190916101000a81548173ffffffffffffffffffffffffffffffffffffffff021916908373ffffffffffffffffffffffffffffffffffffffff1602179055507fa030fd4c7d3464e2ab354cc6357d7c2e9b69a215a9ff95d0bea2dd9dacb592b78383604051611697929190613127565b60405180910390a1505050565b60035481565b6116b2611ed8565b600660008381526020019081526020016000206040518060e00160405290816000820180546116e090612bae565b80601f016020809104026020016040519081016040528092919081815260200182805461170c90612bae565b80156117595780601f1061172e57610100808354040283529160200191611759565b820191906000526020600020905b81548152906001019060200180831161173c57829003601f168201915b5050505050815260200160018201805461177290612bae565b80601f016020809104026020016040519081016040528092919081815260200182805461179e90612bae565b80156117eb5780601f106117c0576101008083540402835291602001916117eb565b820191906000526020600020905b8154815290600101906020018083116117ce57829003601f168201915b50505050508152602001600282015481526020016003820154815260200160048201548152602001600582015481526020016006820160009054906101000a900473ffffffffffffffffffffffffffffffffffffffff1673ffffffffffffffffffffffffffffffffffffffff1673ffffffffffffffffffffffffffffffffffffffff16815250509050919050565b600660205280600052604060002060009150905080600001805461189c90612bae565b80601f01602080910402602001604051908101604052809291908181526020018280546118c890612bae565b80156119155780601f106118ea57610100808354040283529160200191611915565b820191906000526020600020905b8154815290600101906020018083116118f857829003601f168201915b50505050509080600101805461192a90612bae565b80601f016020809104026020016040519081016040528092919081815260200182805461195690612bae565b80156119a35780601f10611978576101008083540402835291602001916119a3565b820191906000526020600020905b81548152906001019060200180831161198657829003601f168201915b5050505050908060020154908060030154908060040154908060050154908060060160009054906101000a900473ffffffffffffffffffffffffffffffffffffffff16905087565b60606000600560008573ffffffffffffffffffffffffffffffffffffffff1673ffffffffffffffffffffffffffffffffffffffff16815260200190815260200160002060020190506000818054905067ffffffffffffffff811115611a5357611a52612266565b5b604051908082528060200260200182016040528015611a8c57816020015b611a79611ed8565b815260200190600190039081611a715790505b50905060005b8280549050811015611cb8576000838281548110611ab357611ab2613157565b5b906000526020600020015490506000600660008381526020019081526020016000209050806040518060e0016040529081600082018054611af390612bae565b80601f0160208091040260200160405190810160405280929190818152602001828054611b1f90612bae565b8015611b6c5780601f10611b4157610100808354040283529160200191611b6c565b820191906000526020600020905b815481529060010190602001808311611b4f57829003601f168201915b50505050508152602001600182018054611b8590612bae565b80601f0160208091040260200160405190810160405280929190818152602001828054611bb190612bae565b8015611bfe5780601f10611bd357610100808354040283529160200191611bfe565b820191906000526020600020905b815481529060010190602001808311611be157829003601f168201915b50505050508152602001600282015481526020016003820154815260200160048201548152602001600582015481526020016006820160009054906101000a900473ffffffffffffffffffffffffffffffffffffffff1673ffffffffffffffffffffffffffffffffffffffff1673ffffffffffffffffffffffffffffffffffffffff1681525050848481518110611c9857611c97613157565b5b602002602001018190525050508080611cb090612ca1565b915050611a92565b50809250505092915050565b60076020528160005260406000208181548110611ce057600080fd5b9060005260206000209060030201600091509150508060000154908060010160009054906101000a900473ffffffffffffffffffffffffffffffffffffffff1690806002018054611d3090612bae565b80601f0160208091040260200160405190810160405280929190818152602001828054611d5c90612bae565b8015611da95780601f10611d7e57610100808354040283529160200191611da9565b820191906000526020600020905b815481529060010190602001808311611d8c57829003601f168201915b5050505050905083565b60025481565b828054611dc590612bae565b90600052602060002090601f016020900481019282611de75760008555611e2e565b82601f10611e0057805160ff1916838001178555611e2e565b82800160010185558215611e2e579182015b82811115611e2d578251825591602001919060010190611e12565b5b509050611e3b9190611f2b565b5090565b6040518060c0016040528060608152602001600081526020016060815260200160008152602001600073ffffffffffffffffffffffffffffffffffffffff168152602001606081525090565b828054828255906000526020600020908101928215611ec7579160200282015b82811115611ec6578251825591602001919060010190611eab565b5b509050611ed49190611f2b565b5090565b6040518060e00160405280606081526020016060815260200160008152602001600081526020016000815260200160008152602001600073ffffffffffffffffffffffffffffffffffffffff1681525090565b5b80821115611f44576000816000905550600101611f2c565b5090565b6000604051905090565b600080fd5b600080fd5b6000819050919050565b611f6f81611f5c565b8114611f7a57600080fd5b50565b600081359050611f8c81611f66565b92915050565b600060208284031215611fa857611fa7611f52565b5b6000611fb684828501611f7d565b91505092915050565b600081519050919050565b600082825260208201905092915050565b6000819050602082019050919050565b611ff481611f5c565b82525050565b600073ffffffffffffffffffffffffffffffffffffffff82169050919050565b600061202582611ffa565b9050919050565b6120358161201a565b82525050565b600081519050919050565b600082825260208201905092915050565b60005b8381101561207557808201518184015260208101905061205a565b83811115612084576000848401525b50505050565b6000601f19601f8301169050919050565b60006120a68261203b565b6120b08185612046565b93506120c0818560208601612057565b6120c98161208a565b840191505092915050565b60006060830160008301516120ec6000860182611feb565b5060208301516120ff602086018261202c565b5060408301518482036040860152612117828261209b565b9150508091505092915050565b600061213083836120d4565b905092915050565b6000602082019050919050565b600061215082611fbf565b61215a8185611fca565b93508360208202850161216c85611fdb565b8060005b858110156121a857848403895281516121898582612124565b945061219483612138565b925060208a01995050600181019050612170565b50829750879550505050505092915050565b600060208201905081810360008301526121d48184612145565b905092915050565b6121e58161201a565b82525050565b600060208201905061220060008301846121dc565b92915050565b61220f81611f5c565b82525050565b600060208201905061222a6000830184612206565b92915050565b6122398161201a565b811461224457600080fd5b50565b60008135905061225681612230565b92915050565b600080fd5b600080fd5b7f4e487b7100000000000000000000000000000000000000000000000000000000600052604160045260246000fd5b61229e8261208a565b810181811067ffffffffffffffff821117156122bd576122bc612266565b5b80604052505050565b60006122d0611f48565b90506122dc8282612295565b919050565b600067ffffffffffffffff8211156122fc576122fb612266565b5b6123058261208a565b9050602081019050919050565b82818337600083830152505050565b600061233461232f846122e1565b6122c6565b9050828152602081018484840111156123505761234f612261565b5b61235b848285612312565b509392505050565b600082601f8301126123785761237761225c565b5b8135612388848260208601612321565b91505092915050565b6000806000606084860312156123aa576123a9611f52565b5b60006123b886828701612247565b935050602084013567ffffffffffffffff8111156123d9576123d8611f57565b5b6123e586828701612363565b92505060406123f686828701611f7d565b9150509250925092565b60006020828403121561241657612415611f52565b5b600061242484828501612247565b91505092915050565b600081519050919050565b600082825260208201905092915050565b6000819050602082019050919050565b60006124658383611feb565b60208301905092915050565b6000602082019050919050565b60006124898261242d565b6124938185612438565b935061249e83612449565b8060005b838110156124cf5781516124b68882612459565b97506124c183612471565b9250506001810190506124a2565b5085935050505092915050565b600060c08301600083015184820360008601526124f9828261209b565b915050602083015161250e6020860182611feb565b5060408301518482036040860152612526828261247e565b915050606083015161253b6060860182611feb565b50608083015161254e608086018261202c565b5060a083015184820360a0860152612566828261209b565b9150508091505092915050565b6000602082019050818103600083015261258d81846124dc565b905092915050565b600080604083850312156125ac576125ab611f52565b5b60006125ba85828601612247565b92505060206125cb85828601611f7d565b9150509250929050565b600080604083850312156125ec576125eb611f52565b5b60006125fa85828601611f7d565b925050602083013567ffffffffffffffff81111561261b5761261a611f57565b5b61262785828601612363565b9150509250929050565b600081519050919050565b600082825260208201905092915050565b6000819050602082019050919050565b6000612669838361202c565b60208301905092915050565b6000602082019050919050565b600061268d82612631565b612697818561263c565b93506126a28361264d565b8060005b838110156126d35781516126ba888261265d565b97506126c583612675565b9250506001810190506126a6565b5085935050505092915050565b600060208201905081810360008301526126fa8184612682565b905092915050565b600082825260208201905092915050565b600061271e8261203b565b6127288185612702565b9350612738818560208601612057565b6127418161208a565b840191505092915050565b600060a08201905081810360008301526127668188612713565b90506127756020830187612206565b6127826040830186612206565b61278f60608301856121dc565b81810360808301526127a18184612713565b90509695505050505050565b6000806000606084860312156127c6576127c5611f52565b5b60006127d486828701612247565b935050602084013567ffffffffffffffff8111156127f5576127f4611f57565b5b61280186828701612363565b925050604084013567ffffffffffffffff81111561282257612821611f57565b5b61282e86828701612363565b9150509250925092565b600060e0830160008301518482036000860152612855828261209b565b9150506020830151848203602086015261286f828261209b565b91505060408301516128846040860182611feb565b5060608301516128976060860182611feb565b5060808301516128aa6080860182611feb565b5060a08301516128bd60a0860182611feb565b5060c08301516128d060c086018261202c565b508091505092915050565b600060208201905081810360008301526128f58184612838565b905092915050565b600060e0820190508181036000830152612917818a612713565b9050818103602083015261292b8189612713565b905061293a6040830188612206565b6129476060830187612206565b6129546080830186612206565b61296160a0830185612206565b61296e60c08301846121dc565b98975050505050505050565b600081519050919050565b600082825260208201905092915050565b6000819050602082019050919050565b600060e08301600083015184820360008601526129c3828261209b565b915050602083015184820360208601526129dd828261209b565b91505060408301516129f26040860182611feb565b506060830151612a056060860182611feb565b506080830151612a186080860182611feb565b5060a0830151612a2b60a0860182611feb565b5060c0830151612a3e60c086018261202c565b508091505092915050565b6000612a5583836129a6565b905092915050565b6000602082019050919050565b6000612a758261297a565b612a7f8185612985565b935083602082028501612a9185612996565b8060005b85811015612acd5784840389528151612aae8582612a49565b9450612ab983612a5d565b925060208a01995050600181019050612a95565b50829750879550505050505092915050565b60006020820190508181036000830152612af98184612a6a565b905092915050565b60008060408385031215612b1857612b17611f52565b5b6000612b2685828601611f7d565b9250506020612b3785828601611f7d565b9150509250929050565b6000606082019050612b566000830186612206565b612b6360208301856121dc565b8181036040830152612b758184612713565b9050949350505050565b7f4e487b7100000000000000000000000000000000000000000000000000000000600052602260045260246000fd5b60006002820490506001821680612bc657607f821691505b60208210811415612bda57612bd9612b7f565b5b50919050565b7f4f6e6c79206d616e616765722063616e2063616c6c20746869732066756e637460008201527f696f6e0000000000000000000000000000000000000000000000000000000000602082015250565b6000612c3c602383612702565b9150612c4782612be0565b604082019050919050565b60006020820190508181036000830152612c6b81612c2f565b9050919050565b7f4e487b7100000000000000000000000000000000000000000000000000000000600052601160045260246000fd5b6000612cac82611f5c565b91507fffffffffffffffffffffffffffffffffffffffffffffffffffffffffffffffff821415612cdf57612cde612c72565b5b600182019050919050565b6000606082019050612cff60008301866121dc565b612d0c6020830185612206565b8181036040830152612d1e8184612713565b9050949350505050565b600081905092915050565b7f436f6d706c657465640000000000000000000000000000000000000000000000600082015250565b6000612d69600983612d28565b9150612d7482612d33565b600982019050919050565b6000612d8a82612d5c565b9150819050919050565b60008190508160005260206000209050919050565b60008154612db681612bae565b612dc08186612d28565b94506001821660008114612ddb5760018114612dec57612e1f565b60ff19831686528186019350612e1f565b612df585612d94565b60005b83811015612e1757815481890152600182019150602081019050612df8565b838801955050505b50505092915050565b6000612e348284612da9565b915081905092915050565b7f526f6c65206e6f7420636f6d706c657465640000000000000000000000000000600082015250565b6000612e75601283612702565b9150612e8082612e3f565b602082019050919050565b60006020820190508181036000830152612ea481612e68565b9050919050565b6000612eb682611f5c565b9150612ec183611f5c565b9250827fffffffffffffffffffffffffffffffffffffffffffffffffffffffffffffffff03821115612ef657612ef5612c72565b5b828201905092915050565b6000604082019050612f1660008301856121dc565b612f236020830184612206565b9392505050565b7f50656e64696e6700000000000000000000000000000000000000000000000000600082015250565b6000612f60600783612d28565b9150612f6b82612f2a565b600782019050919050565b6000612f8182612f53565b9150819050919050565b6000612f968261203b565b612fa08185612d28565b9350612fb0818560208601612057565b80840191505092915050565b6000612fc88284612f8b565b915081905092915050565b6000604082019050612fe86000830185612206565b8181036020830152612ffa8184612713565b90509392505050565b7f4e6f742061207265676973746572656420737461666600000000000000000000600082015250565b6000613039601683612702565b915061304482613003565b602082019050919050565b600060208201905081810360008301526130688161302c565b9050919050565b60006080820190506130846000830187612206565b6130916020830186612206565b61309e60408301856121dc565b81810360608301526130b08184612713565b905095945050505050565b7f537461666620616c726561647920726567697374657265640000000000000000600082015250565b60006130f1601883612702565b91506130fc826130bb565b602082019050919050565b60006020820190508181036000830152613120816130e4565b9050919050565b600060408201905061313c60008301856121dc565b818103602083015261314e8184612713565b90509392505050565b7f4e487b7100000000000000000000000000000000000000000000000000000000600052603260045260246000fdfea264697066735822122048e63e3ab4add74ba79c8fca26a2cdd92e789ce7be2508de87958ae296d7e00764736f6c63430008090033",
  "linkReferences": {},
  "deployedLinkReferences": {}
}