{
  "_format": "hh-sol-artifact-1",
  "contractName": "CompanyManagement",
  "sourceName": "contracts/CompanyManagement.sol",
  "abi": [
    {
      "inputs": [],
      "stateMutability": "nonpayable",
      "type": "constructor"
    },
    {
      "anonymous": false,
      "inputs": [
        {
          "indexed": false,
          "internalType": "address",
          "name": "staffAddress",
          "type": "address"
        },
        {
          "indexed": false,
          "internalType": "uint256",
          "name": "roleId",
          "type": "uint256"
        },
        {
          "indexed": false,
          "internalType": "string",
          "name": "roleName",
          "type": "string"
        }
      ],
      "name": "RoleAssigned",
      "type": "event"
    },
    {
      "anonymous": false,
      "inputs": [
        {
          "indexed": false,
          "internalType": "uint256",
          "name": "roleId",
          "type": "uint256"
        },
        {
          "indexed": false,
          "internalType": "string",
          "name": "newStatus",
          "type": "string"
        }
      ],
      "name": "RoleStatusUpdatedByManager",
      "type": "event"
    },
    {
      "anonymous": false,
      "inputs": [
        {
          "indexed": false,
          "internalType": "uint256",
          "name": "signalId",
          "type": "uint256"
        },
        {
          "indexed": false,
          "internalType": "uint256",
          "name": "roleId",
          "type": "uint256"
        },
        {
          "indexed": false,
          "internalType": "address",
          "name": "staffAddress",
          "type": "address"
        },
        {
          "indexed": false,
          "internalType": "string",
          "name": "signalType",
          "type": "string"
        }
      ],
      "name": "SignalSent",
      "type": "event"
    },
    {
      "anonymous": false,
      "inputs": [
        {
          "indexed": false,
          "internalType": "address",
          "name": "staffAddress",
          "type": "address"
        },
        {
          "indexed": false,
          "internalType": "string",
          "name": "name",
          "type": "string"
        }
      ],
      "name": "StaffRegistered",
      "type": "event"
    },
    {
      "anonymous": false,
      "inputs": [
        {
          "indexed": false,
          "internalType": "address",
          "name": "staffAddress",
          "type": "address"
        },
        {
          "indexed": false,
          "internalType": "uint256",
          "name": "amount",
          "type": "uint256"
        }
      ],
      "name": "TokensDistributed",
      "type": "event"
    },
    {
      "inputs": [
        {
          "internalType": "address",
          "name": "staffAddress",
          "type": "address"
        },
        {
          "internalType": "string",
          "name": "roleName",
          "type": "string"
        },
        {
          "internalType": "uint256",
          "name": "tokenReward",
          "type": "uint256"
        }
      ],
      "name": "assignRole",
      "outputs": [],
      "stateMutability": "nonpayable",
      "type": "function"
    },
    {
      "inputs": [
        {
          "internalType": "address",
          "name": "staffAddress",
          "type": "address"
        },
        {
          "internalType": "uint256",
          "name": "roleId",
          "type": "uint256"
        }
      ],
      "name": "distributeTokensForRole",
      "outputs": [],
      "stateMutability": "nonpayable",
      "type": "function"
    },
    {
      "inputs": [
        {
          "internalType": "uint256",
          "name": "roleId",
          "type": "uint256"
        }
      ],
      "name": "getRoleDetails",
      "outputs": [
        {
          "components": [
            {
              "internalType": "string",
              "name": "roleName",
              "type": "string"
            },
            {
              "internalType": "string",
              "name": "status",
              "type": "string"
            },
            {
              "internalType": "uint256",
              "name": "tokenReward",
              "type": "uint256"
            },
            {
              "internalType": "uint256",
              "name": "createdAt",
              "type": "uint256"
            },
            {
              "internalType": "uint256",
              "name": "pendingAt",
              "type": "uint256"
            },
            {
              "internalType": "uint256",
              "name": "completedAt",
              "type": "uint256"
            }
          ],
          "internalType": "struct CompanyManagement.Role",
          "name": "",
          "type": "tuple"
        }
      ],
      "stateMutability": "view",
      "type": "function"
    },
    {
      "inputs": [
        {
          "internalType": "uint256",
          "name": "roleId",
          "type": "uint256"
        }
      ],
      "name": "getSignalsForRole",
      "outputs": [
        {
          "components": [
            {
              "internalType": "uint256",
              "name": "roleId",
              "type": "uint256"
            },
            {
              "internalType": "address",
              "name": "staffAddress",
              "type": "address"
            },
            {
              "internalType": "string",
              "name": "signalType",
              "type": "string"
            }
          ],
          "internalType": "struct CompanyManagement.Signal[]",
          "name": "",
          "type": "tuple[]"
        }
      ],
      "stateMutability": "view",
      "type": "function"
    },
    {
      "inputs": [
        {
          "internalType": "address",
          "name": "staffAddress",
          "type": "address"
        }
      ],
      "name": "getStaffDetails",
      "outputs": [
        {
          "components": [
            {
              "internalType": "string",
              "name": "name",
              "type": "string"
            },
            {
              "internalType": "uint256",
              "name": "tokensEarned",
              "type": "uint256"
            },
            {
              "internalType": "uint256[]",
              "name": "roleIds",
              "type": "uint256[]"
            },
            {
              "internalType": "uint256",
              "name": "registeredAt",
              "type": "uint256"
            }
          ],
          "internalType": "struct CompanyManagement.Staff",
          "name": "",
          "type": "tuple"
        }
      ],
      "stateMutability": "view",
      "type": "function"
    },
    {
      "inputs": [],
      "name": "manager",
      "outputs": [
        {
          "internalType": "address",
          "name": "",
          "type": "address"
        }
      ],
      "stateMutability": "view",
      "type": "function"
    },
    {
      "inputs": [
        {
          "internalType": "address",
          "name": "staffAddress",
          "type": "address"
        },
        {
          "internalType": "string",
          "name": "name",
          "type": "string"
        }
      ],
      "name": "registerStaff",
      "outputs": [],
      "stateMutability": "nonpayable",
      "type": "function"
    },
    {
      "inputs": [],
      "name": "roleCount",
      "outputs": [
        {
          "internalType": "uint256",
          "name": "",
          "type": "uint256"
        }
      ],
      "stateMutability": "view",
      "type": "function"
    },
    {
      "inputs": [
        {
          "internalType": "uint256",
          "name": "",
          "type": "uint256"
        },
        {
          "internalType": "uint256",
          "name": "",
          "type": "uint256"
        }
      ],
      "name": "roleSignals",
      "outputs": [
        {
          "internalType": "uint256",
          "name": "roleId",
          "type": "uint256"
        },
        {
          "internalType": "address",
          "name": "staffAddress",
          "type": "address"
        },
        {
          "internalType": "string",
          "name": "signalType",
          "type": "string"
        }
      ],
      "stateMutability": "view",
      "type": "function"
    },
    {
      "inputs": [
        {
          "internalType": "uint256",
          "name": "",
          "type": "uint256"
        }
      ],
      "name": "roles",
      "outputs": [
        {
          "internalType": "string",
          "name": "roleName",
          "type": "string"
        },
        {
          "internalType": "string",
          "name": "status",
          "type": "string"
        },
        {
          "internalType": "uint256",
          "name": "tokenReward",
          "type": "uint256"
        },
        {
          "internalType": "uint256",
          "name": "createdAt",
          "type": "uint256"
        },
        {
          "internalType": "uint256",
          "name": "pendingAt",
          "type": "uint256"
        },
        {
          "internalType": "uint256",
          "name": "completedAt",
          "type": "uint256"
        }
      ],
      "stateMutability": "view",
      "type": "function"
    },
    {
      "inputs": [
        {
          "internalType": "uint256",
          "name": "roleId",
          "type": "uint256"
        },
        {
          "internalType": "string",
          "name": "signalType",
          "type": "string"
        }
      ],
      "name": "sendSignal",
      "outputs": [],
      "stateMutability": "nonpayable",
      "type": "function"
    },
    {
      "inputs": [],
      "name": "signAttendance",
      "outputs": [],
      "stateMutability": "nonpayable",
      "type": "function"
    },
    {
      "inputs": [],
      "name": "signalCount",
      "outputs": [
        {
          "internalType": "uint256",
          "name": "",
          "type": "uint256"
        }
      ],
      "stateMutability": "view",
      "type": "function"
    },
    {
      "inputs": [
        {
          "internalType": "address",
          "name": "",
          "type": "address"
        }
      ],
      "name": "staffList",
      "outputs": [
        {
          "internalType": "string",
          "name": "name",
          "type": "string"
        },
        {
          "internalType": "uint256",
          "name": "tokensEarned",
          "type": "uint256"
        },
        {
          "internalType": "uint256",
          "name": "registeredAt",
          "type": "uint256"
        }
      ],
      "stateMutability": "view",
      "type": "function"
    },
    {
      "inputs": [],
      "name": "tokenRewardPerAttendance",
      "outputs": [
        {
          "internalType": "uint256",
          "name": "",
          "type": "uint256"
        }
      ],
      "stateMutability": "view",
      "type": "function"
    },
    {
      "inputs": [
        {
          "internalType": "uint256",
          "name": "roleId",
          "type": "uint256"
        },
        {
          "internalType": "string",
          "name": "newStatus",
          "type": "string"
        }
      ],
      "name": "updateRoleStatusByManager",
      "outputs": [],
      "stateMutability": "nonpayable",
      "type": "function"
    }
  ],
  "bytecode": "0x6080604052600a60015534801561001557600080fd5b50336000806101000a81548173ffffffffffffffffffffffffffffffffffffffff021916908373ffffffffffffffffffffffffffffffffffffffff160217905550612645806100656000396000f3fe608060405234801561001057600080fd5b50600436106101005760003560e01c80637f91aec511610097578063bf5f190a11610066578063bf5f190a14610287578063bfda4a49146102b7578063cd058a51146102ec578063ddf963581461031e57610100565b80637f91aec5146102115780639dcd4eec1461021b578063a0187d6e1461024d578063ae0041aa1461026957610100565b8063481c6a75116100d3578063481c6a751461019f57806356053682146101bd57806358c38fb0146101d95780636746e26c146101f557610100565b8063086a77e31461010557806330d7577f1461013557806334120eec1461015357806337b301ad1461016f575b600080fd5b61011f600480360381019061011a9190611742565b61033c565b60405161012c919061196a565b60405180910390f35b61013d6104a0565b60405161014a919061199b565b60405180910390f35b61016d60048036038101906101689190611b17565b6104a6565b005b61018960048036038101906101849190611b86565b6106d6565b6040516101969190611ccc565b60405180910390f35b6101a761082d565b6040516101b49190611cfd565b60405180910390f35b6101d760048036038101906101d29190611d18565b610851565b005b6101f360048036038101906101ee9190611d58565b610a42565b005b61020f600480360381019061020a9190611d58565b610bfb565b005b610219610dc4565b005b61023560048036038101906102309190611b86565b610eed565b60405161024493929190611dfe565b60405180910390f35b61026760048036038101906102629190611e3c565b610f9f565b005b6102716111ea565b60405161027e919061199b565b60405180910390f35b6102a1600480360381019061029c9190611742565b6111f0565b6040516102ae9190611f28565b60405180910390f35b6102d160048036038101906102cc9190611742565b611369565b6040516102e396959493929190611f4a565b60405180910390f35b61030660048036038101906103019190611fb9565b6114b5565b60405161031593929190611ff9565b60405180910390f35b6103266115a4565b604051610333919061199b565b60405180910390f35b606060066000838152602001908152602001600020805480602002602001604051908101604052809291908181526020016000905b828210156104955783829060005260206000209060030201604051806060016040529081600082015481526020016001820160009054906101000a900473ffffffffffffffffffffffffffffffffffffffff1673ffffffffffffffffffffffffffffffffffffffff1673ffffffffffffffffffffffffffffffffffffffff16815260200160028201805461040490612066565b80601f016020809104026020016040519081016040528092919081815260200182805461043090612066565b801561047d5780601f106104525761010080835404028352916020019161047d565b820191906000526020600020905b81548152906001019060200180831161046057829003601f168201915b50505050508152505081526020019060010190610371565b505050509050919050565b60015481565b60008054906101000a900473ffffffffffffffffffffffffffffffffffffffff1673ffffffffffffffffffffffffffffffffffffffff163373ffffffffffffffffffffffffffffffffffffffff1614610534576040517f08c379a000000000000000000000000000000000000000000000000000000000815260040161052b9061210a565b60405180910390fd5b6002600081548092919061054790612159565b91905055506040518060c001604052808381526020016040518060400160405280600781526020017f50656e64696e67000000000000000000000000000000000000000000000000008152508152602001828152602001428152602001428152602001600081525060056000600254815260200190815260200160002060008201518160000190805190602001906105e09291906115aa565b5060208201518160010190805190602001906105fd9291906115aa565b5060408201518160020155606082015181600301556080820151816004015560a08201518160050155905050600460008473ffffffffffffffffffffffffffffffffffffffff1673ffffffffffffffffffffffffffffffffffffffff16815260200190815260200160002060020160025490806001815401808255809150506001900390600052602060002001600090919091909150557f04247cfbd264831bd7fa78e325ffa667ea23667edaff203f5427ea93f8d44e2983600254846040516106c9939291906121a2565b60405180910390a1505050565b6106de611630565b600460008373ffffffffffffffffffffffffffffffffffffffff1673ffffffffffffffffffffffffffffffffffffffff16815260200190815260200160002060405180608001604052908160008201805461073890612066565b80601f016020809104026020016040519081016040528092919081815260200182805461076490612066565b80156107b15780601f10610786576101008083540402835291602001916107b1565b820191906000526020600020905b81548152906001019060200180831161079457829003601f168201915b50505050508152602001600182015481526020016002820180548060200260200160405190810160405280929190818152602001828054801561081357602002820191906000526020600020905b8154815260200190600101908083116107ff575b505050505081526020016003820154815250509050919050565b60008054906101000a900473ffffffffffffffffffffffffffffffffffffffff1681565b60008054906101000a900473ffffffffffffffffffffffffffffffffffffffff1673ffffffffffffffffffffffffffffffffffffffff163373ffffffffffffffffffffffffffffffffffffffff16146108df576040517f08c379a00000000000000000000000000000000000000000000000000000000081526004016108d69061210a565b60405180910390fd5b6040516020016108ee90612237565b604051602081830303815290604052805190602001206005600083815260200190815260200160002060010160405160200161092a91906122e0565b6040516020818303038152906040528051906020012014610980576040517f08c379a000000000000000000000000000000000000000000000000000000000815260040161097790612343565b60405180910390fd5b6005600082815260200190815260200160002060020154600460008473ffffffffffffffffffffffffffffffffffffffff1673ffffffffffffffffffffffffffffffffffffffff16815260200190815260200160002060010160008282546109e89190612363565b925050819055507f16b0da2ffcb90c6723317bd637d9aad7f04711f42bbe0ac0918ebe10f1f9001c826005600084815260200190815260200160002060020154604051610a369291906123b9565b60405180910390a15050565b60008054906101000a900473ffffffffffffffffffffffffffffffffffffffff1673ffffffffffffffffffffffffffffffffffffffff163373ffffffffffffffffffffffffffffffffffffffff1614610ad0576040517f08c379a0000000000000000000000000000000000000000000000000000000008152600401610ac79061210a565b60405180910390fd5b600060056000848152602001908152602001600020905081816001019080519060200190610aff9291906115aa565b50604051602001610b0f9061242e565b6040516020818303038152906040528051906020012082604051602001610b369190612474565b604051602081830303815290604052805190602001201415610b6057428160040181905550610bbd565b604051602001610b6f90612237565b6040516020818303038152906040528051906020012082604051602001610b969190612474565b604051602081830303815290604052805190602001201415610bbc574281600501819055505b5b7f851c950c89e54bf5e03e7e83098592b635e1cc1579327be80ef29c5d9e4d51a78383604051610bee92919061248b565b60405180910390a1505050565b6000600460003373ffffffffffffffffffffffffffffffffffffffff1673ffffffffffffffffffffffffffffffffffffffff1681526020019081526020016000206000018054610c4a90612066565b905011610c8c576040517f08c379a0000000000000000000000000000000000000000000000000000000008152600401610c8390612507565b60405180910390fd5b60036000815480929190610c9f90612159565b91905055506006600083815260200190815260200160002060405180606001604052808481526020013373ffffffffffffffffffffffffffffffffffffffff1681526020018381525090806001815401808255809150506001900390600052602060002090600302016000909190919091506000820151816000015560208201518160010160006101000a81548173ffffffffffffffffffffffffffffffffffffffff021916908373ffffffffffffffffffffffffffffffffffffffff1602179055506040820151816002019080519060200190610d7e9291906115aa565b5050507fb57d035487b73b43a66a3dcd0acb0f5df5967898361c3ddd026626a8e86b71cb600354833384604051610db89493929190612527565b60405180910390a15050565b6000600460003373ffffffffffffffffffffffffffffffffffffffff1673ffffffffffffffffffffffffffffffffffffffff1681526020019081526020016000206000018054610e1390612066565b905011610e55576040517f08c379a0000000000000000000000000000000000000000000000000000000008152600401610e4c90612507565b60405180910390fd5b600154600460003373ffffffffffffffffffffffffffffffffffffffff1673ffffffffffffffffffffffffffffffffffffffff1681526020019081526020016000206001016000828254610ea99190612363565b925050819055507f16b0da2ffcb90c6723317bd637d9aad7f04711f42bbe0ac0918ebe10f1f9001c33600154604051610ee39291906123b9565b60405180910390a1565b6004602052806000526040600020600091509050806000018054610f1090612066565b80601f0160208091040260200160405190810160405280929190818152602001828054610f3c90612066565b8015610f895780601f10610f5e57610100808354040283529160200191610f89565b820191906000526020600020905b815481529060010190602001808311610f6c57829003601f168201915b5050505050908060010154908060030154905083565b60008054906101000a900473ffffffffffffffffffffffffffffffffffffffff1673ffffffffffffffffffffffffffffffffffffffff163373ffffffffffffffffffffffffffffffffffffffff161461102d576040517f08c379a00000000000000000000000000000000000000000000000000000000081526004016110249061210a565b60405180910390fd5b6000600460008473ffffffffffffffffffffffffffffffffffffffff1673ffffffffffffffffffffffffffffffffffffffff16815260200190815260200160002060010154146110b2576040517f08c379a00000000000000000000000000000000000000000000000000000000081526004016110a9906125bf565b60405180910390fd5b604051806080016040528082815260200160008152602001600067ffffffffffffffff8111156110e5576110e46119ec565b5b6040519080825280602002602001820160405280156111135781602001602082028036833780820191505090505b50815260200142815250600460008473ffffffffffffffffffffffffffffffffffffffff1673ffffffffffffffffffffffffffffffffffffffff16815260200190815260200160002060008201518160000190805190602001906111789291906115aa565b5060208201518160010155604082015181600201908051906020019061119f929190611658565b50606082015181600301559050507fa030fd4c7d3464e2ab354cc6357d7c2e9b69a215a9ff95d0bea2dd9dacb592b782826040516111de9291906125df565b60405180910390a15050565b60035481565b6111f86116a5565b600560008381526020019081526020016000206040518060c001604052908160008201805461122690612066565b80601f016020809104026020016040519081016040528092919081815260200182805461125290612066565b801561129f5780601f106112745761010080835404028352916020019161129f565b820191906000526020600020905b81548152906001019060200180831161128257829003601f168201915b505050505081526020016001820180546112b890612066565b80601f01602080910402602001604051908101604052809291908181526020018280546112e490612066565b80156113315780601f1061130657610100808354040283529160200191611331565b820191906000526020600020905b81548152906001019060200180831161131457829003601f168201915b505050505081526020016002820154815260200160038201548152602001600482015481526020016005820154815250509050919050565b600560205280600052604060002060009150905080600001805461138c90612066565b80601f01602080910402602001604051908101604052809291908181526020018280546113b890612066565b80156114055780601f106113da57610100808354040283529160200191611405565b820191906000526020600020905b8154815290600101906020018083116113e857829003601f168201915b50505050509080600101805461141a90612066565b80601f016020809104026020016040519081016040528092919081815260200182805461144690612066565b80156114935780601f1061146857610100808354040283529160200191611493565b820191906000526020600020905b81548152906001019060200180831161147657829003601f168201915b5050505050908060020154908060030154908060040154908060050154905086565b600660205281600052604060002081815481106114d157600080fd5b9060005260206000209060030201600091509150508060000154908060010160009054906101000a900473ffffffffffffffffffffffffffffffffffffffff169080600201805461152190612066565b80601f016020809104026020016040519081016040528092919081815260200182805461154d90612066565b801561159a5780601f1061156f5761010080835404028352916020019161159a565b820191906000526020600020905b81548152906001019060200180831161157d57829003601f168201915b5050505050905083565b60025481565b8280546115b690612066565b90600052602060002090601f0160209004810192826115d8576000855561161f565b82601f106115f157805160ff191683800117855561161f565b8280016001018555821561161f579182015b8281111561161e578251825591602001919060010190611603565b5b50905061162c91906116db565b5090565b6040518060800160405280606081526020016000815260200160608152602001600081525090565b828054828255906000526020600020908101928215611694579160200282015b82811115611693578251825591602001919060010190611678565b5b5090506116a191906116db565b5090565b6040518060c001604052806060815260200160608152602001600081526020016000815260200160008152602001600081525090565b5b808211156116f45760008160009055506001016116dc565b5090565b6000604051905090565b600080fd5b600080fd5b6000819050919050565b61171f8161170c565b811461172a57600080fd5b50565b60008135905061173c81611716565b92915050565b60006020828403121561175857611757611702565b5b60006117668482850161172d565b91505092915050565b600081519050919050565b600082825260208201905092915050565b6000819050602082019050919050565b6117a48161170c565b82525050565b600073ffffffffffffffffffffffffffffffffffffffff82169050919050565b60006117d5826117aa565b9050919050565b6117e5816117ca565b82525050565b600081519050919050565b600082825260208201905092915050565b60005b8381101561182557808201518184015260208101905061180a565b83811115611834576000848401525b50505050565b6000601f19601f8301169050919050565b6000611856826117eb565b61186081856117f6565b9350611870818560208601611807565b6118798161183a565b840191505092915050565b600060608301600083015161189c600086018261179b565b5060208301516118af60208601826117dc565b50604083015184820360408601526118c7828261184b565b9150508091505092915050565b60006118e08383611884565b905092915050565b6000602082019050919050565b60006119008261176f565b61190a818561177a565b93508360208202850161191c8561178b565b8060005b85811015611958578484038952815161193985826118d4565b9450611944836118e8565b925060208a01995050600181019050611920565b50829750879550505050505092915050565b6000602082019050818103600083015261198481846118f5565b905092915050565b6119958161170c565b82525050565b60006020820190506119b0600083018461198c565b92915050565b6119bf816117ca565b81146119ca57600080fd5b50565b6000813590506119dc816119b6565b92915050565b600080fd5b600080fd5b7f4e487b7100000000000000000000000000000000000000000000000000000000600052604160045260246000fd5b611a248261183a565b810181811067ffffffffffffffff82111715611a4357611a426119ec565b5b80604052505050565b6000611a566116f8565b9050611a628282611a1b565b919050565b600067ffffffffffffffff821115611a8257611a816119ec565b5b611a8b8261183a565b9050602081019050919050565b82818337600083830152505050565b6000611aba611ab584611a67565b611a4c565b905082815260208101848484011115611ad657611ad56119e7565b5b611ae1848285611a98565b509392505050565b600082601f830112611afe57611afd6119e2565b5b8135611b0e848260208601611aa7565b91505092915050565b600080600060608486031215611b3057611b2f611702565b5b6000611b3e868287016119cd565b935050602084013567ffffffffffffffff811115611b5f57611b5e611707565b5b611b6b86828701611ae9565b9250506040611b7c8682870161172d565b9150509250925092565b600060208284031215611b9c57611b9b611702565b5b6000611baa848285016119cd565b91505092915050565b600081519050919050565b600082825260208201905092915050565b6000819050602082019050919050565b6000611beb838361179b565b60208301905092915050565b6000602082019050919050565b6000611c0f82611bb3565b611c198185611bbe565b9350611c2483611bcf565b8060005b83811015611c55578151611c3c8882611bdf565b9750611c4783611bf7565b925050600181019050611c28565b5085935050505092915050565b60006080830160008301518482036000860152611c7f828261184b565b9150506020830151611c94602086018261179b565b5060408301518482036040860152611cac8282611c04565b9150506060830151611cc1606086018261179b565b508091505092915050565b60006020820190508181036000830152611ce68184611c62565b905092915050565b611cf7816117ca565b82525050565b6000602082019050611d126000830184611cee565b92915050565b60008060408385031215611d2f57611d2e611702565b5b6000611d3d858286016119cd565b9250506020611d4e8582860161172d565b9150509250929050565b60008060408385031215611d6f57611d6e611702565b5b6000611d7d8582860161172d565b925050602083013567ffffffffffffffff811115611d9e57611d9d611707565b5b611daa85828601611ae9565b9150509250929050565b600082825260208201905092915050565b6000611dd0826117eb565b611dda8185611db4565b9350611dea818560208601611807565b611df38161183a565b840191505092915050565b60006060820190508181036000830152611e188186611dc5565b9050611e27602083018561198c565b611e34604083018461198c565b949350505050565b60008060408385031215611e5357611e52611702565b5b6000611e61858286016119cd565b925050602083013567ffffffffffffffff811115611e8257611e81611707565b5b611e8e85828601611ae9565b9150509250929050565b600060c0830160008301518482036000860152611eb5828261184b565b91505060208301518482036020860152611ecf828261184b565b9150506040830151611ee4604086018261179b565b506060830151611ef7606086018261179b565b506080830151611f0a608086018261179b565b5060a0830151611f1d60a086018261179b565b508091505092915050565b60006020820190508181036000830152611f428184611e98565b905092915050565b600060c0820190508181036000830152611f648189611dc5565b90508181036020830152611f788188611dc5565b9050611f87604083018761198c565b611f94606083018661198c565b611fa1608083018561198c565b611fae60a083018461198c565b979650505050505050565b60008060408385031215611fd057611fcf611702565b5b6000611fde8582860161172d565b9250506020611fef8582860161172d565b9150509250929050565b600060608201905061200e600083018661198c565b61201b6020830185611cee565b818103604083015261202d8184611dc5565b9050949350505050565b7f4e487b7100000000000000000000000000000000000000000000000000000000600052602260045260246000fd5b6000600282049050600182168061207e57607f821691505b6020821081141561209257612091612037565b5b50919050565b7f4f6e6c79206d616e616765722063616e2063616c6c20746869732066756e637460008201527f696f6e0000000000000000000000000000000000000000000000000000000000602082015250565b60006120f4602383611db4565b91506120ff82612098565b604082019050919050565b60006020820190508181036000830152612123816120e7565b9050919050565b7f4e487b7100000000000000000000000000000000000000000000000000000000600052601160045260246000fd5b60006121648261170c565b91507fffffffffffffffffffffffffffffffffffffffffffffffffffffffffffffffff8214156121975761219661212a565b5b600182019050919050565b60006060820190506121b76000830186611cee565b6121c4602083018561198c565b81810360408301526121d68184611dc5565b9050949350505050565b600081905092915050565b7f436f6d706c657465640000000000000000000000000000000000000000000000600082015250565b60006122216009836121e0565b915061222c826121eb565b600982019050919050565b600061224282612214565b9150819050919050565b60008190508160005260206000209050919050565b6000815461226e81612066565b61227881866121e0565b9450600182166000811461229357600181146122a4576122d7565b60ff198316865281860193506122d7565b6122ad8561224c565b60005b838110156122cf578154818901526001820191506020810190506122b0565b838801955050505b50505092915050565b60006122ec8284612261565b915081905092915050565b7f526f6c65206e6f7420636f6d706c657465640000000000000000000000000000600082015250565b600061232d601283611db4565b9150612338826122f7565b602082019050919050565b6000602082019050818103600083015261235c81612320565b9050919050565b600061236e8261170c565b91506123798361170c565b9250827fffffffffffffffffffffffffffffffffffffffffffffffffffffffffffffffff038211156123ae576123ad61212a565b5b828201905092915050565b60006040820190506123ce6000830185611cee565b6123db602083018461198c565b9392505050565b7f50656e64696e6700000000000000000000000000000000000000000000000000600082015250565b60006124186007836121e0565b9150612423826123e2565b600782019050919050565b60006124398261240b565b9150819050919050565b600061244e826117eb565b61245881856121e0565b9350612468818560208601611807565b80840191505092915050565b60006124808284612443565b915081905092915050565b60006040820190506124a0600083018561198c565b81810360208301526124b28184611dc5565b90509392505050565b7f4e6f742061207265676973746572656420737461666600000000000000000000600082015250565b60006124f1601683611db4565b91506124fc826124bb565b602082019050919050565b60006020820190508181036000830152612520816124e4565b9050919050565b600060808201905061253c600083018761198c565b612549602083018661198c565b6125566040830185611cee565b81810360608301526125688184611dc5565b905095945050505050565b7f537461666620616c726561647920726567697374657265640000000000000000600082015250565b60006125a9601883611db4565b91506125b482612573565b602082019050919050565b600060208201905081810360008301526125d88161259c565b9050919050565b60006040820190506125f46000830185611cee565b81810360208301526126068184611dc5565b9050939250505056fea2646970667358221220d53af423c3f5fe05912ad016ca2dc624ec1f597e87dfa6b2453f838a44b6246264736f6c63430008090033",
  "linkReferences": {},
  "deployedLinkReferences": {}
}