{
  "_format": "hh-sol-artifact-1",
  "contractName": "CompanyManagement",
  "sourceName": "contracts/CompanyManagement.sol",
  "abi": [
    {
      "inputs": [
        {
          "internalType": "address",
          "name": "_tokenAddress",
          "type": "address"
        }
      ],
      "stateMutability": "nonpayable",
      "type": "constructor"
    },
    {
      "anonymous": false,
      "inputs": [
        {
          "indexed": false,
          "internalType": "address",
          "name": "staffAddress",
          "type": "address"
        },
        {
          "indexed": false,
          "internalType": "uint256",
          "name": "amount",
          "type": "uint256"
        }
      ],
      "name": "Payout",
      "type": "event"
    },
    {
      "anonymous": false,
      "inputs": [
        {
          "indexed": false,
          "internalType": "address",
          "name": "staffAddress",
          "type": "address"
        },
        {
          "indexed": false,
          "internalType": "string",
          "name": "name",
          "type": "string"
        }
      ],
      "name": "StaffRegistered",
      "type": "event"
    },
    {
      "anonymous": false,
      "inputs": [
        {
          "indexed": false,
          "internalType": "address",
          "name": "staffAddress",
          "type": "address"
        },
        {
          "indexed": false,
          "internalType": "uint256",
          "name": "taskId",
          "type": "uint256"
        },
        {
          "indexed": false,
          "internalType": "string",
          "name": "taskName",
          "type": "string"
        }
      ],
      "name": "TaskAssigned",
      "type": "event"
    },
    {
      "anonymous": false,
      "inputs": [
        {
          "indexed": false,
          "internalType": "uint256",
          "name": "taskId",
          "type": "uint256"
        },
        {
          "indexed": false,
          "internalType": "string",
          "name": "newStatus",
          "type": "string"
        }
      ],
      "name": "TaskStatusUpdatedByManagerOrStaff",
      "type": "event"
    },
    {
      "anonymous": false,
      "inputs": [
        {
          "indexed": false,
          "internalType": "address",
          "name": "staffAddress",
          "type": "address"
        },
        {
          "indexed": false,
          "internalType": "uint256",
          "name": "amount",
          "type": "uint256"
        }
      ],
      "name": "TokensDistributed",
      "type": "event"
    },
    {
      "inputs": [
        {
          "internalType": "address",
          "name": "staffAddress",
          "type": "address"
        },
        {
          "internalType": "string",
          "name": "taskName",
          "type": "string"
        },
        {
          "internalType": "uint256",
          "name": "tokenReward",
          "type": "uint256"
        }
      ],
      "name": "assignTask",
      "outputs": [],
      "stateMutability": "nonpayable",
      "type": "function"
    },
    {
      "inputs": [],
      "name": "getAllRegisteredAddress",
      "outputs": [
        {
          "internalType": "address[]",
          "name": "",
          "type": "address[]"
        }
      ],
      "stateMutability": "view",
      "type": "function"
    },
    {
      "inputs": [],
      "name": "getAttendanceReward",
      "outputs": [
        {
          "internalType": "uint256",
          "name": "",
          "type": "uint256"
        }
      ],
      "stateMutability": "view",
      "type": "function"
    },
    {
      "inputs": [
        {
          "internalType": "address",
          "name": "staffAddress",
          "type": "address"
        }
      ],
      "name": "getStaffDetails",
      "outputs": [
        {
          "components": [
            {
              "internalType": "string",
              "name": "name",
              "type": "string"
            },
            {
              "internalType": "uint256",
              "name": "tokensEarned",
              "type": "uint256"
            },
            {
              "internalType": "uint256[]",
              "name": "taskIds",
              "type": "uint256[]"
            },
            {
              "internalType": "uint256",
              "name": "registeredAt",
              "type": "uint256"
            },
            {
              "internalType": "address",
              "name": "staffAddress",
              "type": "address"
            },
            {
              "internalType": "string",
              "name": "gender",
              "type": "string"
            },
            {
              "internalType": "bool",
              "name": "isRegistered",
              "type": "bool"
            },
            {
              "internalType": "uint256",
              "name": "lastCheckin",
              "type": "uint256"
            }
          ],
          "internalType": "struct CompanyManagement.Staff",
          "name": "",
          "type": "tuple"
        }
      ],
      "stateMutability": "view",
      "type": "function"
    },
    {
      "inputs": [
        {
          "internalType": "uint256",
          "name": "taskId",
          "type": "uint256"
        }
      ],
      "name": "gettaskDetails",
      "outputs": [
        {
          "components": [
            {
              "internalType": "string",
              "name": "taskName",
              "type": "string"
            },
            {
              "internalType": "string",
              "name": "status",
              "type": "string"
            },
            {
              "internalType": "uint256",
              "name": "tokenReward",
              "type": "uint256"
            },
            {
              "internalType": "uint256",
              "name": "createdAt",
              "type": "uint256"
            },
            {
              "internalType": "uint256",
              "name": "inAcceptedAt",
              "type": "uint256"
            },
            {
              "internalType": "uint256",
              "name": "reviewAt",
              "type": "uint256"
            },
            {
              "internalType": "uint256",
              "name": "rejectedAt",
              "type": "uint256"
            },
            {
              "internalType": "uint256",
              "name": "completedAt",
              "type": "uint256"
            },
            {
              "internalType": "address",
              "name": "taskAssignedTo",
              "type": "address"
            },
            {
              "internalType": "string",
              "name": "taskAssignedToName",
              "type": "string"
            }
          ],
          "internalType": "struct CompanyManagement.Task",
          "name": "",
          "type": "tuple"
        }
      ],
      "stateMutability": "view",
      "type": "function"
    },
    {
      "inputs": [],
      "name": "manager",
      "outputs": [
        {
          "internalType": "address",
          "name": "",
          "type": "address"
        }
      ],
      "stateMutability": "view",
      "type": "function"
    },
    {
      "inputs": [
        {
          "internalType": "address",
          "name": "staffAddress",
          "type": "address"
        },
        {
          "internalType": "string",
          "name": "name",
          "type": "string"
        },
        {
          "internalType": "string",
          "name": "gender",
          "type": "string"
        }
      ],
      "name": "registerStaff",
      "outputs": [],
      "stateMutability": "nonpayable",
      "type": "function"
    },
    {
      "inputs": [
        {
          "internalType": "uint256",
          "name": "",
          "type": "uint256"
        }
      ],
      "name": "registeredStaffAddress",
      "outputs": [
        {
          "internalType": "address",
          "name": "",
          "type": "address"
        }
      ],
      "stateMutability": "view",
      "type": "function"
    },
    {
      "inputs": [],
      "name": "requestPayout",
      "outputs": [],
      "stateMutability": "nonpayable",
      "type": "function"
    },
    {
      "inputs": [
        {
          "internalType": "uint256",
          "name": "_tokenRewardPerAttendance",
          "type": "uint256"
        }
      ],
      "name": "setAttendanceReward",
      "outputs": [],
      "stateMutability": "nonpayable",
      "type": "function"
    },
    {
      "inputs": [
        {
          "internalType": "uint256",
          "name": "_tokenReward",
          "type": "uint256"
        }
      ],
      "name": "setTokenRewardPerAttendance",
      "outputs": [],
      "stateMutability": "nonpayable",
      "type": "function"
    },
    {
      "inputs": [],
      "name": "signAttendance",
      "outputs": [],
      "stateMutability": "nonpayable",
      "type": "function"
    },
    {
      "inputs": [
        {
          "internalType": "address",
          "name": "",
          "type": "address"
        }
      ],
      "name": "staffList",
      "outputs": [
        {
          "internalType": "string",
          "name": "name",
          "type": "string"
        },
        {
          "internalType": "uint256",
          "name": "tokensEarned",
          "type": "uint256"
        },
        {
          "internalType": "uint256",
          "name": "registeredAt",
          "type": "uint256"
        },
        {
          "internalType": "address",
          "name": "staffAddress",
          "type": "address"
        },
        {
          "internalType": "string",
          "name": "gender",
          "type": "string"
        },
        {
          "internalType": "bool",
          "name": "isRegistered",
          "type": "bool"
        },
        {
          "internalType": "uint256",
          "name": "lastCheckin",
          "type": "uint256"
        }
      ],
      "stateMutability": "view",
      "type": "function"
    },
    {
      "inputs": [],
      "name": "taskCount",
      "outputs": [
        {
          "internalType": "uint256",
          "name": "",
          "type": "uint256"
        }
      ],
      "stateMutability": "view",
      "type": "function"
    },
    {
      "inputs": [
        {
          "internalType": "uint256",
          "name": "",
          "type": "uint256"
        }
      ],
      "name": "tasks",
      "outputs": [
        {
          "internalType": "string",
          "name": "taskName",
          "type": "string"
        },
        {
          "internalType": "string",
          "name": "status",
          "type": "string"
        },
        {
          "internalType": "uint256",
          "name": "tokenReward",
          "type": "uint256"
        },
        {
          "internalType": "uint256",
          "name": "createdAt",
          "type": "uint256"
        },
        {
          "internalType": "uint256",
          "name": "inAcceptedAt",
          "type": "uint256"
        },
        {
          "internalType": "uint256",
          "name": "reviewAt",
          "type": "uint256"
        },
        {
          "internalType": "uint256",
          "name": "rejectedAt",
          "type": "uint256"
        },
        {
          "internalType": "uint256",
          "name": "completedAt",
          "type": "uint256"
        },
        {
          "internalType": "address",
          "name": "taskAssignedTo",
          "type": "address"
        },
        {
          "internalType": "string",
          "name": "taskAssignedToName",
          "type": "string"
        }
      ],
      "stateMutability": "view",
      "type": "function"
    },
    {
      "inputs": [],
      "name": "token",
      "outputs": [
        {
          "internalType": "contract CompanyToken",
          "name": "",
          "type": "address"
        }
      ],
      "stateMutability": "view",
      "type": "function"
    },
    {
      "inputs": [],
      "name": "tokenDecimals",
      "outputs": [
        {
          "internalType": "uint256",
          "name": "",
          "type": "uint256"
        }
      ],
      "stateMutability": "view",
      "type": "function"
    },
    {
      "inputs": [],
      "name": "tokenRewardPerAttendance",
      "outputs": [
        {
          "internalType": "uint256",
          "name": "",
          "type": "uint256"
        }
      ],
      "stateMutability": "view",
      "type": "function"
    },
    {
      "inputs": [
        {
          "internalType": "uint256",
          "name": "taskId",
          "type": "uint256"
        },
        {
          "internalType": "string",
          "name": "newStatus",
          "type": "string"
        }
      ],
      "name": "updateTaskStatusByManagerOrStaff",
      "outputs": [],
      "stateMutability": "nonpayable",
      "type": "function"
    }
  ],
  "bytecode": "0x60806040523480156200001157600080fd5b5060405162003943380380620039438339818101604052810190620000379190620001c6565b336000806101000a81548173ffffffffffffffffffffffffffffffffffffffff021916908373ffffffffffffffffffffffffffffffffffffffff16021790555080600460006101000a81548173ffffffffffffffffffffffffffffffffffffffff021916908373ffffffffffffffffffffffffffffffffffffffff160217905550600460009054906101000a900473ffffffffffffffffffffffffffffffffffffffff1673ffffffffffffffffffffffffffffffffffffffff1663313ce5676040518163ffffffff1660e01b8152600401602060405180830381865afa15801562000126573d6000803e3d6000fd5b505050506040513d601f19601f820116820180604052508101906200014c919062000236565b60ff166005819055505062000268565b600080fd5b600073ffffffffffffffffffffffffffffffffffffffff82169050919050565b60006200018e8262000161565b9050919050565b620001a08162000181565b8114620001ac57600080fd5b50565b600081519050620001c08162000195565b92915050565b600060208284031215620001df57620001de6200015c565b5b6000620001ef84828501620001af565b91505092915050565b600060ff82169050919050565b6200021081620001f8565b81146200021c57600080fd5b50565b600081519050620002308162000205565b92915050565b6000602082840312156200024f576200024e6200015c565b5b60006200025f848285016200021f565b91505092915050565b6136cb80620002786000396000f3fe608060405234801561001057600080fd5b50600436106101215760003560e01c80637f91aec5116100ad578063a3b8224f11610071578063a3b8224f14610307578063b6cb58a514610323578063c900ef7914610341578063f930361d1461035d578063fc0c546a1461037957610121565b80637f91aec5146102545780638d9776721461025e5780638feee11a146102975780639dcd4eec146102b5578063a0f20038146102eb57610121565b80633b97e856116100f45780633b97e856146101c0578063461fc106146101de578063481c6a75146101fc5780635bc1e0d21461021a57806365058f4c1461024a57610121565b80630dce4e731461012657806313cdb4a91461014257806330d7577f1461017257806337b301ad14610190575b600080fd5b610140600480360381019061013b9190612254565b610397565b005b61015c600480360381019061015791906122b0565b6106f6565b604051610169919061231e565b60405180910390f35b61017a610735565b6040516101879190612348565b60405180910390f35b6101aa60048036038101906101a5919061238f565b61073b565b6040516101b791906125e1565b60405180910390f35b6101c8610a2f565b6040516101d59190612348565b60405180910390f35b6101e6610a35565b6040516101f39190612348565b60405180910390f35b610204610a3f565b604051610211919061231e565b60405180910390f35b610234600480360381019061022f91906122b0565b610a63565b60405161024191906126eb565b60405180910390f35b610252610cd9565b005b61025c610f36565b005b610278600480360381019061027391906122b0565b61127e565b60405161028e9a99989796959493929190612757565b60405180910390f35b61029f61148a565b6040516102ac91906128b7565b60405180910390f35b6102cf60048036038101906102ca919061238f565b611518565b6040516102e297969594939291906128e8565b60405180910390f35b61030560048036038101906103009190612965565b611697565b005b610321600480360381019061031c91906129d4565b611ad6565b005b61032b611e38565b6040516103389190612348565b60405180910390f35b61035b600480360381019061035691906122b0565b611e3e565b005b610377600480360381019061037291906122b0565b611ed6565b005b610381611f6e565b60405161038e9190612abe565b60405180910390f35b8160008054906101000a900473ffffffffffffffffffffffffffffffffffffffff1673ffffffffffffffffffffffffffffffffffffffff163373ffffffffffffffffffffffffffffffffffffffff16148061045357506007600082815260200190815260200160002060080160009054906101000a900473ffffffffffffffffffffffffffffffffffffffff1673ffffffffffffffffffffffffffffffffffffffff163373ffffffffffffffffffffffffffffffffffffffff16145b610492576040517f08c379a000000000000000000000000000000000000000000000000000000000815260040161048990612b25565b60405180910390fd5b6000600760008581526020019081526020016000209050828160010190816104ba9190612d47565b506040516020016104ca90612e70565b60405160208183030381529060405280519060200120836040516020016104f19190612eb6565b604051602081830303815290604052805190602001200361051a574281600401819055506106b7565b60405160200161052990612f19565b60405160208183030381529060405280519060200120836040516020016105509190612eb6565b6040516020818303038152906040528051906020012003610579574281600501819055506106b6565b60405160200161058890612f7a565b60405160208183030381529060405280519060200120836040516020016105af9190612eb6565b60405160208183030381529060405280519060200120036105d8574281600601819055506106b5565b6040516020016105e790612fdb565b604051602081830303815290604052805190602001208360405160200161060e9190612eb6565b60405160208183030381529060405280519060200120036106b4578060020154600660008360080160009054906101000a900473ffffffffffffffffffffffffffffffffffffffff1673ffffffffffffffffffffffffffffffffffffffff1673ffffffffffffffffffffffffffffffffffffffff16815260200190815260200160002060010160008282546106a3919061301f565b925050819055504281600701819055505b5b5b5b7fa1ed1c576e24109d5c46581b29901d28b635a78dc463a7104c223026c967466e84846040516106e8929190613053565b60405180910390a150505050565b6003818154811061070657600080fd5b906000526020600020016000915054906101000a900473ffffffffffffffffffffffffffffffffffffffff1681565b60015481565b610743611f94565b600660008373ffffffffffffffffffffffffffffffffffffffff1673ffffffffffffffffffffffffffffffffffffffff16815260200190815260200160002060060160009054906101000a900460ff166107d2576040517f08c379a00000000000000000000000000000000000000000000000000000000081526004016107c9906130cf565b60405180910390fd5b600660008373ffffffffffffffffffffffffffffffffffffffff1673ffffffffffffffffffffffffffffffffffffffff1681526020019081526020016000206040518061010001604052908160008201805461082d90612b74565b80601f016020809104026020016040519081016040528092919081815260200182805461085990612b74565b80156108a65780601f1061087b576101008083540402835291602001916108a6565b820191906000526020600020905b81548152906001019060200180831161088957829003601f168201915b50505050508152602001600182015481526020016002820180548060200260200160405190810160405280929190818152602001828054801561090857602002820191906000526020600020905b8154815260200190600101908083116108f4575b50505050508152602001600382015481526020016004820160009054906101000a900473ffffffffffffffffffffffffffffffffffffffff1673ffffffffffffffffffffffffffffffffffffffff1673ffffffffffffffffffffffffffffffffffffffff16815260200160058201805461098190612b74565b80601f01602080910402602001604051908101604052809291908181526020018280546109ad90612b74565b80156109fa5780601f106109cf576101008083540402835291602001916109fa565b820191906000526020600020905b8154815290600101906020018083116109dd57829003601f168201915b505050505081526020016006820160009054906101000a900460ff161515151581526020016007820154815250509050919050565b60055481565b6000600154905090565b60008054906101000a900473ffffffffffffffffffffffffffffffffffffffff1681565b610a6b611ff1565b6007600083815260200190815260200160002060405180610140016040529081600082018054610a9a90612b74565b80601f0160208091040260200160405190810160405280929190818152602001828054610ac690612b74565b8015610b135780601f10610ae857610100808354040283529160200191610b13565b820191906000526020600020905b815481529060010190602001808311610af657829003601f168201915b50505050508152602001600182018054610b2c90612b74565b80601f0160208091040260200160405190810160405280929190818152602001828054610b5890612b74565b8015610ba55780601f10610b7a57610100808354040283529160200191610ba5565b820191906000526020600020905b815481529060010190602001808311610b8857829003601f168201915b505050505081526020016002820154815260200160038201548152602001600482015481526020016005820154815260200160068201548152602001600782015481526020016008820160009054906101000a900473ffffffffffffffffffffffffffffffffffffffff1673ffffffffffffffffffffffffffffffffffffffff1673ffffffffffffffffffffffffffffffffffffffff168152602001600982018054610c5090612b74565b80601f0160208091040260200160405190810160405280929190818152602001828054610c7c90612b74565b8015610cc95780601f10610c9e57610100808354040283529160200191610cc9565b820191906000526020600020905b815481529060010190602001808311610cac57829003601f168201915b5050505050815250509050919050565b600660003373ffffffffffffffffffffffffffffffffffffffff1673ffffffffffffffffffffffffffffffffffffffff16815260200190815260200160002060060160009054906101000a900460ff16610d68576040517f08c379a0000000000000000000000000000000000000000000000000000000008152600401610d5f9061313b565b60405180910390fd5b6000600660003373ffffffffffffffffffffffffffffffffffffffff1673ffffffffffffffffffffffffffffffffffffffff16815260200190815260200160002060010154905060008111610df2576040517f08c379a0000000000000000000000000000000000000000000000000000000008152600401610de9906131a7565b60405180910390fd5b6000600554600a610e0391906132fa565b82610e0e9190613345565b90506000600660003373ffffffffffffffffffffffffffffffffffffffff1673ffffffffffffffffffffffffffffffffffffffff16815260200190815260200160002060010181905550600460009054906101000a900473ffffffffffffffffffffffffffffffffffffffff1673ffffffffffffffffffffffffffffffffffffffff1663a9059cbb33836040518363ffffffff1660e01b8152600401610eb5929190613387565b6020604051808303816000875af1158015610ed4573d6000803e3d6000fd5b505050506040513d601f19601f82011682018060405250810190610ef891906133dc565b507f5afeca38b2064c23a692c4cf353015d80ab3ecc417b4f893f372690c11fbd9a63383604051610f2a929190613387565b60405180910390a15050565b600660003373ffffffffffffffffffffffffffffffffffffffff1673ffffffffffffffffffffffffffffffffffffffff16815260200190815260200160002060060160009054906101000a900460ff16610fc5576040517f08c379a0000000000000000000000000000000000000000000000000000000008152600401610fbc90613455565b60405180910390fd5b6000600660003373ffffffffffffffffffffffffffffffffffffffff1673ffffffffffffffffffffffffffffffffffffffff168152602001908152602001600020600701540361105b5742600660003373ffffffffffffffffffffffffffffffffffffffff1673ffffffffffffffffffffffffffffffffffffffff16815260200190815260200160002060070181905550611136565b62015180600660003373ffffffffffffffffffffffffffffffffffffffff1673ffffffffffffffffffffffffffffffffffffffff168152602001908152602001600020600701546110ac919061301f565b4210156110ee576040517f08c379a00000000000000000000000000000000000000000000000000000000081526004016110e5906134c1565b60405180910390fd5b42600660003373ffffffffffffffffffffffffffffffffffffffff1673ffffffffffffffffffffffffffffffffffffffff168152602001908152602001600020600701819055505b600154600660003373ffffffffffffffffffffffffffffffffffffffff1673ffffffffffffffffffffffffffffffffffffffff168152602001908152602001600020600101600082825461118a919061301f565b925050819055506000600554600a6111a291906132fa565b6001546111af9190613345565b9050600460009054906101000a900473ffffffffffffffffffffffffffffffffffffffff1673ffffffffffffffffffffffffffffffffffffffff166340c10f1930836040518363ffffffff1660e01b815260040161120e929190613387565b600060405180830381600087803b15801561122857600080fd5b505af115801561123c573d6000803e3d6000fd5b505050507f16b0da2ffcb90c6723317bd637d9aad7f04711f42bbe0ac0918ebe10f1f9001c33600154604051611273929190613387565b60405180910390a150565b60076020528060005260406000206000915090508060000180546112a190612b74565b80601f01602080910402602001604051908101604052809291908181526020018280546112cd90612b74565b801561131a5780601f106112ef5761010080835404028352916020019161131a565b820191906000526020600020905b8154815290600101906020018083116112fd57829003601f168201915b50505050509080600101805461132f90612b74565b80601f016020809104026020016040519081016040528092919081815260200182805461135b90612b74565b80156113a85780601f1061137d576101008083540402835291602001916113a8565b820191906000526020600020905b81548152906001019060200180831161138b57829003601f168201915b5050505050908060020154908060030154908060040154908060050154908060060154908060070154908060080160009054906101000a900473ffffffffffffffffffffffffffffffffffffffff169080600901805461140790612b74565b80601f016020809104026020016040519081016040528092919081815260200182805461143390612b74565b80156114805780601f1061145557610100808354040283529160200191611480565b820191906000526020600020905b81548152906001019060200180831161146357829003601f168201915b505050505090508a565b6060600380548060200260200160405190810160405280929190818152602001828054801561150e57602002820191906000526020600020905b8160009054906101000a900473ffffffffffffffffffffffffffffffffffffffff1673ffffffffffffffffffffffffffffffffffffffff16815260200190600101908083116114c4575b5050505050905090565b600660205280600052604060002060009150905080600001805461153b90612b74565b80601f016020809104026020016040519081016040528092919081815260200182805461156790612b74565b80156115b45780601f10611589576101008083540402835291602001916115b4565b820191906000526020600020905b81548152906001019060200180831161159757829003601f168201915b5050505050908060010154908060030154908060040160009054906101000a900473ffffffffffffffffffffffffffffffffffffffff16908060050180546115fb90612b74565b80601f016020809104026020016040519081016040528092919081815260200182805461162790612b74565b80156116745780601f1061164957610100808354040283529160200191611674565b820191906000526020600020905b81548152906001019060200180831161165757829003601f168201915b5050505050908060060160009054906101000a900460ff16908060070154905087565b60008054906101000a900473ffffffffffffffffffffffffffffffffffffffff1673ffffffffffffffffffffffffffffffffffffffff163373ffffffffffffffffffffffffffffffffffffffff1614611725576040517f08c379a000000000000000000000000000000000000000000000000000000000815260040161171c90613553565b60405180910390fd5b6000600554600a61173691906132fa565b826117419190613345565b90506002600081548092919061175690613573565b91905055506040518061014001604052808481526020016040518060400160405280600781526020017f50656e64696e67000000000000000000000000000000000000000000000000008152508152602001838152602001428152602001600081526020016000815260200160008152602001600081526020018573ffffffffffffffffffffffffffffffffffffffff168152602001600660008773ffffffffffffffffffffffffffffffffffffffff1673ffffffffffffffffffffffffffffffffffffffff168152602001908152602001600020600001805461183990612b74565b80601f016020809104026020016040519081016040528092919081815260200182805461186590612b74565b80156118b25780601f10611887576101008083540402835291602001916118b2565b820191906000526020600020905b81548152906001019060200180831161189557829003601f168201915b505050505081525060076000600254815260200190815260200160002060008201518160000190816118e49190612d47565b5060208201518160010190816118fa9190612d47565b5060408201518160020155606082015181600301556080820151816004015560a0820151816005015560c0820151816006015560e082015181600701556101008201518160080160006101000a81548173ffffffffffffffffffffffffffffffffffffffff021916908373ffffffffffffffffffffffffffffffffffffffff1602179055506101208201518160090190816119959190612d47565b50905050600660008573ffffffffffffffffffffffffffffffffffffffff1673ffffffffffffffffffffffffffffffffffffffff1681526020019081526020016000206002016002549080600181540180825580915050600190039060005260206000200160009091909190915055600460009054906101000a900473ffffffffffffffffffffffffffffffffffffffff1673ffffffffffffffffffffffffffffffffffffffff166340c10f1930836040518363ffffffff1660e01b8152600401611a61929190613387565b600060405180830381600087803b158015611a7b57600080fd5b505af1158015611a8f573d6000803e3d6000fd5b505050507f6c3f3cdddc611e828cd60b014a0e354d0c5d4305908f98bab34be382cd4b623a8460025485604051611ac8939291906135bb565b60405180910390a150505050565b60008054906101000a900473ffffffffffffffffffffffffffffffffffffffff1673ffffffffffffffffffffffffffffffffffffffff163373ffffffffffffffffffffffffffffffffffffffff1614611b64576040517f08c379a0000000000000000000000000000000000000000000000000000000008152600401611b5b90613553565b60405180910390fd5b6000600660008573ffffffffffffffffffffffffffffffffffffffff1673ffffffffffffffffffffffffffffffffffffffff1681526020019081526020016000206003015414611be9576040517f08c379a0000000000000000000000000000000000000000000000000000000008152600401611be090613645565b60405180910390fd5b60405180610100016040528083815260200160008152602001600067ffffffffffffffff811115611c1d57611c1c612129565b5b604051908082528060200260200182016040528015611c4b5781602001602082028036833780820191505090505b5081526020014281526020018473ffffffffffffffffffffffffffffffffffffffff1681526020018281526020016001151581526020016000815250600660008573ffffffffffffffffffffffffffffffffffffffff1673ffffffffffffffffffffffffffffffffffffffff1681526020019081526020016000206000820151816000019081611cdb9190612d47565b50602082015181600101556040820151816002019080519060200190611d0292919061205a565b506060820151816003015560808201518160040160006101000a81548173ffffffffffffffffffffffffffffffffffffffff021916908373ffffffffffffffffffffffffffffffffffffffff16021790555060a0820151816005019081611d699190612d47565b5060c08201518160060160006101000a81548160ff02191690831515021790555060e082015181600701559050506003839080600181540180825580915050600190039060005260206000200160009091909190916101000a81548173ffffffffffffffffffffffffffffffffffffffff021916908373ffffffffffffffffffffffffffffffffffffffff1602179055507fa030fd4c7d3464e2ab354cc6357d7c2e9b69a215a9ff95d0bea2dd9dacb592b78383604051611e2b929190613665565b60405180910390a1505050565b60025481565b60008054906101000a900473ffffffffffffffffffffffffffffffffffffffff1673ffffffffffffffffffffffffffffffffffffffff163373ffffffffffffffffffffffffffffffffffffffff1614611ecc576040517f08c379a0000000000000000000000000000000000000000000000000000000008152600401611ec390613553565b60405180910390fd5b8060018190555050565b60008054906101000a900473ffffffffffffffffffffffffffffffffffffffff1673ffffffffffffffffffffffffffffffffffffffff163373ffffffffffffffffffffffffffffffffffffffff1614611f64576040517f08c379a0000000000000000000000000000000000000000000000000000000008152600401611f5b90613553565b60405180910390fd5b8060018190555050565b600460009054906101000a900473ffffffffffffffffffffffffffffffffffffffff1681565b60405180610100016040528060608152602001600081526020016060815260200160008152602001600073ffffffffffffffffffffffffffffffffffffffff16815260200160608152602001600015158152602001600081525090565b6040518061014001604052806060815260200160608152602001600081526020016000815260200160008152602001600081526020016000815260200160008152602001600073ffffffffffffffffffffffffffffffffffffffff168152602001606081525090565b828054828255906000526020600020908101928215612096579160200282015b8281111561209557825182559160200191906001019061207a565b5b5090506120a391906120a7565b5090565b5b808211156120c05760008160009055506001016120a8565b5090565b6000604051905090565b600080fd5b600080fd5b6000819050919050565b6120eb816120d8565b81146120f657600080fd5b50565b600081359050612108816120e2565b92915050565b600080fd5b600080fd5b6000601f19601f8301169050919050565b7f4e487b7100000000000000000000000000000000000000000000000000000000600052604160045260246000fd5b61216182612118565b810181811067ffffffffffffffff821117156121805761217f612129565b5b80604052505050565b60006121936120c4565b905061219f8282612158565b919050565b600067ffffffffffffffff8211156121bf576121be612129565b5b6121c882612118565b9050602081019050919050565b82818337600083830152505050565b60006121f76121f2846121a4565b612189565b90508281526020810184848401111561221357612212612113565b5b61221e8482856121d5565b509392505050565b600082601f83011261223b5761223a61210e565b5b813561224b8482602086016121e4565b91505092915050565b6000806040838503121561226b5761226a6120ce565b5b6000612279858286016120f9565b925050602083013567ffffffffffffffff81111561229a576122996120d3565b5b6122a685828601612226565b9150509250929050565b6000602082840312156122c6576122c56120ce565b5b60006122d4848285016120f9565b91505092915050565b600073ffffffffffffffffffffffffffffffffffffffff82169050919050565b6000612308826122dd565b9050919050565b612318816122fd565b82525050565b6000602082019050612333600083018461230f565b92915050565b612342816120d8565b82525050565b600060208201905061235d6000830184612339565b92915050565b61236c816122fd565b811461237757600080fd5b50565b60008135905061238981612363565b92915050565b6000602082840312156123a5576123a46120ce565b5b60006123b38482850161237a565b91505092915050565b600081519050919050565b600082825260208201905092915050565b60005b838110156123f65780820151818401526020810190506123db565b60008484015250505050565b600061240d826123bc565b61241781856123c7565b93506124278185602086016123d8565b61243081612118565b840191505092915050565b612444816120d8565b82525050565b600081519050919050565b600082825260208201905092915050565b6000819050602082019050919050565b6000612482838361243b565b60208301905092915050565b6000602082019050919050565b60006124a68261244a565b6124b08185612455565b93506124bb83612466565b8060005b838110156124ec5781516124d38882612476565b97506124de8361248e565b9250506001810190506124bf565b5085935050505092915050565b612502816122fd565b82525050565b60008115159050919050565b61251d81612508565b82525050565b60006101008301600083015184820360008601526125418282612402565b9150506020830151612556602086018261243b565b506040830151848203604086015261256e828261249b565b9150506060830151612583606086018261243b565b50608083015161259660808601826124f9565b5060a083015184820360a08601526125ae8282612402565b91505060c08301516125c360c0860182612514565b5060e08301516125d660e086018261243b565b508091505092915050565b600060208201905081810360008301526125fb8184612523565b905092915050565b60006101408301600083015184820360008601526126218282612402565b9150506020830151848203602086015261263b8282612402565b9150506040830151612650604086018261243b565b506060830151612663606086018261243b565b506080830151612676608086018261243b565b5060a083015161268960a086018261243b565b5060c083015161269c60c086018261243b565b5060e08301516126af60e086018261243b565b506101008301516126c46101008601826124f9565b506101208301518482036101208601526126de8282612402565b9150508091505092915050565b600060208201905081810360008301526127058184612603565b905092915050565b600082825260208201905092915050565b6000612729826123bc565b612733818561270d565b93506127438185602086016123d8565b61274c81612118565b840191505092915050565b6000610140820190508181036000830152612772818d61271e565b90508181036020830152612786818c61271e565b9050612795604083018b612339565b6127a2606083018a612339565b6127af6080830189612339565b6127bc60a0830188612339565b6127c960c0830187612339565b6127d660e0830186612339565b6127e461010083018561230f565b8181036101208301526127f7818461271e565b90509b9a5050505050505050505050565b600081519050919050565b600082825260208201905092915050565b6000819050602082019050919050565b600061284083836124f9565b60208301905092915050565b6000602082019050919050565b600061286482612808565b61286e8185612813565b935061287983612824565b8060005b838110156128aa5781516128918882612834565b975061289c8361284c565b92505060018101905061287d565b5085935050505092915050565b600060208201905081810360008301526128d18184612859565b905092915050565b6128e281612508565b82525050565b600060e0820190508181036000830152612902818a61271e565b90506129116020830189612339565b61291e6040830188612339565b61292b606083018761230f565b818103608083015261293d818661271e565b905061294c60a08301856128d9565b61295960c0830184612339565b98975050505050505050565b60008060006060848603121561297e5761297d6120ce565b5b600061298c8682870161237a565b935050602084013567ffffffffffffffff8111156129ad576129ac6120d3565b5b6129b986828701612226565b92505060406129ca868287016120f9565b9150509250925092565b6000806000606084860312156129ed576129ec6120ce565b5b60006129fb8682870161237a565b935050602084013567ffffffffffffffff811115612a1c57612a1b6120d3565b5b612a2886828701612226565b925050604084013567ffffffffffffffff811115612a4957612a486120d3565b5b612a5586828701612226565b9150509250925092565b6000819050919050565b6000612a84612a7f612a7a846122dd565b612a5f565b6122dd565b9050919050565b6000612a9682612a69565b9050919050565b6000612aa882612a8b565b9050919050565b612ab881612a9d565b82525050565b6000602082019050612ad36000830184612aaf565b92915050565b7f4f6e6c79206d616e61676572206f722061737369676e65642073746166660000600082015250565b6000612b0f601e8361270d565b9150612b1a82612ad9565b602082019050919050565b60006020820190508181036000830152612b3e81612b02565b9050919050565b7f4e487b7100000000000000000000000000000000000000000000000000000000600052602260045260246000fd5b60006002820490506001821680612b8c57607f821691505b602082108103612b9f57612b9e612b45565b5b50919050565b60008190508160005260206000209050919050565b60006020601f8301049050919050565b600082821b905092915050565b600060088302612c077fffffffffffffffffffffffffffffffffffffffffffffffffffffffffffffffff82612bca565b612c118683612bca565b95508019841693508086168417925050509392505050565b6000612c44612c3f612c3a846120d8565b612a5f565b6120d8565b9050919050565b6000819050919050565b612c5e83612c29565b612c72612c6a82612c4b565b848454612bd7565b825550505050565b600090565b612c87612c7a565b612c92818484612c55565b505050565b5b81811015612cb657612cab600082612c7f565b600181019050612c98565b5050565b601f821115612cfb57612ccc81612ba5565b612cd584612bba565b81016020851015612ce4578190505b612cf8612cf085612bba565b830182612c97565b50505b505050565b600082821c905092915050565b6000612d1e60001984600802612d00565b1980831691505092915050565b6000612d378383612d0d565b9150826002028217905092915050565b612d50826123bc565b67ffffffffffffffff811115612d6957612d68612129565b5b612d738254612b74565b612d7e828285612cba565b600060209050601f831160018114612db15760008415612d9f578287015190505b612da98582612d2b565b865550612e11565b601f198416612dbf86612ba5565b60005b82811015612de757848901518255600182019150602085019450602081019050612dc2565b86831015612e045784890151612e00601f891682612d0d565b8355505b6001600288020188555050505b505050505050565b600081905092915050565b7f696e50726f677265737300000000000000000000000000000000000000000000600082015250565b6000612e5a600a83612e19565b9150612e6582612e24565b600a82019050919050565b6000612e7b82612e4d565b9150819050919050565b6000612e90826123bc565b612e9a8185612e19565b9350612eaa8185602086016123d8565b80840191505092915050565b6000612ec28284612e85565b915081905092915050565b7f7265766965770000000000000000000000000000000000000000000000000000600082015250565b6000612f03600683612e19565b9150612f0e82612ecd565b600682019050919050565b6000612f2482612ef6565b9150819050919050565b7f72656a6563746564000000000000000000000000000000000000000000000000600082015250565b6000612f64600883612e19565b9150612f6f82612f2e565b600882019050919050565b6000612f8582612f57565b9150819050919050565b7f436f6d706c657465640000000000000000000000000000000000000000000000600082015250565b6000612fc5600983612e19565b9150612fd082612f8f565b600982019050919050565b6000612fe682612fb8565b9150819050919050565b7f4e487b7100000000000000000000000000000000000000000000000000000000600052601160045260246000fd5b600061302a826120d8565b9150613035836120d8565b925082820190508082111561304d5761304c612ff0565b5b92915050565b60006040820190506130686000830185612339565b818103602083015261307a818461271e565b90509392505050565b7f41646472657373206973206e6f74207265676973746572656400000000000000600082015250565b60006130b960198361270d565b91506130c482613083565b602082019050919050565b600060208201905081810360008301526130e8816130ac565b9050919050565b7f4e6f742072656769737465726564000000000000000000000000000000000000600082015250565b6000613125600e8361270d565b9150613130826130ef565b602082019050919050565b6000602082019050818103600083015261315481613118565b9050919050565b7f4e6f20746f6b656e7320746f207061796f757400000000000000000000000000600082015250565b600061319160138361270d565b915061319c8261315b565b602082019050919050565b600060208201905081810360008301526131c081613184565b9050919050565b60008160011c9050919050565b6000808291508390505b600185111561321e578086048111156131fa576131f9612ff0565b5b60018516156132095780820291505b8081029050613217856131c7565b94506131de565b94509492505050565b60008261323757600190506132f3565b8161324557600090506132f3565b816001811461325b576002811461326557613294565b60019150506132f3565b60ff84111561327757613276612ff0565b5b8360020a91508482111561328e5761328d612ff0565b5b506132f3565b5060208310610133831016604e8410600b84101617156132c95782820a9050838111156132c4576132c3612ff0565b5b6132f3565b6132d684848460016131d4565b925090508184048111156132ed576132ec612ff0565b5b81810290505b9392505050565b6000613305826120d8565b9150613310836120d8565b925061333d7fffffffffffffffffffffffffffffffffffffffffffffffffffffffffffffffff8484613227565b905092915050565b6000613350826120d8565b915061335b836120d8565b9250828202613369816120d8565b915082820484148315176133805761337f612ff0565b5b5092915050565b600060408201905061339c600083018561230f565b6133a96020830184612339565b9392505050565b6133b981612508565b81146133c457600080fd5b50565b6000815190506133d6816133b0565b92915050565b6000602082840312156133f2576133f16120ce565b5b6000613400848285016133c7565b91505092915050565b7f4e6f742061207265676973746572656420737461666600000000000000000000600082015250565b600061343f60168361270d565b915061344a82613409565b602082019050919050565b6000602082019050818103600083015261346e81613432565b9050919050565b7f596f752063616e206f6e6c7920636865636b696e206f6e636520612064617900600082015250565b60006134ab601f8361270d565b91506134b682613475565b602082019050919050565b600060208201905081810360008301526134da8161349e565b9050919050565b7f4f6e6c79206d616e616765722063616e2063616c6c20746869732066756e637460008201527f696f6e0000000000000000000000000000000000000000000000000000000000602082015250565b600061353d60238361270d565b9150613548826134e1565b604082019050919050565b6000602082019050818103600083015261356c81613530565b9050919050565b600061357e826120d8565b91507fffffffffffffffffffffffffffffffffffffffffffffffffffffffffffffffff82036135b0576135af612ff0565b5b600182019050919050565b60006060820190506135d0600083018661230f565b6135dd6020830185612339565b81810360408301526135ef818461271e565b9050949350505050565b7f537461666620616c726561647920726567697374657265640000000000000000600082015250565b600061362f60188361270d565b915061363a826135f9565b602082019050919050565b6000602082019050818103600083015261365e81613622565b9050919050565b600060408201905061367a600083018561230f565b818103602083015261368c818461271e565b9050939250505056fea2646970667358221220d92ddd4e45150ba6a4b14cca5168163a20444045d9d3f8e89e18aaef84b57efa64736f6c63430008140033",
  "linkReferences": {},
  "deployedLinkReferences": {}
}