{
  "_format": "hh-sol-artifact-1",
  "contractName": "CompanyManagement",
  "sourceName": "contracts/CompanyManagement.sol",
  "abi": [
    {
      "inputs": [
        {
          "internalType": "address",
          "name": "_tokenAddress",
          "type": "address"
        }
      ],
      "stateMutability": "nonpayable",
      "type": "constructor"
    },
    {
      "anonymous": false,
      "inputs": [
        {
          "indexed": false,
          "internalType": "address",
          "name": "staffAddress",
          "type": "address"
        },
        {
          "indexed": false,
          "internalType": "uint256",
          "name": "amount",
          "type": "uint256"
        }
      ],
      "name": "Payout",
      "type": "event"
    },
    {
      "anonymous": false,
      "inputs": [
        {
          "indexed": false,
          "internalType": "address",
          "name": "staffAddress",
          "type": "address"
        },
        {
          "indexed": false,
          "internalType": "string",
          "name": "name",
          "type": "string"
        }
      ],
      "name": "StaffRegistered",
      "type": "event"
    },
    {
      "anonymous": false,
      "inputs": [
        {
          "indexed": false,
          "internalType": "address",
          "name": "staffAddress",
          "type": "address"
        },
        {
          "indexed": false,
          "internalType": "uint256",
          "name": "taskId",
          "type": "uint256"
        },
        {
          "indexed": false,
          "internalType": "string",
          "name": "taskName",
          "type": "string"
        }
      ],
      "name": "TaskAssigned",
      "type": "event"
    },
    {
      "anonymous": false,
      "inputs": [
        {
          "indexed": false,
          "internalType": "uint256",
          "name": "taskId",
          "type": "uint256"
        },
        {
          "indexed": false,
          "internalType": "string",
          "name": "newStatus",
          "type": "string"
        }
      ],
      "name": "TaskStatusUpdatedByManagerOrStaff",
      "type": "event"
    },
    {
      "anonymous": false,
      "inputs": [
        {
          "indexed": false,
          "internalType": "address",
          "name": "staffAddress",
          "type": "address"
        },
        {
          "indexed": false,
          "internalType": "uint256",
          "name": "amount",
          "type": "uint256"
        }
      ],
      "name": "TokensDistributed",
      "type": "event"
    },
    {
      "inputs": [
        {
          "internalType": "address",
          "name": "staffAddress",
          "type": "address"
        },
        {
          "internalType": "string",
          "name": "taskName",
          "type": "string"
        },
        {
          "internalType": "uint256",
          "name": "tokenReward",
          "type": "uint256"
        }
      ],
      "name": "assignTask",
      "outputs": [],
      "stateMutability": "nonpayable",
      "type": "function"
    },
    {
      "inputs": [],
      "name": "manager",
      "outputs": [
        {
          "internalType": "address",
          "name": "",
          "type": "address"
        }
      ],
      "stateMutability": "view",
      "type": "function"
    },
    {
      "inputs": [
        {
          "internalType": "address",
          "name": "staffAddress",
          "type": "address"
        },
        {
          "internalType": "string",
          "name": "name",
          "type": "string"
        },
        {
          "internalType": "string",
          "name": "gender",
          "type": "string"
        }
      ],
      "name": "registerStaff",
      "outputs": [],
      "stateMutability": "nonpayable",
      "type": "function"
    },
    {
      "inputs": [
        {
          "internalType": "uint256",
          "name": "",
          "type": "uint256"
        }
      ],
      "name": "registeredStaffAddress",
      "outputs": [
        {
          "internalType": "address",
          "name": "",
          "type": "address"
        }
      ],
      "stateMutability": "view",
      "type": "function"
    },
    {
      "inputs": [],
      "name": "requestPayout",
      "outputs": [],
      "stateMutability": "nonpayable",
      "type": "function"
    },
    {
      "inputs": [
        {
          "internalType": "uint256",
          "name": "_tokenReward",
          "type": "uint256"
        }
      ],
      "name": "setTokenRewardPerAttendance",
      "outputs": [],
      "stateMutability": "nonpayable",
      "type": "function"
    },
    {
      "inputs": [],
      "name": "signAttendance",
      "outputs": [],
      "stateMutability": "nonpayable",
      "type": "function"
    },
    {
      "inputs": [
        {
          "internalType": "address",
          "name": "",
          "type": "address"
        }
      ],
      "name": "staffList",
      "outputs": [
        {
          "internalType": "string",
          "name": "name",
          "type": "string"
        },
        {
          "internalType": "uint256",
          "name": "tokensEarned",
          "type": "uint256"
        },
        {
          "internalType": "uint256",
          "name": "registeredAt",
          "type": "uint256"
        },
        {
          "internalType": "address",
          "name": "staffAddress",
          "type": "address"
        },
        {
          "internalType": "string",
          "name": "gender",
          "type": "string"
        },
        {
          "internalType": "bool",
          "name": "isRegistered",
          "type": "bool"
        }
      ],
      "stateMutability": "view",
      "type": "function"
    },
    {
      "inputs": [],
      "name": "taskCount",
      "outputs": [
        {
          "internalType": "uint256",
          "name": "",
          "type": "uint256"
        }
      ],
      "stateMutability": "view",
      "type": "function"
    },
    {
      "inputs": [
        {
          "internalType": "uint256",
          "name": "",
          "type": "uint256"
        }
      ],
      "name": "tasks",
      "outputs": [
        {
          "internalType": "string",
          "name": "taskName",
          "type": "string"
        },
        {
          "internalType": "string",
          "name": "status",
          "type": "string"
        },
        {
          "internalType": "uint256",
          "name": "tokenReward",
          "type": "uint256"
        },
        {
          "internalType": "uint256",
          "name": "createdAt",
          "type": "uint256"
        },
        {
          "internalType": "uint256",
          "name": "inAcceptedAt",
          "type": "uint256"
        },
        {
          "internalType": "uint256",
          "name": "reviewAt",
          "type": "uint256"
        },
        {
          "internalType": "uint256",
          "name": "rejectedAt",
          "type": "uint256"
        },
        {
          "internalType": "uint256",
          "name": "completedAt",
          "type": "uint256"
        },
        {
          "internalType": "address",
          "name": "taskAssignedTo",
          "type": "address"
        }
      ],
      "stateMutability": "view",
      "type": "function"
    },
    {
      "inputs": [],
      "name": "token",
      "outputs": [
        {
          "internalType": "contract CompanyToken",
          "name": "",
          "type": "address"
        }
      ],
      "stateMutability": "view",
      "type": "function"
    },
    {
      "inputs": [],
      "name": "tokenDecimals",
      "outputs": [
        {
          "internalType": "uint256",
          "name": "",
          "type": "uint256"
        }
      ],
      "stateMutability": "view",
      "type": "function"
    },
    {
      "inputs": [],
      "name": "tokenRewardPerAttendance",
      "outputs": [
        {
          "internalType": "uint256",
          "name": "",
          "type": "uint256"
        }
      ],
      "stateMutability": "view",
      "type": "function"
    },
    {
      "inputs": [
        {
          "internalType": "uint256",
          "name": "taskId",
          "type": "uint256"
        },
        {
          "internalType": "string",
          "name": "newStatus",
          "type": "string"
        }
      ],
      "name": "updateTaskStatusByManagerOrStaff",
      "outputs": [],
      "stateMutability": "nonpayable",
      "type": "function"
    }
  ],
  "bytecode": "0x60806040523480156200001157600080fd5b5060405162002917380380620029178339818101604052810190620000379190620001c6565b336000806101000a81548173ffffffffffffffffffffffffffffffffffffffff021916908373ffffffffffffffffffffffffffffffffffffffff16021790555080600460006101000a81548173ffffffffffffffffffffffffffffffffffffffff021916908373ffffffffffffffffffffffffffffffffffffffff160217905550600460009054906101000a900473ffffffffffffffffffffffffffffffffffffffff1673ffffffffffffffffffffffffffffffffffffffff1663313ce5676040518163ffffffff1660e01b8152600401602060405180830381865afa15801562000126573d6000803e3d6000fd5b505050506040513d601f19601f820116820180604052508101906200014c919062000236565b60ff166005819055505062000268565b600080fd5b600073ffffffffffffffffffffffffffffffffffffffff82169050919050565b60006200018e8262000161565b9050919050565b620001a08162000181565b8114620001ac57600080fd5b50565b600081519050620001c08162000195565b92915050565b600060208284031215620001df57620001de6200015c565b5b6000620001ef84828501620001af565b91505092915050565b600060ff82169050919050565b6200021081620001f8565b81146200021c57600080fd5b50565b600081519050620002308162000205565b92915050565b6000602082840312156200024f576200024e6200015c565b5b60006200025f848285016200021f565b91505092915050565b61269f80620002786000396000f3fe608060405234801561001057600080fd5b50600436106100ea5760003560e01c80638d9776721161008c578063a3b8224f11610066578063a3b8224f14610232578063b6cb58a51461024e578063f930361d1461026c578063fc0c546a14610288576100ea565b80638d977672146101a95780639dcd4eec146101e1578063a0f2003814610216576100ea565b80633b97e856116100c85780633b97e85614610159578063481c6a751461017757806365058f4c146101955780637f91aec51461019f576100ea565b80630dce4e73146100ef57806313cdb4a91461010b57806330d7577f1461013b575b600080fd5b61010960048036038101906101049190611705565b6102a6565b005b61012560048036038101906101209190611761565b610605565b60405161013291906117cf565b60405180910390f35b610143610644565b60405161015091906117f9565b60405180910390f35b61016161064a565b60405161016e91906117f9565b60405180910390f35b61017f610650565b60405161018c91906117cf565b60405180910390f35b61019d610674565b005b6101a76108d1565b005b6101c360048036038101906101be9190611761565b610aa8565b6040516101d899989796959493929190611893565b60405180910390f35b6101fb60048036038101906101f6919061195a565b610c26565b60405161020d969594939291906119a2565b60405180910390f35b610230600480360381019061022b9190611a11565b610d9f565b005b61024c60048036038101906102479190611a80565b6110f7565b005b610256611447565b60405161026391906117f9565b60405180910390f35b61028660048036038101906102819190611761565b61144d565b005b6102906114e5565b60405161029d9190611b6a565b60405180910390f35b8160008054906101000a900473ffffffffffffffffffffffffffffffffffffffff1673ffffffffffffffffffffffffffffffffffffffff163373ffffffffffffffffffffffffffffffffffffffff16148061036257506007600082815260200190815260200160002060080160009054906101000a900473ffffffffffffffffffffffffffffffffffffffff1673ffffffffffffffffffffffffffffffffffffffff163373ffffffffffffffffffffffffffffffffffffffff16145b6103a1576040517f08c379a000000000000000000000000000000000000000000000000000000000815260040161039890611bd1565b60405180910390fd5b6000600760008581526020019081526020016000209050828160010190816103c99190611df3565b506040516020016103d990611f1c565b60405160208183030381529060405280519060200120836040516020016104009190611f62565b6040516020818303038152906040528051906020012003610429574281600401819055506105c6565b60405160200161043890611fc5565b604051602081830303815290604052805190602001208360405160200161045f9190611f62565b6040516020818303038152906040528051906020012003610488574281600501819055506105c5565b60405160200161049790612026565b60405160208183030381529060405280519060200120836040516020016104be9190611f62565b60405160208183030381529060405280519060200120036104e7574281600601819055506105c4565b6040516020016104f690612087565b604051602081830303815290604052805190602001208360405160200161051d9190611f62565b60405160208183030381529060405280519060200120036105c3578060020154600660008360080160009054906101000a900473ffffffffffffffffffffffffffffffffffffffff1673ffffffffffffffffffffffffffffffffffffffff1673ffffffffffffffffffffffffffffffffffffffff16815260200190815260200160002060010160008282546105b291906120cb565b925050819055504281600701819055505b5b5b5b7fa1ed1c576e24109d5c46581b29901d28b635a78dc463a7104c223026c967466e84846040516105f79291906120ff565b60405180910390a150505050565b6003818154811061061557600080fd5b906000526020600020016000915054906101000a900473ffffffffffffffffffffffffffffffffffffffff1681565b60015481565b60055481565b60008054906101000a900473ffffffffffffffffffffffffffffffffffffffff1681565b600660003373ffffffffffffffffffffffffffffffffffffffff1673ffffffffffffffffffffffffffffffffffffffff16815260200190815260200160002060060160009054906101000a900460ff16610703576040517f08c379a00000000000000000000000000000000000000000000000000000000081526004016106fa9061217b565b60405180910390fd5b6000600660003373ffffffffffffffffffffffffffffffffffffffff1673ffffffffffffffffffffffffffffffffffffffff1681526020019081526020016000206001015490506000811161078d576040517f08c379a0000000000000000000000000000000000000000000000000000000008152600401610784906121e7565b60405180910390fd5b6000600554600a61079e919061233a565b826107a99190612385565b90506000600660003373ffffffffffffffffffffffffffffffffffffffff1673ffffffffffffffffffffffffffffffffffffffff16815260200190815260200160002060010181905550600460009054906101000a900473ffffffffffffffffffffffffffffffffffffffff1673ffffffffffffffffffffffffffffffffffffffff1663a9059cbb33836040518363ffffffff1660e01b81526004016108509291906123c7565b6020604051808303816000875af115801561086f573d6000803e3d6000fd5b505050506040513d601f19601f82011682018060405250810190610893919061241c565b507f5afeca38b2064c23a692c4cf353015d80ab3ecc417b4f893f372690c11fbd9a633836040516108c59291906123c7565b60405180910390a15050565b600660003373ffffffffffffffffffffffffffffffffffffffff1673ffffffffffffffffffffffffffffffffffffffff16815260200190815260200160002060060160009054906101000a900460ff16610960576040517f08c379a000000000000000000000000000000000000000000000000000000000815260040161095790612495565b60405180910390fd5b600154600660003373ffffffffffffffffffffffffffffffffffffffff1673ffffffffffffffffffffffffffffffffffffffff16815260200190815260200160002060010160008282546109b491906120cb565b925050819055506000600554600a6109cc919061233a565b6001546109d99190612385565b9050600460009054906101000a900473ffffffffffffffffffffffffffffffffffffffff1673ffffffffffffffffffffffffffffffffffffffff166340c10f1930836040518363ffffffff1660e01b8152600401610a389291906123c7565b600060405180830381600087803b158015610a5257600080fd5b505af1158015610a66573d6000803e3d6000fd5b505050507f16b0da2ffcb90c6723317bd637d9aad7f04711f42bbe0ac0918ebe10f1f9001c33600154604051610a9d9291906123c7565b60405180910390a150565b6007602052806000526040600020600091509050806000018054610acb90611c20565b80601f0160208091040260200160405190810160405280929190818152602001828054610af790611c20565b8015610b445780601f10610b1957610100808354040283529160200191610b44565b820191906000526020600020905b815481529060010190602001808311610b2757829003601f168201915b505050505090806001018054610b5990611c20565b80601f0160208091040260200160405190810160405280929190818152602001828054610b8590611c20565b8015610bd25780601f10610ba757610100808354040283529160200191610bd2565b820191906000526020600020905b815481529060010190602001808311610bb557829003601f168201915b5050505050908060020154908060030154908060040154908060050154908060060154908060070154908060080160009054906101000a900473ffffffffffffffffffffffffffffffffffffffff16905089565b6006602052806000526040600020600091509050806000018054610c4990611c20565b80601f0160208091040260200160405190810160405280929190818152602001828054610c7590611c20565b8015610cc25780601f10610c9757610100808354040283529160200191610cc2565b820191906000526020600020905b815481529060010190602001808311610ca557829003601f168201915b5050505050908060010154908060030154908060040160009054906101000a900473ffffffffffffffffffffffffffffffffffffffff1690806005018054610d0990611c20565b80601f0160208091040260200160405190810160405280929190818152602001828054610d3590611c20565b8015610d825780601f10610d5757610100808354040283529160200191610d82565b820191906000526020600020905b815481529060010190602001808311610d6557829003601f168201915b5050505050908060060160009054906101000a900460ff16905086565b60008054906101000a900473ffffffffffffffffffffffffffffffffffffffff1673ffffffffffffffffffffffffffffffffffffffff163373ffffffffffffffffffffffffffffffffffffffff1614610e2d576040517f08c379a0000000000000000000000000000000000000000000000000000000008152600401610e2490612527565b60405180910390fd5b6000600554600a610e3e919061233a565b82610e499190612385565b905060026000815480929190610e5e90612547565b91905055506040518061012001604052808481526020016040518060400160405280600781526020017f50656e64696e67000000000000000000000000000000000000000000000000008152508152602001838152602001428152602001600081526020016000815260200160008152602001600081526020018573ffffffffffffffffffffffffffffffffffffffff168152506007600060025481526020019081526020016000206000820151816000019081610f1c9190611df3565b506020820151816001019081610f329190611df3565b5060408201518160020155606082015181600301556080820151816004015560a0820151816005015560c0820151816006015560e082015181600701556101008201518160080160006101000a81548173ffffffffffffffffffffffffffffffffffffffff021916908373ffffffffffffffffffffffffffffffffffffffff160217905550905050600660008573ffffffffffffffffffffffffffffffffffffffff1673ffffffffffffffffffffffffffffffffffffffff1681526020019081526020016000206002016002549080600181540180825580915050600190039060005260206000200160009091909190915055600460009054906101000a900473ffffffffffffffffffffffffffffffffffffffff1673ffffffffffffffffffffffffffffffffffffffff166340c10f1930836040518363ffffffff1660e01b81526004016110829291906123c7565b600060405180830381600087803b15801561109c57600080fd5b505af11580156110b0573d6000803e3d6000fd5b505050507f6c3f3cdddc611e828cd60b014a0e354d0c5d4305908f98bab34be382cd4b623a84600254856040516110e99392919061258f565b60405180910390a150505050565b60008054906101000a900473ffffffffffffffffffffffffffffffffffffffff1673ffffffffffffffffffffffffffffffffffffffff163373ffffffffffffffffffffffffffffffffffffffff1614611185576040517f08c379a000000000000000000000000000000000000000000000000000000000815260040161117c90612527565b60405180910390fd5b6000600660008573ffffffffffffffffffffffffffffffffffffffff1673ffffffffffffffffffffffffffffffffffffffff168152602001908152602001600020600301541461120a576040517f08c379a000000000000000000000000000000000000000000000000000000000815260040161120190612619565b60405180910390fd5b6040518060e0016040528083815260200160008152602001600067ffffffffffffffff81111561123d5761123c6115da565b5b60405190808252806020026020018201604052801561126b5781602001602082028036833780820191505090505b5081526020014281526020018473ffffffffffffffffffffffffffffffffffffffff16815260200182815260200160011515815250600660008573ffffffffffffffffffffffffffffffffffffffff1673ffffffffffffffffffffffffffffffffffffffff16815260200190815260200160002060008201518160000190816112f49190611df3565b5060208201518160010155604082015181600201908051906020019061131b92919061150b565b506060820151816003015560808201518160040160006101000a81548173ffffffffffffffffffffffffffffffffffffffff021916908373ffffffffffffffffffffffffffffffffffffffff16021790555060a08201518160050190816113829190611df3565b5060c08201518160060160006101000a81548160ff0219169083151502179055509050506003839080600181540180825580915050600190039060005260206000200160009091909190916101000a81548173ffffffffffffffffffffffffffffffffffffffff021916908373ffffffffffffffffffffffffffffffffffffffff1602179055507fa030fd4c7d3464e2ab354cc6357d7c2e9b69a215a9ff95d0bea2dd9dacb592b7838360405161143a929190612639565b60405180910390a1505050565b60025481565b60008054906101000a900473ffffffffffffffffffffffffffffffffffffffff1673ffffffffffffffffffffffffffffffffffffffff163373ffffffffffffffffffffffffffffffffffffffff16146114db576040517f08c379a00000000000000000000000000000000000000000000000000000000081526004016114d290612527565b60405180910390fd5b8060018190555050565b600460009054906101000a900473ffffffffffffffffffffffffffffffffffffffff1681565b828054828255906000526020600020908101928215611547579160200282015b8281111561154657825182559160200191906001019061152b565b5b5090506115549190611558565b5090565b5b80821115611571576000816000905550600101611559565b5090565b6000604051905090565b600080fd5b600080fd5b6000819050919050565b61159c81611589565b81146115a757600080fd5b50565b6000813590506115b981611593565b92915050565b600080fd5b600080fd5b6000601f19601f8301169050919050565b7f4e487b7100000000000000000000000000000000000000000000000000000000600052604160045260246000fd5b611612826115c9565b810181811067ffffffffffffffff82111715611631576116306115da565b5b80604052505050565b6000611644611575565b90506116508282611609565b919050565b600067ffffffffffffffff8211156116705761166f6115da565b5b611679826115c9565b9050602081019050919050565b82818337600083830152505050565b60006116a86116a384611655565b61163a565b9050828152602081018484840111156116c4576116c36115c4565b5b6116cf848285611686565b509392505050565b600082601f8301126116ec576116eb6115bf565b5b81356116fc848260208601611695565b91505092915050565b6000806040838503121561171c5761171b61157f565b5b600061172a858286016115aa565b925050602083013567ffffffffffffffff81111561174b5761174a611584565b5b611757858286016116d7565b9150509250929050565b6000602082840312156117775761177661157f565b5b6000611785848285016115aa565b91505092915050565b600073ffffffffffffffffffffffffffffffffffffffff82169050919050565b60006117b98261178e565b9050919050565b6117c9816117ae565b82525050565b60006020820190506117e460008301846117c0565b92915050565b6117f381611589565b82525050565b600060208201905061180e60008301846117ea565b92915050565b600081519050919050565b600082825260208201905092915050565b60005b8381101561184e578082015181840152602081019050611833565b60008484015250505050565b600061186582611814565b61186f818561181f565b935061187f818560208601611830565b611888816115c9565b840191505092915050565b60006101208201905081810360008301526118ae818c61185a565b905081810360208301526118c2818b61185a565b90506118d1604083018a6117ea565b6118de60608301896117ea565b6118eb60808301886117ea565b6118f860a08301876117ea565b61190560c08301866117ea565b61191260e08301856117ea565b6119206101008301846117c0565b9a9950505050505050505050565b611937816117ae565b811461194257600080fd5b50565b6000813590506119548161192e565b92915050565b6000602082840312156119705761196f61157f565b5b600061197e84828501611945565b91505092915050565b60008115159050919050565b61199c81611987565b82525050565b600060c08201905081810360008301526119bc818961185a565b90506119cb60208301886117ea565b6119d860408301876117ea565b6119e560608301866117c0565b81810360808301526119f7818561185a565b9050611a0660a0830184611993565b979650505050505050565b600080600060608486031215611a2a57611a2961157f565b5b6000611a3886828701611945565b935050602084013567ffffffffffffffff811115611a5957611a58611584565b5b611a65868287016116d7565b9250506040611a76868287016115aa565b9150509250925092565b600080600060608486031215611a9957611a9861157f565b5b6000611aa786828701611945565b935050602084013567ffffffffffffffff811115611ac857611ac7611584565b5b611ad4868287016116d7565b925050604084013567ffffffffffffffff811115611af557611af4611584565b5b611b01868287016116d7565b9150509250925092565b6000819050919050565b6000611b30611b2b611b268461178e565b611b0b565b61178e565b9050919050565b6000611b4282611b15565b9050919050565b6000611b5482611b37565b9050919050565b611b6481611b49565b82525050565b6000602082019050611b7f6000830184611b5b565b92915050565b7f4f6e6c79206d616e61676572206f722061737369676e65642073746166660000600082015250565b6000611bbb601e8361181f565b9150611bc682611b85565b602082019050919050565b60006020820190508181036000830152611bea81611bae565b9050919050565b7f4e487b7100000000000000000000000000000000000000000000000000000000600052602260045260246000fd5b60006002820490506001821680611c3857607f821691505b602082108103611c4b57611c4a611bf1565b5b50919050565b60008190508160005260206000209050919050565b60006020601f8301049050919050565b600082821b905092915050565b600060088302611cb37fffffffffffffffffffffffffffffffffffffffffffffffffffffffffffffffff82611c76565b611cbd8683611c76565b95508019841693508086168417925050509392505050565b6000611cf0611ceb611ce684611589565b611b0b565b611589565b9050919050565b6000819050919050565b611d0a83611cd5565b611d1e611d1682611cf7565b848454611c83565b825550505050565b600090565b611d33611d26565b611d3e818484611d01565b505050565b5b81811015611d6257611d57600082611d2b565b600181019050611d44565b5050565b601f821115611da757611d7881611c51565b611d8184611c66565b81016020851015611d90578190505b611da4611d9c85611c66565b830182611d43565b50505b505050565b600082821c905092915050565b6000611dca60001984600802611dac565b1980831691505092915050565b6000611de38383611db9565b9150826002028217905092915050565b611dfc82611814565b67ffffffffffffffff811115611e1557611e146115da565b5b611e1f8254611c20565b611e2a828285611d66565b600060209050601f831160018114611e5d5760008415611e4b578287015190505b611e558582611dd7565b865550611ebd565b601f198416611e6b86611c51565b60005b82811015611e9357848901518255600182019150602085019450602081019050611e6e565b86831015611eb05784890151611eac601f891682611db9565b8355505b6001600288020188555050505b505050505050565b600081905092915050565b7f696e50726f677265737300000000000000000000000000000000000000000000600082015250565b6000611f06600a83611ec5565b9150611f1182611ed0565b600a82019050919050565b6000611f2782611ef9565b9150819050919050565b6000611f3c82611814565b611f468185611ec5565b9350611f56818560208601611830565b80840191505092915050565b6000611f6e8284611f31565b915081905092915050565b7f7265766965770000000000000000000000000000000000000000000000000000600082015250565b6000611faf600683611ec5565b9150611fba82611f79565b600682019050919050565b6000611fd082611fa2565b9150819050919050565b7f72656a6563746564000000000000000000000000000000000000000000000000600082015250565b6000612010600883611ec5565b915061201b82611fda565b600882019050919050565b600061203182612003565b9150819050919050565b7f436f6d706c657465640000000000000000000000000000000000000000000000600082015250565b6000612071600983611ec5565b915061207c8261203b565b600982019050919050565b600061209282612064565b9150819050919050565b7f4e487b7100000000000000000000000000000000000000000000000000000000600052601160045260246000fd5b60006120d682611589565b91506120e183611589565b92508282019050808211156120f9576120f861209c565b5b92915050565b600060408201905061211460008301856117ea565b8181036020830152612126818461185a565b90509392505050565b7f4e6f742072656769737465726564000000000000000000000000000000000000600082015250565b6000612165600e8361181f565b91506121708261212f565b602082019050919050565b6000602082019050818103600083015261219481612158565b9050919050565b7f4e6f20746f6b656e7320746f207061796f757400000000000000000000000000600082015250565b60006121d160138361181f565b91506121dc8261219b565b602082019050919050565b60006020820190508181036000830152612200816121c4565b9050919050565b60008160011c9050919050565b6000808291508390505b600185111561225e5780860481111561223a5761223961209c565b5b60018516156122495780820291505b808102905061225785612207565b945061221e565b94509492505050565b6000826122775760019050612333565b816122855760009050612333565b816001811461229b57600281146122a5576122d4565b6001915050612333565b60ff8411156122b7576122b661209c565b5b8360020a9150848211156122ce576122cd61209c565b5b50612333565b5060208310610133831016604e8410600b84101617156123095782820a9050838111156123045761230361209c565b5b612333565b6123168484846001612214565b9250905081840481111561232d5761232c61209c565b5b81810290505b9392505050565b600061234582611589565b915061235083611589565b925061237d7fffffffffffffffffffffffffffffffffffffffffffffffffffffffffffffffff8484612267565b905092915050565b600061239082611589565b915061239b83611589565b92508282026123a981611589565b915082820484148315176123c0576123bf61209c565b5b5092915050565b60006040820190506123dc60008301856117c0565b6123e960208301846117ea565b9392505050565b6123f981611987565b811461240457600080fd5b50565b600081519050612416816123f0565b92915050565b6000602082840312156124325761243161157f565b5b600061244084828501612407565b91505092915050565b7f4e6f742061207265676973746572656420737461666600000000000000000000600082015250565b600061247f60168361181f565b915061248a82612449565b602082019050919050565b600060208201905081810360008301526124ae81612472565b9050919050565b7f4f6e6c79206d616e616765722063616e2063616c6c20746869732066756e637460008201527f696f6e0000000000000000000000000000000000000000000000000000000000602082015250565b600061251160238361181f565b915061251c826124b5565b604082019050919050565b6000602082019050818103600083015261254081612504565b9050919050565b600061255282611589565b91507fffffffffffffffffffffffffffffffffffffffffffffffffffffffffffffffff82036125845761258361209c565b5b600182019050919050565b60006060820190506125a460008301866117c0565b6125b160208301856117ea565b81810360408301526125c3818461185a565b9050949350505050565b7f537461666620616c726561647920726567697374657265640000000000000000600082015250565b600061260360188361181f565b915061260e826125cd565b602082019050919050565b60006020820190508181036000830152612632816125f6565b9050919050565b600060408201905061264e60008301856117c0565b8181036020830152612660818461185a565b9050939250505056fea2646970667358221220fa00b1fc123432772fb038af5bbb76c05a0a217c9290f9f55121f742f451198a64736f6c63430008140033",
  "linkReferences": {},
  "deployedLinkReferences": {}
}