{
  "_format": "hh-sol-artifact-1",
  "contractName": "CompanyManagement",
  "sourceName": "contracts/CompanyManagement.sol",
  "abi": [
    {
      "inputs": [
        {
          "internalType": "address",
          "name": "_tokenAddress",
          "type": "address"
        }
      ],
      "stateMutability": "nonpayable",
      "type": "constructor"
    },
    {
      "anonymous": false,
      "inputs": [
        {
          "indexed": false,
          "internalType": "address",
          "name": "staffAddress",
          "type": "address"
        },
        {
          "indexed": false,
          "internalType": "uint256",
          "name": "amount",
          "type": "uint256"
        }
      ],
      "name": "Payout",
      "type": "event"
    },
    {
      "anonymous": false,
      "inputs": [
        {
          "indexed": false,
          "internalType": "address",
          "name": "staffAddress",
          "type": "address"
        },
        {
          "indexed": false,
          "internalType": "string",
          "name": "name",
          "type": "string"
        }
      ],
      "name": "StaffRegistered",
      "type": "event"
    },
    {
      "anonymous": false,
      "inputs": [
        {
          "indexed": false,
          "internalType": "address",
          "name": "staffAddress",
          "type": "address"
        },
        {
          "indexed": false,
          "internalType": "uint256",
          "name": "taskId",
          "type": "uint256"
        },
        {
          "indexed": false,
          "internalType": "string",
          "name": "taskName",
          "type": "string"
        }
      ],
      "name": "TaskAssigned",
      "type": "event"
    },
    {
      "anonymous": false,
      "inputs": [
        {
          "indexed": false,
          "internalType": "uint256",
          "name": "taskId",
          "type": "uint256"
        },
        {
          "indexed": false,
          "internalType": "string",
          "name": "newStatus",
          "type": "string"
        }
      ],
      "name": "TaskStatusUpdatedByManagerOrStaff",
      "type": "event"
    },
    {
      "anonymous": false,
      "inputs": [
        {
          "indexed": false,
          "internalType": "address",
          "name": "staffAddress",
          "type": "address"
        },
        {
          "indexed": false,
          "internalType": "uint256",
          "name": "amount",
          "type": "uint256"
        }
      ],
      "name": "TokensDistributed",
      "type": "event"
    },
    {
      "inputs": [
        {
          "internalType": "address",
          "name": "staffAddress",
          "type": "address"
        },
        {
          "internalType": "string",
          "name": "taskName",
          "type": "string"
        },
        {
          "internalType": "uint256",
          "name": "tokenReward",
          "type": "uint256"
        }
      ],
      "name": "assignTask",
      "outputs": [],
      "stateMutability": "nonpayable",
      "type": "function"
    },
    {
      "inputs": [],
      "name": "getAllRegisteredAddress",
      "outputs": [
        {
          "internalType": "address[]",
          "name": "",
          "type": "address[]"
        }
      ],
      "stateMutability": "view",
      "type": "function"
    },
    {
      "inputs": [
        {
          "internalType": "address",
          "name": "staffAddress",
          "type": "address"
        }
      ],
      "name": "getStaffDetails",
      "outputs": [
        {
          "components": [
            {
              "internalType": "string",
              "name": "name",
              "type": "string"
            },
            {
              "internalType": "uint256",
              "name": "tokensEarned",
              "type": "uint256"
            },
            {
              "internalType": "uint256[]",
              "name": "taskIds",
              "type": "uint256[]"
            },
            {
              "internalType": "uint256",
              "name": "registeredAt",
              "type": "uint256"
            },
            {
              "internalType": "address",
              "name": "staffAddress",
              "type": "address"
            },
            {
              "internalType": "string",
              "name": "gender",
              "type": "string"
            },
            {
              "internalType": "bool",
              "name": "isRegistered",
              "type": "bool"
            },
            {
              "internalType": "uint256",
              "name": "lastCheckin",
              "type": "uint256"
            }
          ],
          "internalType": "struct CompanyManagement.Staff",
          "name": "",
          "type": "tuple"
        }
      ],
      "stateMutability": "view",
      "type": "function"
    },
    {
      "inputs": [
        {
          "internalType": "uint256",
          "name": "taskId",
          "type": "uint256"
        }
      ],
      "name": "gettaskDetails",
      "outputs": [
        {
          "components": [
            {
              "internalType": "string",
              "name": "taskName",
              "type": "string"
            },
            {
              "internalType": "string",
              "name": "status",
              "type": "string"
            },
            {
              "internalType": "uint256",
              "name": "tokenReward",
              "type": "uint256"
            },
            {
              "internalType": "uint256",
              "name": "createdAt",
              "type": "uint256"
            },
            {
              "internalType": "uint256",
              "name": "inAcceptedAt",
              "type": "uint256"
            },
            {
              "internalType": "uint256",
              "name": "reviewAt",
              "type": "uint256"
            },
            {
              "internalType": "uint256",
              "name": "rejectedAt",
              "type": "uint256"
            },
            {
              "internalType": "uint256",
              "name": "completedAt",
              "type": "uint256"
            },
            {
              "internalType": "address",
              "name": "taskAssignedTo",
              "type": "address"
            },
            {
              "internalType": "string",
              "name": "taskAssignedToName",
              "type": "string"
            }
          ],
          "internalType": "struct CompanyManagement.Task",
          "name": "",
          "type": "tuple"
        }
      ],
      "stateMutability": "view",
      "type": "function"
    },
    {
      "inputs": [],
      "name": "manager",
      "outputs": [
        {
          "internalType": "address",
          "name": "",
          "type": "address"
        }
      ],
      "stateMutability": "view",
      "type": "function"
    },
    {
      "inputs": [
        {
          "internalType": "address",
          "name": "staffAddress",
          "type": "address"
        },
        {
          "internalType": "string",
          "name": "name",
          "type": "string"
        },
        {
          "internalType": "string",
          "name": "gender",
          "type": "string"
        }
      ],
      "name": "registerStaff",
      "outputs": [],
      "stateMutability": "nonpayable",
      "type": "function"
    },
    {
      "inputs": [
        {
          "internalType": "uint256",
          "name": "",
          "type": "uint256"
        }
      ],
      "name": "registeredStaffAddress",
      "outputs": [
        {
          "internalType": "address",
          "name": "",
          "type": "address"
        }
      ],
      "stateMutability": "view",
      "type": "function"
    },
    {
      "inputs": [],
      "name": "requestPayout",
      "outputs": [],
      "stateMutability": "nonpayable",
      "type": "function"
    },
    {
      "inputs": [
        {
          "internalType": "uint256",
          "name": "_tokenReward",
          "type": "uint256"
        }
      ],
      "name": "setTokenRewardPerAttendance",
      "outputs": [],
      "stateMutability": "nonpayable",
      "type": "function"
    },
    {
      "inputs": [],
      "name": "signAttendance",
      "outputs": [],
      "stateMutability": "nonpayable",
      "type": "function"
    },
    {
      "inputs": [
        {
          "internalType": "address",
          "name": "",
          "type": "address"
        }
      ],
      "name": "staffList",
      "outputs": [
        {
          "internalType": "string",
          "name": "name",
          "type": "string"
        },
        {
          "internalType": "uint256",
          "name": "tokensEarned",
          "type": "uint256"
        },
        {
          "internalType": "uint256",
          "name": "registeredAt",
          "type": "uint256"
        },
        {
          "internalType": "address",
          "name": "staffAddress",
          "type": "address"
        },
        {
          "internalType": "string",
          "name": "gender",
          "type": "string"
        },
        {
          "internalType": "bool",
          "name": "isRegistered",
          "type": "bool"
        },
        {
          "internalType": "uint256",
          "name": "lastCheckin",
          "type": "uint256"
        }
      ],
      "stateMutability": "view",
      "type": "function"
    },
    {
      "inputs": [],
      "name": "taskCount",
      "outputs": [
        {
          "internalType": "uint256",
          "name": "",
          "type": "uint256"
        }
      ],
      "stateMutability": "view",
      "type": "function"
    },
    {
      "inputs": [
        {
          "internalType": "uint256",
          "name": "",
          "type": "uint256"
        }
      ],
      "name": "tasks",
      "outputs": [
        {
          "internalType": "string",
          "name": "taskName",
          "type": "string"
        },
        {
          "internalType": "string",
          "name": "status",
          "type": "string"
        },
        {
          "internalType": "uint256",
          "name": "tokenReward",
          "type": "uint256"
        },
        {
          "internalType": "uint256",
          "name": "createdAt",
          "type": "uint256"
        },
        {
          "internalType": "uint256",
          "name": "inAcceptedAt",
          "type": "uint256"
        },
        {
          "internalType": "uint256",
          "name": "reviewAt",
          "type": "uint256"
        },
        {
          "internalType": "uint256",
          "name": "rejectedAt",
          "type": "uint256"
        },
        {
          "internalType": "uint256",
          "name": "completedAt",
          "type": "uint256"
        },
        {
          "internalType": "address",
          "name": "taskAssignedTo",
          "type": "address"
        },
        {
          "internalType": "string",
          "name": "taskAssignedToName",
          "type": "string"
        }
      ],
      "stateMutability": "view",
      "type": "function"
    },
    {
      "inputs": [],
      "name": "token",
      "outputs": [
        {
          "internalType": "contract CompanyToken",
          "name": "",
          "type": "address"
        }
      ],
      "stateMutability": "view",
      "type": "function"
    },
    {
      "inputs": [],
      "name": "tokenDecimals",
      "outputs": [
        {
          "internalType": "uint256",
          "name": "",
          "type": "uint256"
        }
      ],
      "stateMutability": "view",
      "type": "function"
    },
    {
      "inputs": [],
      "name": "tokenRewardPerAttendance",
      "outputs": [
        {
          "internalType": "uint256",
          "name": "",
          "type": "uint256"
        }
      ],
      "stateMutability": "view",
      "type": "function"
    },
    {
      "inputs": [
        {
          "internalType": "uint256",
          "name": "taskId",
          "type": "uint256"
        },
        {
          "internalType": "string",
          "name": "newStatus",
          "type": "string"
        }
      ],
      "name": "updateTaskStatusByManagerOrStaff",
      "outputs": [],
      "stateMutability": "nonpayable",
      "type": "function"
    }
  ],
  "bytecode": "0x60806040523480156200001157600080fd5b5060405162003851380380620038518339818101604052810190620000379190620001c6565b336000806101000a81548173ffffffffffffffffffffffffffffffffffffffff021916908373ffffffffffffffffffffffffffffffffffffffff16021790555080600460006101000a81548173ffffffffffffffffffffffffffffffffffffffff021916908373ffffffffffffffffffffffffffffffffffffffff160217905550600460009054906101000a900473ffffffffffffffffffffffffffffffffffffffff1673ffffffffffffffffffffffffffffffffffffffff1663313ce5676040518163ffffffff1660e01b8152600401602060405180830381865afa15801562000126573d6000803e3d6000fd5b505050506040513d601f19601f820116820180604052508101906200014c919062000236565b60ff166005819055505062000268565b600080fd5b600073ffffffffffffffffffffffffffffffffffffffff82169050919050565b60006200018e8262000161565b9050919050565b620001a08162000181565b8114620001ac57600080fd5b50565b600081519050620001c08162000195565b92915050565b600060208284031215620001df57620001de6200015c565b5b6000620001ef84828501620001af565b91505092915050565b600060ff82169050919050565b6200021081620001f8565b81146200021c57600080fd5b50565b600081519050620002308162000205565b92915050565b6000602082840312156200024f576200024e6200015c565b5b60006200025f848285016200021f565b91505092915050565b6135d980620002786000396000f3fe608060405234801561001057600080fd5b506004361061010b5760003560e01c80637f91aec5116100a2578063a0f2003811610071578063a0f20038146102b7578063a3b8224f146102d3578063b6cb58a5146102ef578063f930361d1461030d578063fc0c546a146103295761010b565b80637f91aec5146102205780638d9776721461022a5780638feee11a146102635780639dcd4eec146102815761010b565b80633b97e856116100de5780633b97e856146101aa578063481c6a75146101c85780635bc1e0d2146101e657806365058f4c146102165761010b565b80630dce4e731461011057806313cdb4a91461012c57806330d7577f1461015c57806337b301ad1461017a575b600080fd5b61012a60048036038101906101259190612162565b610347565b005b610146600480360381019061014191906121be565b6106a6565b604051610153919061222c565b60405180910390f35b6101646106e5565b6040516101719190612256565b60405180910390f35b610194600480360381019061018f919061229d565b6106eb565b6040516101a191906124ef565b60405180910390f35b6101b26109df565b6040516101bf9190612256565b60405180910390f35b6101d06109e5565b6040516101dd919061222c565b60405180910390f35b61020060048036038101906101fb91906121be565b610a09565b60405161020d91906125f9565b60405180910390f35b61021e610c7f565b005b610228610edc565b005b610244600480360381019061023f91906121be565b611224565b60405161025a9a99989796959493929190612665565b60405180910390f35b61026b611430565b60405161027891906127c5565b60405180910390f35b61029b6004803603810190610296919061229d565b6114be565b6040516102ae97969594939291906127f6565b60405180910390f35b6102d160048036038101906102cc9190612873565b61163d565b005b6102ed60048036038101906102e891906128e2565b611a7c565b005b6102f7611dde565b6040516103049190612256565b60405180910390f35b610327600480360381019061032291906121be565b611de4565b005b610331611e7c565b60405161033e91906129cc565b60405180910390f35b8160008054906101000a900473ffffffffffffffffffffffffffffffffffffffff1673ffffffffffffffffffffffffffffffffffffffff163373ffffffffffffffffffffffffffffffffffffffff16148061040357506007600082815260200190815260200160002060080160009054906101000a900473ffffffffffffffffffffffffffffffffffffffff1673ffffffffffffffffffffffffffffffffffffffff163373ffffffffffffffffffffffffffffffffffffffff16145b610442576040517f08c379a000000000000000000000000000000000000000000000000000000000815260040161043990612a33565b60405180910390fd5b60006007600085815260200190815260200160002090508281600101908161046a9190612c55565b5060405160200161047a90612d7e565b60405160208183030381529060405280519060200120836040516020016104a19190612dc4565b60405160208183030381529060405280519060200120036104ca57428160040181905550610667565b6040516020016104d990612e27565b60405160208183030381529060405280519060200120836040516020016105009190612dc4565b604051602081830303815290604052805190602001200361052957428160050181905550610666565b60405160200161053890612e88565b604051602081830303815290604052805190602001208360405160200161055f9190612dc4565b604051602081830303815290604052805190602001200361058857428160060181905550610665565b60405160200161059790612ee9565b60405160208183030381529060405280519060200120836040516020016105be9190612dc4565b6040516020818303038152906040528051906020012003610664578060020154600660008360080160009054906101000a900473ffffffffffffffffffffffffffffffffffffffff1673ffffffffffffffffffffffffffffffffffffffff1673ffffffffffffffffffffffffffffffffffffffff16815260200190815260200160002060010160008282546106539190612f2d565b925050819055504281600701819055505b5b5b5b7fa1ed1c576e24109d5c46581b29901d28b635a78dc463a7104c223026c967466e8484604051610698929190612f61565b60405180910390a150505050565b600381815481106106b657600080fd5b906000526020600020016000915054906101000a900473ffffffffffffffffffffffffffffffffffffffff1681565b60015481565b6106f3611ea2565b600660008373ffffffffffffffffffffffffffffffffffffffff1673ffffffffffffffffffffffffffffffffffffffff16815260200190815260200160002060060160009054906101000a900460ff16610782576040517f08c379a000000000000000000000000000000000000000000000000000000000815260040161077990612fdd565b60405180910390fd5b600660008373ffffffffffffffffffffffffffffffffffffffff1673ffffffffffffffffffffffffffffffffffffffff168152602001908152602001600020604051806101000160405290816000820180546107dd90612a82565b80601f016020809104026020016040519081016040528092919081815260200182805461080990612a82565b80156108565780601f1061082b57610100808354040283529160200191610856565b820191906000526020600020905b81548152906001019060200180831161083957829003601f168201915b5050505050815260200160018201548152602001600282018054806020026020016040519081016040528092919081815260200182805480156108b857602002820191906000526020600020905b8154815260200190600101908083116108a4575b50505050508152602001600382015481526020016004820160009054906101000a900473ffffffffffffffffffffffffffffffffffffffff1673ffffffffffffffffffffffffffffffffffffffff1673ffffffffffffffffffffffffffffffffffffffff16815260200160058201805461093190612a82565b80601f016020809104026020016040519081016040528092919081815260200182805461095d90612a82565b80156109aa5780601f1061097f576101008083540402835291602001916109aa565b820191906000526020600020905b81548152906001019060200180831161098d57829003601f168201915b505050505081526020016006820160009054906101000a900460ff161515151581526020016007820154815250509050919050565b60055481565b60008054906101000a900473ffffffffffffffffffffffffffffffffffffffff1681565b610a11611eff565b6007600083815260200190815260200160002060405180610140016040529081600082018054610a4090612a82565b80601f0160208091040260200160405190810160405280929190818152602001828054610a6c90612a82565b8015610ab95780601f10610a8e57610100808354040283529160200191610ab9565b820191906000526020600020905b815481529060010190602001808311610a9c57829003601f168201915b50505050508152602001600182018054610ad290612a82565b80601f0160208091040260200160405190810160405280929190818152602001828054610afe90612a82565b8015610b4b5780601f10610b2057610100808354040283529160200191610b4b565b820191906000526020600020905b815481529060010190602001808311610b2e57829003601f168201915b505050505081526020016002820154815260200160038201548152602001600482015481526020016005820154815260200160068201548152602001600782015481526020016008820160009054906101000a900473ffffffffffffffffffffffffffffffffffffffff1673ffffffffffffffffffffffffffffffffffffffff1673ffffffffffffffffffffffffffffffffffffffff168152602001600982018054610bf690612a82565b80601f0160208091040260200160405190810160405280929190818152602001828054610c2290612a82565b8015610c6f5780601f10610c4457610100808354040283529160200191610c6f565b820191906000526020600020905b815481529060010190602001808311610c5257829003601f168201915b5050505050815250509050919050565b600660003373ffffffffffffffffffffffffffffffffffffffff1673ffffffffffffffffffffffffffffffffffffffff16815260200190815260200160002060060160009054906101000a900460ff16610d0e576040517f08c379a0000000000000000000000000000000000000000000000000000000008152600401610d0590613049565b60405180910390fd5b6000600660003373ffffffffffffffffffffffffffffffffffffffff1673ffffffffffffffffffffffffffffffffffffffff16815260200190815260200160002060010154905060008111610d98576040517f08c379a0000000000000000000000000000000000000000000000000000000008152600401610d8f906130b5565b60405180910390fd5b6000600554600a610da99190613208565b82610db49190613253565b90506000600660003373ffffffffffffffffffffffffffffffffffffffff1673ffffffffffffffffffffffffffffffffffffffff16815260200190815260200160002060010181905550600460009054906101000a900473ffffffffffffffffffffffffffffffffffffffff1673ffffffffffffffffffffffffffffffffffffffff1663a9059cbb33836040518363ffffffff1660e01b8152600401610e5b929190613295565b6020604051808303816000875af1158015610e7a573d6000803e3d6000fd5b505050506040513d601f19601f82011682018060405250810190610e9e91906132ea565b507f5afeca38b2064c23a692c4cf353015d80ab3ecc417b4f893f372690c11fbd9a63383604051610ed0929190613295565b60405180910390a15050565b600660003373ffffffffffffffffffffffffffffffffffffffff1673ffffffffffffffffffffffffffffffffffffffff16815260200190815260200160002060060160009054906101000a900460ff16610f6b576040517f08c379a0000000000000000000000000000000000000000000000000000000008152600401610f6290613363565b60405180910390fd5b6000600660003373ffffffffffffffffffffffffffffffffffffffff1673ffffffffffffffffffffffffffffffffffffffff16815260200190815260200160002060070154036110015742600660003373ffffffffffffffffffffffffffffffffffffffff1673ffffffffffffffffffffffffffffffffffffffff168152602001908152602001600020600701819055506110dc565b62015180600660003373ffffffffffffffffffffffffffffffffffffffff1673ffffffffffffffffffffffffffffffffffffffff168152602001908152602001600020600701546110529190612f2d565b421015611094576040517f08c379a000000000000000000000000000000000000000000000000000000000815260040161108b906133cf565b60405180910390fd5b42600660003373ffffffffffffffffffffffffffffffffffffffff1673ffffffffffffffffffffffffffffffffffffffff168152602001908152602001600020600701819055505b600154600660003373ffffffffffffffffffffffffffffffffffffffff1673ffffffffffffffffffffffffffffffffffffffff16815260200190815260200160002060010160008282546111309190612f2d565b925050819055506000600554600a6111489190613208565b6001546111559190613253565b9050600460009054906101000a900473ffffffffffffffffffffffffffffffffffffffff1673ffffffffffffffffffffffffffffffffffffffff166340c10f1930836040518363ffffffff1660e01b81526004016111b4929190613295565b600060405180830381600087803b1580156111ce57600080fd5b505af11580156111e2573d6000803e3d6000fd5b505050507f16b0da2ffcb90c6723317bd637d9aad7f04711f42bbe0ac0918ebe10f1f9001c33600154604051611219929190613295565b60405180910390a150565b600760205280600052604060002060009150905080600001805461124790612a82565b80601f016020809104026020016040519081016040528092919081815260200182805461127390612a82565b80156112c05780601f10611295576101008083540402835291602001916112c0565b820191906000526020600020905b8154815290600101906020018083116112a357829003601f168201915b5050505050908060010180546112d590612a82565b80601f016020809104026020016040519081016040528092919081815260200182805461130190612a82565b801561134e5780601f106113235761010080835404028352916020019161134e565b820191906000526020600020905b81548152906001019060200180831161133157829003601f168201915b5050505050908060020154908060030154908060040154908060050154908060060154908060070154908060080160009054906101000a900473ffffffffffffffffffffffffffffffffffffffff16908060090180546113ad90612a82565b80601f01602080910402602001604051908101604052809291908181526020018280546113d990612a82565b80156114265780601f106113fb57610100808354040283529160200191611426565b820191906000526020600020905b81548152906001019060200180831161140957829003601f168201915b505050505090508a565b606060038054806020026020016040519081016040528092919081815260200182805480156114b457602002820191906000526020600020905b8160009054906101000a900473ffffffffffffffffffffffffffffffffffffffff1673ffffffffffffffffffffffffffffffffffffffff168152602001906001019080831161146a575b5050505050905090565b60066020528060005260406000206000915090508060000180546114e190612a82565b80601f016020809104026020016040519081016040528092919081815260200182805461150d90612a82565b801561155a5780601f1061152f5761010080835404028352916020019161155a565b820191906000526020600020905b81548152906001019060200180831161153d57829003601f168201915b5050505050908060010154908060030154908060040160009054906101000a900473ffffffffffffffffffffffffffffffffffffffff16908060050180546115a190612a82565b80601f01602080910402602001604051908101604052809291908181526020018280546115cd90612a82565b801561161a5780601f106115ef5761010080835404028352916020019161161a565b820191906000526020600020905b8154815290600101906020018083116115fd57829003601f168201915b5050505050908060060160009054906101000a900460ff16908060070154905087565b60008054906101000a900473ffffffffffffffffffffffffffffffffffffffff1673ffffffffffffffffffffffffffffffffffffffff163373ffffffffffffffffffffffffffffffffffffffff16146116cb576040517f08c379a00000000000000000000000000000000000000000000000000000000081526004016116c290613461565b60405180910390fd5b6000600554600a6116dc9190613208565b826116e79190613253565b9050600260008154809291906116fc90613481565b91905055506040518061014001604052808481526020016040518060400160405280600781526020017f50656e64696e67000000000000000000000000000000000000000000000000008152508152602001838152602001428152602001600081526020016000815260200160008152602001600081526020018573ffffffffffffffffffffffffffffffffffffffff168152602001600660008773ffffffffffffffffffffffffffffffffffffffff1673ffffffffffffffffffffffffffffffffffffffff16815260200190815260200160002060000180546117df90612a82565b80601f016020809104026020016040519081016040528092919081815260200182805461180b90612a82565b80156118585780601f1061182d57610100808354040283529160200191611858565b820191906000526020600020905b81548152906001019060200180831161183b57829003601f168201915b5050505050815250600760006002548152602001908152602001600020600082015181600001908161188a9190612c55565b5060208201518160010190816118a09190612c55565b5060408201518160020155606082015181600301556080820151816004015560a0820151816005015560c0820151816006015560e082015181600701556101008201518160080160006101000a81548173ffffffffffffffffffffffffffffffffffffffff021916908373ffffffffffffffffffffffffffffffffffffffff16021790555061012082015181600901908161193b9190612c55565b50905050600660008573ffffffffffffffffffffffffffffffffffffffff1673ffffffffffffffffffffffffffffffffffffffff1681526020019081526020016000206002016002549080600181540180825580915050600190039060005260206000200160009091909190915055600460009054906101000a900473ffffffffffffffffffffffffffffffffffffffff1673ffffffffffffffffffffffffffffffffffffffff166340c10f1930836040518363ffffffff1660e01b8152600401611a07929190613295565b600060405180830381600087803b158015611a2157600080fd5b505af1158015611a35573d6000803e3d6000fd5b505050507f6c3f3cdddc611e828cd60b014a0e354d0c5d4305908f98bab34be382cd4b623a8460025485604051611a6e939291906134c9565b60405180910390a150505050565b60008054906101000a900473ffffffffffffffffffffffffffffffffffffffff1673ffffffffffffffffffffffffffffffffffffffff163373ffffffffffffffffffffffffffffffffffffffff1614611b0a576040517f08c379a0000000000000000000000000000000000000000000000000000000008152600401611b0190613461565b60405180910390fd5b6000600660008573ffffffffffffffffffffffffffffffffffffffff1673ffffffffffffffffffffffffffffffffffffffff1681526020019081526020016000206003015414611b8f576040517f08c379a0000000000000000000000000000000000000000000000000000000008152600401611b8690613553565b60405180910390fd5b60405180610100016040528083815260200160008152602001600067ffffffffffffffff811115611bc357611bc2612037565b5b604051908082528060200260200182016040528015611bf15781602001602082028036833780820191505090505b5081526020014281526020018473ffffffffffffffffffffffffffffffffffffffff1681526020018281526020016001151581526020016000815250600660008573ffffffffffffffffffffffffffffffffffffffff1673ffffffffffffffffffffffffffffffffffffffff1681526020019081526020016000206000820151816000019081611c819190612c55565b50602082015181600101556040820151816002019080519060200190611ca8929190611f68565b506060820151816003015560808201518160040160006101000a81548173ffffffffffffffffffffffffffffffffffffffff021916908373ffffffffffffffffffffffffffffffffffffffff16021790555060a0820151816005019081611d0f9190612c55565b5060c08201518160060160006101000a81548160ff02191690831515021790555060e082015181600701559050506003839080600181540180825580915050600190039060005260206000200160009091909190916101000a81548173ffffffffffffffffffffffffffffffffffffffff021916908373ffffffffffffffffffffffffffffffffffffffff1602179055507fa030fd4c7d3464e2ab354cc6357d7c2e9b69a215a9ff95d0bea2dd9dacb592b78383604051611dd1929190613573565b60405180910390a1505050565b60025481565b60008054906101000a900473ffffffffffffffffffffffffffffffffffffffff1673ffffffffffffffffffffffffffffffffffffffff163373ffffffffffffffffffffffffffffffffffffffff1614611e72576040517f08c379a0000000000000000000000000000000000000000000000000000000008152600401611e6990613461565b60405180910390fd5b8060018190555050565b600460009054906101000a900473ffffffffffffffffffffffffffffffffffffffff1681565b60405180610100016040528060608152602001600081526020016060815260200160008152602001600073ffffffffffffffffffffffffffffffffffffffff16815260200160608152602001600015158152602001600081525090565b6040518061014001604052806060815260200160608152602001600081526020016000815260200160008152602001600081526020016000815260200160008152602001600073ffffffffffffffffffffffffffffffffffffffff168152602001606081525090565b828054828255906000526020600020908101928215611fa4579160200282015b82811115611fa3578251825591602001919060010190611f88565b5b509050611fb19190611fb5565b5090565b5b80821115611fce576000816000905550600101611fb6565b5090565b6000604051905090565b600080fd5b600080fd5b6000819050919050565b611ff981611fe6565b811461200457600080fd5b50565b60008135905061201681611ff0565b92915050565b600080fd5b600080fd5b6000601f19601f8301169050919050565b7f4e487b7100000000000000000000000000000000000000000000000000000000600052604160045260246000fd5b61206f82612026565b810181811067ffffffffffffffff8211171561208e5761208d612037565b5b80604052505050565b60006120a1611fd2565b90506120ad8282612066565b919050565b600067ffffffffffffffff8211156120cd576120cc612037565b5b6120d682612026565b9050602081019050919050565b82818337600083830152505050565b6000612105612100846120b2565b612097565b90508281526020810184848401111561212157612120612021565b5b61212c8482856120e3565b509392505050565b600082601f8301126121495761214861201c565b5b81356121598482602086016120f2565b91505092915050565b6000806040838503121561217957612178611fdc565b5b600061218785828601612007565b925050602083013567ffffffffffffffff8111156121a8576121a7611fe1565b5b6121b485828601612134565b9150509250929050565b6000602082840312156121d4576121d3611fdc565b5b60006121e284828501612007565b91505092915050565b600073ffffffffffffffffffffffffffffffffffffffff82169050919050565b6000612216826121eb565b9050919050565b6122268161220b565b82525050565b6000602082019050612241600083018461221d565b92915050565b61225081611fe6565b82525050565b600060208201905061226b6000830184612247565b92915050565b61227a8161220b565b811461228557600080fd5b50565b60008135905061229781612271565b92915050565b6000602082840312156122b3576122b2611fdc565b5b60006122c184828501612288565b91505092915050565b600081519050919050565b600082825260208201905092915050565b60005b838110156123045780820151818401526020810190506122e9565b60008484015250505050565b600061231b826122ca565b61232581856122d5565b93506123358185602086016122e6565b61233e81612026565b840191505092915050565b61235281611fe6565b82525050565b600081519050919050565b600082825260208201905092915050565b6000819050602082019050919050565b60006123908383612349565b60208301905092915050565b6000602082019050919050565b60006123b482612358565b6123be8185612363565b93506123c983612374565b8060005b838110156123fa5781516123e18882612384565b97506123ec8361239c565b9250506001810190506123cd565b5085935050505092915050565b6124108161220b565b82525050565b60008115159050919050565b61242b81612416565b82525050565b600061010083016000830151848203600086015261244f8282612310565b91505060208301516124646020860182612349565b506040830151848203604086015261247c82826123a9565b91505060608301516124916060860182612349565b5060808301516124a46080860182612407565b5060a083015184820360a08601526124bc8282612310565b91505060c08301516124d160c0860182612422565b5060e08301516124e460e0860182612349565b508091505092915050565b600060208201905081810360008301526125098184612431565b905092915050565b600061014083016000830151848203600086015261252f8282612310565b915050602083015184820360208601526125498282612310565b915050604083015161255e6040860182612349565b5060608301516125716060860182612349565b5060808301516125846080860182612349565b5060a083015161259760a0860182612349565b5060c08301516125aa60c0860182612349565b5060e08301516125bd60e0860182612349565b506101008301516125d2610100860182612407565b506101208301518482036101208601526125ec8282612310565b9150508091505092915050565b600060208201905081810360008301526126138184612511565b905092915050565b600082825260208201905092915050565b6000612637826122ca565b612641818561261b565b93506126518185602086016122e6565b61265a81612026565b840191505092915050565b6000610140820190508181036000830152612680818d61262c565b90508181036020830152612694818c61262c565b90506126a3604083018b612247565b6126b0606083018a612247565b6126bd6080830189612247565b6126ca60a0830188612247565b6126d760c0830187612247565b6126e460e0830186612247565b6126f261010083018561221d565b818103610120830152612705818461262c565b90509b9a5050505050505050505050565b600081519050919050565b600082825260208201905092915050565b6000819050602082019050919050565b600061274e8383612407565b60208301905092915050565b6000602082019050919050565b600061277282612716565b61277c8185612721565b935061278783612732565b8060005b838110156127b857815161279f8882612742565b97506127aa8361275a565b92505060018101905061278b565b5085935050505092915050565b600060208201905081810360008301526127df8184612767565b905092915050565b6127f081612416565b82525050565b600060e0820190508181036000830152612810818a61262c565b905061281f6020830189612247565b61282c6040830188612247565b612839606083018761221d565b818103608083015261284b818661262c565b905061285a60a08301856127e7565b61286760c0830184612247565b98975050505050505050565b60008060006060848603121561288c5761288b611fdc565b5b600061289a86828701612288565b935050602084013567ffffffffffffffff8111156128bb576128ba611fe1565b5b6128c786828701612134565b92505060406128d886828701612007565b9150509250925092565b6000806000606084860312156128fb576128fa611fdc565b5b600061290986828701612288565b935050602084013567ffffffffffffffff81111561292a57612929611fe1565b5b61293686828701612134565b925050604084013567ffffffffffffffff81111561295757612956611fe1565b5b61296386828701612134565b9150509250925092565b6000819050919050565b600061299261298d612988846121eb565b61296d565b6121eb565b9050919050565b60006129a482612977565b9050919050565b60006129b682612999565b9050919050565b6129c6816129ab565b82525050565b60006020820190506129e160008301846129bd565b92915050565b7f4f6e6c79206d616e61676572206f722061737369676e65642073746166660000600082015250565b6000612a1d601e8361261b565b9150612a28826129e7565b602082019050919050565b60006020820190508181036000830152612a4c81612a10565b9050919050565b7f4e487b7100000000000000000000000000000000000000000000000000000000600052602260045260246000fd5b60006002820490506001821680612a9a57607f821691505b602082108103612aad57612aac612a53565b5b50919050565b60008190508160005260206000209050919050565b60006020601f8301049050919050565b600082821b905092915050565b600060088302612b157fffffffffffffffffffffffffffffffffffffffffffffffffffffffffffffffff82612ad8565b612b1f8683612ad8565b95508019841693508086168417925050509392505050565b6000612b52612b4d612b4884611fe6565b61296d565b611fe6565b9050919050565b6000819050919050565b612b6c83612b37565b612b80612b7882612b59565b848454612ae5565b825550505050565b600090565b612b95612b88565b612ba0818484612b63565b505050565b5b81811015612bc457612bb9600082612b8d565b600181019050612ba6565b5050565b601f821115612c0957612bda81612ab3565b612be384612ac8565b81016020851015612bf2578190505b612c06612bfe85612ac8565b830182612ba5565b50505b505050565b600082821c905092915050565b6000612c2c60001984600802612c0e565b1980831691505092915050565b6000612c458383612c1b565b9150826002028217905092915050565b612c5e826122ca565b67ffffffffffffffff811115612c7757612c76612037565b5b612c818254612a82565b612c8c828285612bc8565b600060209050601f831160018114612cbf5760008415612cad578287015190505b612cb78582612c39565b865550612d1f565b601f198416612ccd86612ab3565b60005b82811015612cf557848901518255600182019150602085019450602081019050612cd0565b86831015612d125784890151612d0e601f891682612c1b565b8355505b6001600288020188555050505b505050505050565b600081905092915050565b7f696e50726f677265737300000000000000000000000000000000000000000000600082015250565b6000612d68600a83612d27565b9150612d7382612d32565b600a82019050919050565b6000612d8982612d5b565b9150819050919050565b6000612d9e826122ca565b612da88185612d27565b9350612db88185602086016122e6565b80840191505092915050565b6000612dd08284612d93565b915081905092915050565b7f7265766965770000000000000000000000000000000000000000000000000000600082015250565b6000612e11600683612d27565b9150612e1c82612ddb565b600682019050919050565b6000612e3282612e04565b9150819050919050565b7f72656a6563746564000000000000000000000000000000000000000000000000600082015250565b6000612e72600883612d27565b9150612e7d82612e3c565b600882019050919050565b6000612e9382612e65565b9150819050919050565b7f436f6d706c657465640000000000000000000000000000000000000000000000600082015250565b6000612ed3600983612d27565b9150612ede82612e9d565b600982019050919050565b6000612ef482612ec6565b9150819050919050565b7f4e487b7100000000000000000000000000000000000000000000000000000000600052601160045260246000fd5b6000612f3882611fe6565b9150612f4383611fe6565b9250828201905080821115612f5b57612f5a612efe565b5b92915050565b6000604082019050612f766000830185612247565b8181036020830152612f88818461262c565b90509392505050565b7f41646472657373206973206e6f74207265676973746572656400000000000000600082015250565b6000612fc760198361261b565b9150612fd282612f91565b602082019050919050565b60006020820190508181036000830152612ff681612fba565b9050919050565b7f4e6f742072656769737465726564000000000000000000000000000000000000600082015250565b6000613033600e8361261b565b915061303e82612ffd565b602082019050919050565b6000602082019050818103600083015261306281613026565b9050919050565b7f4e6f20746f6b656e7320746f207061796f757400000000000000000000000000600082015250565b600061309f60138361261b565b91506130aa82613069565b602082019050919050565b600060208201905081810360008301526130ce81613092565b9050919050565b60008160011c9050919050565b6000808291508390505b600185111561312c5780860481111561310857613107612efe565b5b60018516156131175780820291505b8081029050613125856130d5565b94506130ec565b94509492505050565b6000826131455760019050613201565b816131535760009050613201565b81600181146131695760028114613173576131a2565b6001915050613201565b60ff84111561318557613184612efe565b5b8360020a91508482111561319c5761319b612efe565b5b50613201565b5060208310610133831016604e8410600b84101617156131d75782820a9050838111156131d2576131d1612efe565b5b613201565b6131e484848460016130e2565b925090508184048111156131fb576131fa612efe565b5b81810290505b9392505050565b600061321382611fe6565b915061321e83611fe6565b925061324b7fffffffffffffffffffffffffffffffffffffffffffffffffffffffffffffffff8484613135565b905092915050565b600061325e82611fe6565b915061326983611fe6565b925082820261327781611fe6565b9150828204841483151761328e5761328d612efe565b5b5092915050565b60006040820190506132aa600083018561221d565b6132b76020830184612247565b9392505050565b6132c781612416565b81146132d257600080fd5b50565b6000815190506132e4816132be565b92915050565b600060208284031215613300576132ff611fdc565b5b600061330e848285016132d5565b91505092915050565b7f4e6f742061207265676973746572656420737461666600000000000000000000600082015250565b600061334d60168361261b565b915061335882613317565b602082019050919050565b6000602082019050818103600083015261337c81613340565b9050919050565b7f596f752063616e206f6e6c7920636865636b696e206f6e636520612064617900600082015250565b60006133b9601f8361261b565b91506133c482613383565b602082019050919050565b600060208201905081810360008301526133e8816133ac565b9050919050565b7f4f6e6c79206d616e616765722063616e2063616c6c20746869732066756e637460008201527f696f6e0000000000000000000000000000000000000000000000000000000000602082015250565b600061344b60238361261b565b9150613456826133ef565b604082019050919050565b6000602082019050818103600083015261347a8161343e565b9050919050565b600061348c82611fe6565b91507fffffffffffffffffffffffffffffffffffffffffffffffffffffffffffffffff82036134be576134bd612efe565b5b600182019050919050565b60006060820190506134de600083018661221d565b6134eb6020830185612247565b81810360408301526134fd818461262c565b9050949350505050565b7f537461666620616c726561647920726567697374657265640000000000000000600082015250565b600061353d60188361261b565b915061354882613507565b602082019050919050565b6000602082019050818103600083015261356c81613530565b9050919050565b6000604082019050613588600083018561221d565b818103602083015261359a818461262c565b9050939250505056fea2646970667358221220fb61f18709a4cc8d04234351dd9e73ced98b57084f02ffafd7027458c9ad65d164736f6c63430008140033",
  "linkReferences": {},
  "deployedLinkReferences": {}
}