{
  "_format": "hh-sol-artifact-1",
  "contractName": "CompanyManagement",
  "sourceName": "contracts/CompanyManagement.sol",
  "abi": [
    {
      "inputs": [],
      "stateMutability": "nonpayable",
      "type": "constructor"
    },
    {
      "anonymous": false,
      "inputs": [
        {
          "indexed": false,
          "internalType": "address",
          "name": "staffAddress",
          "type": "address"
        },
        {
          "indexed": false,
          "internalType": "uint256",
          "name": "roleId",
          "type": "uint256"
        },
        {
          "indexed": false,
          "internalType": "string",
          "name": "roleName",
          "type": "string"
        }
      ],
      "name": "RoleAssigned",
      "type": "event"
    },
    {
      "anonymous": false,
      "inputs": [
        {
          "indexed": false,
          "internalType": "uint256",
          "name": "roleId",
          "type": "uint256"
        },
        {
          "indexed": false,
          "internalType": "string",
          "name": "newStatus",
          "type": "string"
        }
      ],
      "name": "RoleStatusUpdatedByManager",
      "type": "event"
    },
    {
      "anonymous": false,
      "inputs": [
        {
          "indexed": false,
          "internalType": "uint256",
          "name": "signalId",
          "type": "uint256"
        },
        {
          "indexed": false,
          "internalType": "uint256",
          "name": "roleId",
          "type": "uint256"
        },
        {
          "indexed": false,
          "internalType": "address",
          "name": "staffAddress",
          "type": "address"
        },
        {
          "indexed": false,
          "internalType": "string",
          "name": "signalType",
          "type": "string"
        }
      ],
      "name": "SignalSent",
      "type": "event"
    },
    {
      "anonymous": false,
      "inputs": [
        {
          "indexed": false,
          "internalType": "address",
          "name": "staffAddress",
          "type": "address"
        },
        {
          "indexed": false,
          "internalType": "string",
          "name": "name",
          "type": "string"
        }
      ],
      "name": "StaffRegistered",
      "type": "event"
    },
    {
      "anonymous": false,
      "inputs": [
        {
          "indexed": false,
          "internalType": "address",
          "name": "staffAddress",
          "type": "address"
        },
        {
          "indexed": false,
          "internalType": "uint256",
          "name": "amount",
          "type": "uint256"
        }
      ],
      "name": "TokensDistributed",
      "type": "event"
    },
    {
      "inputs": [
        {
          "internalType": "address",
          "name": "staffAddress",
          "type": "address"
        },
        {
          "internalType": "string",
          "name": "roleName",
          "type": "string"
        },
        {
          "internalType": "uint256",
          "name": "tokenReward",
          "type": "uint256"
        }
      ],
      "name": "assignRole",
      "outputs": [],
      "stateMutability": "nonpayable",
      "type": "function"
    },
    {
      "inputs": [
        {
          "internalType": "address",
          "name": "staffAddress",
          "type": "address"
        },
        {
          "internalType": "uint256",
          "name": "roleId",
          "type": "uint256"
        }
      ],
      "name": "distributeTokensForRole",
      "outputs": [],
      "stateMutability": "nonpayable",
      "type": "function"
    },
    {
      "inputs": [],
      "name": "getAllRegisteredAddress",
      "outputs": [
        {
          "internalType": "address[]",
          "name": "",
          "type": "address[]"
        }
      ],
      "stateMutability": "view",
      "type": "function"
    },
    {
      "inputs": [
        {
          "internalType": "uint256",
          "name": "roleId",
          "type": "uint256"
        }
      ],
      "name": "getRoleDetails",
      "outputs": [
        {
          "components": [
            {
              "internalType": "string",
              "name": "roleName",
              "type": "string"
            },
            {
              "internalType": "string",
              "name": "status",
              "type": "string"
            },
            {
              "internalType": "uint256",
              "name": "tokenReward",
              "type": "uint256"
            },
            {
              "internalType": "uint256",
              "name": "createdAt",
              "type": "uint256"
            },
            {
              "internalType": "uint256",
              "name": "pendingAt",
              "type": "uint256"
            },
            {
              "internalType": "uint256",
              "name": "completedAt",
              "type": "uint256"
            }
          ],
          "internalType": "struct CompanyManagement.Role",
          "name": "",
          "type": "tuple"
        }
      ],
      "stateMutability": "view",
      "type": "function"
    },
    {
      "inputs": [
        {
          "internalType": "uint256",
          "name": "roleId",
          "type": "uint256"
        }
      ],
      "name": "getSignalsForRole",
      "outputs": [
        {
          "components": [
            {
              "internalType": "uint256",
              "name": "roleId",
              "type": "uint256"
            },
            {
              "internalType": "address",
              "name": "staffAddress",
              "type": "address"
            },
            {
              "internalType": "string",
              "name": "signalType",
              "type": "string"
            }
          ],
          "internalType": "struct CompanyManagement.Signal[]",
          "name": "",
          "type": "tuple[]"
        }
      ],
      "stateMutability": "view",
      "type": "function"
    },
    {
      "inputs": [
        {
          "internalType": "address",
          "name": "staffAddress",
          "type": "address"
        }
      ],
      "name": "getStaffDetails",
      "outputs": [
        {
          "components": [
            {
              "internalType": "string",
              "name": "name",
              "type": "string"
            },
            {
              "internalType": "uint256",
              "name": "tokensEarned",
              "type": "uint256"
            },
            {
              "internalType": "uint256[]",
              "name": "roleIds",
              "type": "uint256[]"
            },
            {
              "internalType": "uint256",
              "name": "registeredAt",
              "type": "uint256"
            },
            {
              "internalType": "address",
              "name": "staffAddress",
              "type": "address"
            },
            {
              "internalType": "string",
              "name": "gender",
              "type": "string"
            }
          ],
          "internalType": "struct CompanyManagement.Staff",
          "name": "",
          "type": "tuple"
        }
      ],
      "stateMutability": "view",
      "type": "function"
    },
    {
      "inputs": [],
      "name": "manager",
      "outputs": [
        {
          "internalType": "address",
          "name": "",
          "type": "address"
        }
      ],
      "stateMutability": "view",
      "type": "function"
    },
    {
      "inputs": [
        {
          "internalType": "address",
          "name": "staffAddress",
          "type": "address"
        },
        {
          "internalType": "string",
          "name": "name",
          "type": "string"
        },
        {
          "internalType": "string",
          "name": "gender",
          "type": "string"
        }
      ],
      "name": "registerStaff",
      "outputs": [],
      "stateMutability": "nonpayable",
      "type": "function"
    },
    {
      "inputs": [
        {
          "internalType": "uint256",
          "name": "",
          "type": "uint256"
        }
      ],
      "name": "registeredStaffAddress",
      "outputs": [
        {
          "internalType": "address",
          "name": "",
          "type": "address"
        }
      ],
      "stateMutability": "view",
      "type": "function"
    },
    {
      "inputs": [],
      "name": "roleCount",
      "outputs": [
        {
          "internalType": "uint256",
          "name": "",
          "type": "uint256"
        }
      ],
      "stateMutability": "view",
      "type": "function"
    },
    {
      "inputs": [
        {
          "internalType": "uint256",
          "name": "",
          "type": "uint256"
        },
        {
          "internalType": "uint256",
          "name": "",
          "type": "uint256"
        }
      ],
      "name": "roleSignals",
      "outputs": [
        {
          "internalType": "uint256",
          "name": "roleId",
          "type": "uint256"
        },
        {
          "internalType": "address",
          "name": "staffAddress",
          "type": "address"
        },
        {
          "internalType": "string",
          "name": "signalType",
          "type": "string"
        }
      ],
      "stateMutability": "view",
      "type": "function"
    },
    {
      "inputs": [
        {
          "internalType": "uint256",
          "name": "",
          "type": "uint256"
        }
      ],
      "name": "roles",
      "outputs": [
        {
          "internalType": "string",
          "name": "roleName",
          "type": "string"
        },
        {
          "internalType": "string",
          "name": "status",
          "type": "string"
        },
        {
          "internalType": "uint256",
          "name": "tokenReward",
          "type": "uint256"
        },
        {
          "internalType": "uint256",
          "name": "createdAt",
          "type": "uint256"
        },
        {
          "internalType": "uint256",
          "name": "pendingAt",
          "type": "uint256"
        },
        {
          "internalType": "uint256",
          "name": "completedAt",
          "type": "uint256"
        }
      ],
      "stateMutability": "view",
      "type": "function"
    },
    {
      "inputs": [
        {
          "internalType": "uint256",
          "name": "roleId",
          "type": "uint256"
        },
        {
          "internalType": "string",
          "name": "signalType",
          "type": "string"
        }
      ],
      "name": "sendSignal",
      "outputs": [],
      "stateMutability": "nonpayable",
      "type": "function"
    },
    {
      "inputs": [],
      "name": "signAttendance",
      "outputs": [],
      "stateMutability": "nonpayable",
      "type": "function"
    },
    {
      "inputs": [],
      "name": "signalCount",
      "outputs": [
        {
          "internalType": "uint256",
          "name": "",
          "type": "uint256"
        }
      ],
      "stateMutability": "view",
      "type": "function"
    },
    {
      "inputs": [
        {
          "internalType": "address",
          "name": "",
          "type": "address"
        }
      ],
      "name": "staffList",
      "outputs": [
        {
          "internalType": "string",
          "name": "name",
          "type": "string"
        },
        {
          "internalType": "uint256",
          "name": "tokensEarned",
          "type": "uint256"
        },
        {
          "internalType": "uint256",
          "name": "registeredAt",
          "type": "uint256"
        },
        {
          "internalType": "address",
          "name": "staffAddress",
          "type": "address"
        },
        {
          "internalType": "string",
          "name": "gender",
          "type": "string"
        }
      ],
      "stateMutability": "view",
      "type": "function"
    },
    {
      "inputs": [],
      "name": "tokenRewardPerAttendance",
      "outputs": [
        {
          "internalType": "uint256",
          "name": "",
          "type": "uint256"
        }
      ],
      "stateMutability": "view",
      "type": "function"
    },
    {
      "inputs": [
        {
          "internalType": "uint256",
          "name": "roleId",
          "type": "uint256"
        },
        {
          "internalType": "string",
          "name": "newStatus",
          "type": "string"
        }
      ],
      "name": "updateRoleStatusByManager",
      "outputs": [],
      "stateMutability": "nonpayable",
      "type": "function"
    },
    {
      "inputs": [
        {
          "internalType": "address",
          "name": "userAddress",
          "type": "address"
        },
        {
          "internalType": "uint256",
          "name": "roleId",
          "type": "uint256"
        }
      ],
      "name": "userAllRoles",
      "outputs": [
        {
          "components": [
            {
              "internalType": "string",
              "name": "roleName",
              "type": "string"
            },
            {
              "internalType": "string",
              "name": "status",
              "type": "string"
            },
            {
              "internalType": "uint256",
              "name": "tokenReward",
              "type": "uint256"
            },
            {
              "internalType": "uint256",
              "name": "createdAt",
              "type": "uint256"
            },
            {
              "internalType": "uint256",
              "name": "pendingAt",
              "type": "uint256"
            },
            {
              "internalType": "uint256",
              "name": "completedAt",
              "type": "uint256"
            }
          ],
          "internalType": "struct CompanyManagement.Role[]",
          "name": "",
          "type": "tuple[]"
        }
      ],
      "stateMutability": "nonpayable",
      "type": "function"
    }
  ],
  "bytecode": "0x6080604052600a60015534801561001557600080fd5b50336000806101000a81548173ffffffffffffffffffffffffffffffffffffffff021916908373ffffffffffffffffffffffffffffffffffffffff160217905550612fd3806100656000396000f3fe608060405234801561001057600080fd5b50600436106101215760003560e01c80637f91aec5116100ad578063bf5f190a11610071578063bf5f190a146102f8578063bfda4a4914610328578063cab8107a1461035d578063cd058a511461038d578063ddf96358146103bf57610121565b80637f91aec5146102625780638feee11a1461026c5780639dcd4eec1461028a578063a3b8224f146102be578063ae0041aa146102da57610121565b806337b301ad116100f457806337b301ad146101c0578063481c6a75146101f0578063560536821461020e57806358c38fb01461022a5780636746e26c1461024657610121565b8063086a77e31461012657806313cdb4a91461015657806330d7577f1461018657806334120eec146101a4575b600080fd5b610140600480360381019061013b9190611ddd565b6103dd565b60405161014d9190612005565b60405180910390f35b610170600480360381019061016b9190611ddd565b610541565b60405161017d9190612036565b60405180910390f35b61018e610580565b60405161019b9190612060565b60405180910390f35b6101be60048036038101906101b991906121dc565b610586565b005b6101da60048036038101906101d5919061224b565b6107b6565b6040516101e791906123be565b60405180910390f35b6101f86109f5565b6040516102059190612036565b60405180910390f35b610228600480360381019061022391906123e0565b610a19565b005b610244600480360381019061023f9190612420565b610c0a565b005b610260600480360381019061025b9190612420565b610dc3565b005b61026a610f8c565b005b6102746110b5565b604051610281919061252b565b60405180910390f35b6102a4600480360381019061029f919061224b565b611143565b6040516102b5959493929190612597565b60405180910390f35b6102d860048036038101906102d391906125f8565b6112a9565b005b6102e26115de565b6040516102ef9190612060565b60405180910390f35b610312600480360381019061030d9190611ddd565b6115e4565b60405161031f9190612713565b60405180910390f35b610342600480360381019061033d9190611ddd565b61175d565b60405161035496959493929190612735565b60405180910390f35b610377600480360381019061037291906123e0565b6118a9565b60405161038491906128f6565b60405180910390f35b6103a760048036038101906103a29190612918565b611b2c565b6040516103b693929190612958565b60405180910390f35b6103c7611c1b565b6040516103d49190612060565b60405180910390f35b606060076000838152602001908152602001600020805480602002602001604051908101604052809291908181526020016000905b828210156105365783829060005260206000209060030201604051806060016040529081600082015481526020016001820160009054906101000a900473ffffffffffffffffffffffffffffffffffffffff1673ffffffffffffffffffffffffffffffffffffffff1673ffffffffffffffffffffffffffffffffffffffff1681526020016002820180546104a5906129c5565b80601f01602080910402602001604051908101604052809291908181526020018280546104d1906129c5565b801561051e5780601f106104f35761010080835404028352916020019161051e565b820191906000526020600020905b81548152906001019060200180831161050157829003601f168201915b50505050508152505081526020019060010190610412565b505050509050919050565b6004818154811061055157600080fd5b906000526020600020016000915054906101000a900473ffffffffffffffffffffffffffffffffffffffff1681565b60015481565b60008054906101000a900473ffffffffffffffffffffffffffffffffffffffff1673ffffffffffffffffffffffffffffffffffffffff163373ffffffffffffffffffffffffffffffffffffffff1614610614576040517f08c379a000000000000000000000000000000000000000000000000000000000815260040161060b90612a69565b60405180910390fd5b6002600081548092919061062790612ab8565b91905055506040518060c001604052808381526020016040518060400160405280600781526020017f50656e64696e67000000000000000000000000000000000000000000000000008152508152602001828152602001428152602001428152602001600081525060066000600254815260200190815260200160002060008201518160000190805190602001906106c0929190611c21565b5060208201518160010190805190602001906106dd929190611c21565b5060408201518160020155606082015181600301556080820151816004015560a08201518160050155905050600560008473ffffffffffffffffffffffffffffffffffffffff1673ffffffffffffffffffffffffffffffffffffffff16815260200190815260200160002060020160025490806001815401808255809150506001900390600052602060002001600090919091909150557f04247cfbd264831bd7fa78e325ffa667ea23667edaff203f5427ea93f8d44e2983600254846040516107a993929190612b01565b60405180910390a1505050565b6107be611ca7565b600560008373ffffffffffffffffffffffffffffffffffffffff1673ffffffffffffffffffffffffffffffffffffffff1681526020019081526020016000206040518060c0016040529081600082018054610818906129c5565b80601f0160208091040260200160405190810160405280929190818152602001828054610844906129c5565b80156108915780601f1061086657610100808354040283529160200191610891565b820191906000526020600020905b81548152906001019060200180831161087457829003601f168201915b5050505050815260200160018201548152602001600282018054806020026020016040519081016040528092919081815260200182805480156108f357602002820191906000526020600020905b8154815260200190600101908083116108df575b50505050508152602001600382015481526020016004820160009054906101000a900473ffffffffffffffffffffffffffffffffffffffff1673ffffffffffffffffffffffffffffffffffffffff1673ffffffffffffffffffffffffffffffffffffffff16815260200160058201805461096c906129c5565b80601f0160208091040260200160405190810160405280929190818152602001828054610998906129c5565b80156109e55780601f106109ba576101008083540402835291602001916109e5565b820191906000526020600020905b8154815290600101906020018083116109c857829003601f168201915b5050505050815250509050919050565b60008054906101000a900473ffffffffffffffffffffffffffffffffffffffff1681565b60008054906101000a900473ffffffffffffffffffffffffffffffffffffffff1673ffffffffffffffffffffffffffffffffffffffff163373ffffffffffffffffffffffffffffffffffffffff1614610aa7576040517f08c379a0000000000000000000000000000000000000000000000000000000008152600401610a9e90612a69565b60405180910390fd5b604051602001610ab690612b96565b6040516020818303038152906040528051906020012060066000838152602001908152602001600020600101604051602001610af29190612c3f565b6040516020818303038152906040528051906020012014610b48576040517f08c379a0000000000000000000000000000000000000000000000000000000008152600401610b3f90612ca2565b60405180910390fd5b6006600082815260200190815260200160002060020154600560008473ffffffffffffffffffffffffffffffffffffffff1673ffffffffffffffffffffffffffffffffffffffff1681526020019081526020016000206001016000828254610bb09190612cc2565b925050819055507f16b0da2ffcb90c6723317bd637d9aad7f04711f42bbe0ac0918ebe10f1f9001c826006600084815260200190815260200160002060020154604051610bfe929190612d18565b60405180910390a15050565b60008054906101000a900473ffffffffffffffffffffffffffffffffffffffff1673ffffffffffffffffffffffffffffffffffffffff163373ffffffffffffffffffffffffffffffffffffffff1614610c98576040517f08c379a0000000000000000000000000000000000000000000000000000000008152600401610c8f90612a69565b60405180910390fd5b600060066000848152602001908152602001600020905081816001019080519060200190610cc7929190611c21565b50604051602001610cd790612d8d565b6040516020818303038152906040528051906020012082604051602001610cfe9190612dd3565b604051602081830303815290604052805190602001201415610d2857428160040181905550610d85565b604051602001610d3790612b96565b6040516020818303038152906040528051906020012082604051602001610d5e9190612dd3565b604051602081830303815290604052805190602001201415610d84574281600501819055505b5b7f851c950c89e54bf5e03e7e83098592b635e1cc1579327be80ef29c5d9e4d51a78383604051610db6929190612dea565b60405180910390a1505050565b6000600560003373ffffffffffffffffffffffffffffffffffffffff1673ffffffffffffffffffffffffffffffffffffffff1681526020019081526020016000206000018054610e12906129c5565b905011610e54576040517f08c379a0000000000000000000000000000000000000000000000000000000008152600401610e4b90612e66565b60405180910390fd5b60036000815480929190610e6790612ab8565b91905055506007600083815260200190815260200160002060405180606001604052808481526020013373ffffffffffffffffffffffffffffffffffffffff1681526020018381525090806001815401808255809150506001900390600052602060002090600302016000909190919091506000820151816000015560208201518160010160006101000a81548173ffffffffffffffffffffffffffffffffffffffff021916908373ffffffffffffffffffffffffffffffffffffffff1602179055506040820151816002019080519060200190610f46929190611c21565b5050507fb57d035487b73b43a66a3dcd0acb0f5df5967898361c3ddd026626a8e86b71cb600354833384604051610f809493929190612e86565b60405180910390a15050565b6000600560003373ffffffffffffffffffffffffffffffffffffffff1673ffffffffffffffffffffffffffffffffffffffff1681526020019081526020016000206000018054610fdb906129c5565b90501161101d576040517f08c379a000000000000000000000000000000000000000000000000000000000815260040161101490612e66565b60405180910390fd5b600154600560003373ffffffffffffffffffffffffffffffffffffffff1673ffffffffffffffffffffffffffffffffffffffff16815260200190815260200160002060010160008282546110719190612cc2565b925050819055507f16b0da2ffcb90c6723317bd637d9aad7f04711f42bbe0ac0918ebe10f1f9001c336001546040516110ab929190612d18565b60405180910390a1565b6060600480548060200260200160405190810160405280929190818152602001828054801561113957602002820191906000526020600020905b8160009054906101000a900473ffffffffffffffffffffffffffffffffffffffff1673ffffffffffffffffffffffffffffffffffffffff16815260200190600101908083116110ef575b5050505050905090565b6005602052806000526040600020600091509050806000018054611166906129c5565b80601f0160208091040260200160405190810160405280929190818152602001828054611192906129c5565b80156111df5780601f106111b4576101008083540402835291602001916111df565b820191906000526020600020905b8154815290600101906020018083116111c257829003601f168201915b5050505050908060010154908060030154908060040160009054906101000a900473ffffffffffffffffffffffffffffffffffffffff1690806005018054611226906129c5565b80601f0160208091040260200160405190810160405280929190818152602001828054611252906129c5565b801561129f5780601f106112745761010080835404028352916020019161129f565b820191906000526020600020905b81548152906001019060200180831161128257829003601f168201915b5050505050905085565b60008054906101000a900473ffffffffffffffffffffffffffffffffffffffff1673ffffffffffffffffffffffffffffffffffffffff163373ffffffffffffffffffffffffffffffffffffffff1614611337576040517f08c379a000000000000000000000000000000000000000000000000000000000815260040161132e90612a69565b60405180910390fd5b6000600560008573ffffffffffffffffffffffffffffffffffffffff1673ffffffffffffffffffffffffffffffffffffffff16815260200190815260200160002060030154146113bc576040517f08c379a00000000000000000000000000000000000000000000000000000000081526004016113b390612f1e565b60405180910390fd5b6040518060c0016040528083815260200160008152602001600067ffffffffffffffff8111156113ef576113ee6120b1565b5b60405190808252806020026020018201604052801561141d5781602001602082028036833780820191505090505b5081526020014281526020018473ffffffffffffffffffffffffffffffffffffffff16815260200182815250600560008573ffffffffffffffffffffffffffffffffffffffff1673ffffffffffffffffffffffffffffffffffffffff16815260200190815260200160002060008201518160000190805190602001906114a4929190611c21565b506020820151816001015560408201518160020190805190602001906114cb929190611cf3565b506060820151816003015560808201518160040160006101000a81548173ffffffffffffffffffffffffffffffffffffffff021916908373ffffffffffffffffffffffffffffffffffffffff16021790555060a0820151816005019080519060200190611539929190611c21565b509050506004839080600181540180825580915050600190039060005260206000200160009091909190916101000a81548173ffffffffffffffffffffffffffffffffffffffff021916908373ffffffffffffffffffffffffffffffffffffffff1602179055507fa030fd4c7d3464e2ab354cc6357d7c2e9b69a215a9ff95d0bea2dd9dacb592b783836040516115d1929190612f3e565b60405180910390a1505050565b60035481565b6115ec611d40565b600660008381526020019081526020016000206040518060c001604052908160008201805461161a906129c5565b80601f0160208091040260200160405190810160405280929190818152602001828054611646906129c5565b80156116935780601f1061166857610100808354040283529160200191611693565b820191906000526020600020905b81548152906001019060200180831161167657829003601f168201915b505050505081526020016001820180546116ac906129c5565b80601f01602080910402602001604051908101604052809291908181526020018280546116d8906129c5565b80156117255780601f106116fa57610100808354040283529160200191611725565b820191906000526020600020905b81548152906001019060200180831161170857829003601f168201915b505050505081526020016002820154815260200160038201548152602001600482015481526020016005820154815250509050919050565b6006602052806000526040600020600091509050806000018054611780906129c5565b80601f01602080910402602001604051908101604052809291908181526020018280546117ac906129c5565b80156117f95780601f106117ce576101008083540402835291602001916117f9565b820191906000526020600020905b8154815290600101906020018083116117dc57829003601f168201915b50505050509080600101805461180e906129c5565b80601f016020809104026020016040519081016040528092919081815260200182805461183a906129c5565b80156118875780601f1061185c57610100808354040283529160200191611887565b820191906000526020600020905b81548152906001019060200180831161186a57829003601f168201915b5050505050908060020154908060030154908060040154908060050154905086565b60606000600560008573ffffffffffffffffffffffffffffffffffffffff1673ffffffffffffffffffffffffffffffffffffffff16815260200190815260200160002060020190506000818054905067ffffffffffffffff811115611911576119106120b1565b5b60405190808252806020026020018201604052801561194a57816020015b611937611d40565b81526020019060019003908161192f5790505b50905060005b8280549050811015611b2057600083828154811061197157611970612f6e565b5b906000526020600020015490506000600660008381526020019081526020016000209050806040518060c00160405290816000820180546119b1906129c5565b80601f01602080910402602001604051908101604052809291908181526020018280546119dd906129c5565b8015611a2a5780601f106119ff57610100808354040283529160200191611a2a565b820191906000526020600020905b815481529060010190602001808311611a0d57829003601f168201915b50505050508152602001600182018054611a43906129c5565b80601f0160208091040260200160405190810160405280929190818152602001828054611a6f906129c5565b8015611abc5780601f10611a9157610100808354040283529160200191611abc565b820191906000526020600020905b815481529060010190602001808311611a9f57829003601f168201915b50505050508152602001600282015481526020016003820154815260200160048201548152602001600582015481525050848481518110611b0057611aff612f6e565b5b602002602001018190525050508080611b1890612ab8565b915050611950565b50809250505092915050565b60076020528160005260406000208181548110611b4857600080fd5b9060005260206000209060030201600091509150508060000154908060010160009054906101000a900473ffffffffffffffffffffffffffffffffffffffff1690806002018054611b98906129c5565b80601f0160208091040260200160405190810160405280929190818152602001828054611bc4906129c5565b8015611c115780601f10611be657610100808354040283529160200191611c11565b820191906000526020600020905b815481529060010190602001808311611bf457829003601f168201915b5050505050905083565b60025481565b828054611c2d906129c5565b90600052602060002090601f016020900481019282611c4f5760008555611c96565b82601f10611c6857805160ff1916838001178555611c96565b82800160010185558215611c96579182015b82811115611c95578251825591602001919060010190611c7a565b5b509050611ca39190611d76565b5090565b6040518060c0016040528060608152602001600081526020016060815260200160008152602001600073ffffffffffffffffffffffffffffffffffffffff168152602001606081525090565b828054828255906000526020600020908101928215611d2f579160200282015b82811115611d2e578251825591602001919060010190611d13565b5b509050611d3c9190611d76565b5090565b6040518060c001604052806060815260200160608152602001600081526020016000815260200160008152602001600081525090565b5b80821115611d8f576000816000905550600101611d77565b5090565b6000604051905090565b600080fd5b600080fd5b6000819050919050565b611dba81611da7565b8114611dc557600080fd5b50565b600081359050611dd781611db1565b92915050565b600060208284031215611df357611df2611d9d565b5b6000611e0184828501611dc8565b91505092915050565b600081519050919050565b600082825260208201905092915050565b6000819050602082019050919050565b611e3f81611da7565b82525050565b600073ffffffffffffffffffffffffffffffffffffffff82169050919050565b6000611e7082611e45565b9050919050565b611e8081611e65565b82525050565b600081519050919050565b600082825260208201905092915050565b60005b83811015611ec0578082015181840152602081019050611ea5565b83811115611ecf576000848401525b50505050565b6000601f19601f8301169050919050565b6000611ef182611e86565b611efb8185611e91565b9350611f0b818560208601611ea2565b611f1481611ed5565b840191505092915050565b6000606083016000830151611f376000860182611e36565b506020830151611f4a6020860182611e77565b5060408301518482036040860152611f628282611ee6565b9150508091505092915050565b6000611f7b8383611f1f565b905092915050565b6000602082019050919050565b6000611f9b82611e0a565b611fa58185611e15565b935083602082028501611fb785611e26565b8060005b85811015611ff35784840389528151611fd48582611f6f565b9450611fdf83611f83565b925060208a01995050600181019050611fbb565b50829750879550505050505092915050565b6000602082019050818103600083015261201f8184611f90565b905092915050565b61203081611e65565b82525050565b600060208201905061204b6000830184612027565b92915050565b61205a81611da7565b82525050565b60006020820190506120756000830184612051565b92915050565b61208481611e65565b811461208f57600080fd5b50565b6000813590506120a18161207b565b92915050565b600080fd5b600080fd5b7f4e487b7100000000000000000000000000000000000000000000000000000000600052604160045260246000fd5b6120e982611ed5565b810181811067ffffffffffffffff82111715612108576121076120b1565b5b80604052505050565b600061211b611d93565b905061212782826120e0565b919050565b600067ffffffffffffffff821115612147576121466120b1565b5b61215082611ed5565b9050602081019050919050565b82818337600083830152505050565b600061217f61217a8461212c565b612111565b90508281526020810184848401111561219b5761219a6120ac565b5b6121a684828561215d565b509392505050565b600082601f8301126121c3576121c26120a7565b5b81356121d384826020860161216c565b91505092915050565b6000806000606084860312156121f5576121f4611d9d565b5b600061220386828701612092565b935050602084013567ffffffffffffffff81111561222457612223611da2565b5b612230868287016121ae565b925050604061224186828701611dc8565b9150509250925092565b60006020828403121561226157612260611d9d565b5b600061226f84828501612092565b91505092915050565b600081519050919050565b600082825260208201905092915050565b6000819050602082019050919050565b60006122b08383611e36565b60208301905092915050565b6000602082019050919050565b60006122d482612278565b6122de8185612283565b93506122e983612294565b8060005b8381101561231a57815161230188826122a4565b975061230c836122bc565b9250506001810190506122ed565b5085935050505092915050565b600060c08301600083015184820360008601526123448282611ee6565b91505060208301516123596020860182611e36565b506040830151848203604086015261237182826122c9565b91505060608301516123866060860182611e36565b5060808301516123996080860182611e77565b5060a083015184820360a08601526123b18282611ee6565b9150508091505092915050565b600060208201905081810360008301526123d88184612327565b905092915050565b600080604083850312156123f7576123f6611d9d565b5b600061240585828601612092565b925050602061241685828601611dc8565b9150509250929050565b6000806040838503121561243757612436611d9d565b5b600061244585828601611dc8565b925050602083013567ffffffffffffffff81111561246657612465611da2565b5b612472858286016121ae565b9150509250929050565b600081519050919050565b600082825260208201905092915050565b6000819050602082019050919050565b60006124b48383611e77565b60208301905092915050565b6000602082019050919050565b60006124d88261247c565b6124e28185612487565b93506124ed83612498565b8060005b8381101561251e57815161250588826124a8565b9750612510836124c0565b9250506001810190506124f1565b5085935050505092915050565b6000602082019050818103600083015261254581846124cd565b905092915050565b600082825260208201905092915050565b600061256982611e86565b612573818561254d565b9350612583818560208601611ea2565b61258c81611ed5565b840191505092915050565b600060a08201905081810360008301526125b1818861255e565b90506125c06020830187612051565b6125cd6040830186612051565b6125da6060830185612027565b81810360808301526125ec818461255e565b90509695505050505050565b60008060006060848603121561261157612610611d9d565b5b600061261f86828701612092565b935050602084013567ffffffffffffffff8111156126405761263f611da2565b5b61264c868287016121ae565b925050604084013567ffffffffffffffff81111561266d5761266c611da2565b5b612679868287016121ae565b9150509250925092565b600060c08301600083015184820360008601526126a08282611ee6565b915050602083015184820360208601526126ba8282611ee6565b91505060408301516126cf6040860182611e36565b5060608301516126e26060860182611e36565b5060808301516126f56080860182611e36565b5060a083015161270860a0860182611e36565b508091505092915050565b6000602082019050818103600083015261272d8184612683565b905092915050565b600060c082019050818103600083015261274f818961255e565b90508181036020830152612763818861255e565b90506127726040830187612051565b61277f6060830186612051565b61278c6080830185612051565b61279960a0830184612051565b979650505050505050565b600081519050919050565b600082825260208201905092915050565b6000819050602082019050919050565b600060c08301600083015184820360008601526127ed8282611ee6565b915050602083015184820360208601526128078282611ee6565b915050604083015161281c6040860182611e36565b50606083015161282f6060860182611e36565b5060808301516128426080860182611e36565b5060a083015161285560a0860182611e36565b508091505092915050565b600061286c83836127d0565b905092915050565b6000602082019050919050565b600061288c826127a4565b61289681856127af565b9350836020820285016128a8856127c0565b8060005b858110156128e457848403895281516128c58582612860565b94506128d083612874565b925060208a019950506001810190506128ac565b50829750879550505050505092915050565b600060208201905081810360008301526129108184612881565b905092915050565b6000806040838503121561292f5761292e611d9d565b5b600061293d85828601611dc8565b925050602061294e85828601611dc8565b9150509250929050565b600060608201905061296d6000830186612051565b61297a6020830185612027565b818103604083015261298c818461255e565b9050949350505050565b7f4e487b7100000000000000000000000000000000000000000000000000000000600052602260045260246000fd5b600060028204905060018216806129dd57607f821691505b602082108114156129f1576129f0612996565b5b50919050565b7f4f6e6c79206d616e616765722063616e2063616c6c20746869732066756e637460008201527f696f6e0000000000000000000000000000000000000000000000000000000000602082015250565b6000612a5360238361254d565b9150612a5e826129f7565b604082019050919050565b60006020820190508181036000830152612a8281612a46565b9050919050565b7f4e487b7100000000000000000000000000000000000000000000000000000000600052601160045260246000fd5b6000612ac382611da7565b91507fffffffffffffffffffffffffffffffffffffffffffffffffffffffffffffffff821415612af657612af5612a89565b5b600182019050919050565b6000606082019050612b166000830186612027565b612b236020830185612051565b8181036040830152612b35818461255e565b9050949350505050565b600081905092915050565b7f436f6d706c657465640000000000000000000000000000000000000000000000600082015250565b6000612b80600983612b3f565b9150612b8b82612b4a565b600982019050919050565b6000612ba182612b73565b9150819050919050565b60008190508160005260206000209050919050565b60008154612bcd816129c5565b612bd78186612b3f565b94506001821660008114612bf25760018114612c0357612c36565b60ff19831686528186019350612c36565b612c0c85612bab565b60005b83811015612c2e57815481890152600182019150602081019050612c0f565b838801955050505b50505092915050565b6000612c4b8284612bc0565b915081905092915050565b7f526f6c65206e6f7420636f6d706c657465640000000000000000000000000000600082015250565b6000612c8c60128361254d565b9150612c9782612c56565b602082019050919050565b60006020820190508181036000830152612cbb81612c7f565b9050919050565b6000612ccd82611da7565b9150612cd883611da7565b9250827fffffffffffffffffffffffffffffffffffffffffffffffffffffffffffffffff03821115612d0d57612d0c612a89565b5b828201905092915050565b6000604082019050612d2d6000830185612027565b612d3a6020830184612051565b9392505050565b7f50656e64696e6700000000000000000000000000000000000000000000000000600082015250565b6000612d77600783612b3f565b9150612d8282612d41565b600782019050919050565b6000612d9882612d6a565b9150819050919050565b6000612dad82611e86565b612db78185612b3f565b9350612dc7818560208601611ea2565b80840191505092915050565b6000612ddf8284612da2565b915081905092915050565b6000604082019050612dff6000830185612051565b8181036020830152612e11818461255e565b90509392505050565b7f4e6f742061207265676973746572656420737461666600000000000000000000600082015250565b6000612e5060168361254d565b9150612e5b82612e1a565b602082019050919050565b60006020820190508181036000830152612e7f81612e43565b9050919050565b6000608082019050612e9b6000830187612051565b612ea86020830186612051565b612eb56040830185612027565b8181036060830152612ec7818461255e565b905095945050505050565b7f537461666620616c726561647920726567697374657265640000000000000000600082015250565b6000612f0860188361254d565b9150612f1382612ed2565b602082019050919050565b60006020820190508181036000830152612f3781612efb565b9050919050565b6000604082019050612f536000830185612027565b8181036020830152612f65818461255e565b90509392505050565b7f4e487b7100000000000000000000000000000000000000000000000000000000600052603260045260246000fdfea26469706673582212205adda56b3f2494c0e806bf821f8ff01ceb5ded43b91dd3c374b7d56967cb35fb64736f6c63430008090033",
  "linkReferences": {},
  "deployedLinkReferences": {}
}